:100000000C949E010C94BD010C94BD010C94BD0197
:100010000C94BD010C94BD010C94BD010C94BD0168
:100020000C94BD010C94BD010C94D9040C94BD0139
:100030000C94BD010C94BD010C942F060C94BD01D1
:100040000C94BD010C94E2060C9412030C94E30290
:100050000C94BD010C94BD010C94BD010C94BD0128
:100060000C94BD010C94BD010C94BD010C94BD0118
:100070000C94BD010C94BD010C94BD010C94BD0108
:100080000C94BD010C9452150C94BD0100000000AD
:100090000000000000000000000000000000000060
:1000A0000000000000000000008056010002000077
:1000B000FEFFFF030300C0FFFFFFBF0100E00F00D2
:1000C000C4FF0100E0030000F00300E07F0000E057
:1000D0000300C0FCFFFFFF0300C081FFFFBF010062
:1000E00080030000DF010000030080FB0000000728
:1000F00000C07F0000000E00C03F0000000C00E0C8
:100100003F0000001C00F80F0000003800DC0E006B
:1001100000007000FC07000000E000FE030000008B
:10012000C080FF01000000C0C1FF0000000080E3AC
:100130003C0000000000E73F0000000000E60F0068
:1001400000000000EE070000000000DC07000000D7
:100150000000B8030000000000F8010000000000EB
:10016000F0010000000000F0000000000000F000BE
:100170000000000000F0000000000000F00000009F
:10018000000000F0000000000000F000000000008F
:100190000070000000000000E0000000000000F01F
:1001A000000000000000F0000000000000700000EF
:1001B00000000000E00000000000007000000000EF
:1001C000000070000000000000700000000000004F
:1001D00060000000000000700000000000007000DF
:1001E000000000000060000000000000700000003F
:1001F000000080FF0700000000F0FF3F000000004B
:1002000070F87C0000000038FCE100000000F00104
:10021000F800000000E0FF7F0000000000FF0F007A
:1002200000000000000000000000000000000000CE
:1002300031363300322E3131006E616E00696E66E8
:100240000000407A10F35A00A0724E18090010A561
:10025000D4E80000E87648170000E40B54020000E0
:10026000CA9A3B000000E1F5050000809698000066
:100270000040420F000000A086010000001027008F
:10028000000000E803000000006400000000000A15
:1002900000000000000100000000002C76D888DC7F
:1002A000674F0823DFC1DFAE59E1B1B796E5E3E45C
:1002B00053C63AE651997696E8E6C28426EB898CD5
:1002C0009B62ED407C6FFCEFBC9C9F40F2BAA56F37
:1002D000A5F490055A2AF75C936B6CF9676DC11B06
:1002E000FCE0E40D47FEF520E6B500D0ED902E03CE
:1002F00000943577050080841E080000204E0A0017
:100300000000C80C333333330F986E12831141EF62
:100310008D2114893BE65516CFFEE6DB18D1844BC0
:10032000381BF77C1D901DA4BBE424203284725E30
:10033000228100C9F124ECA1E53D270011241FBE54
:10034000CFEFD0E1DEBFCDBF13E0A0E0B1E0E6EE3D
:10035000FFE200E00BBF02C007900D92A03DB10785
:10036000D9F714E0A0EDB3E001C01D92AC3CB10799
:10037000E1F70E9484040C94F1170C940000809122
:10038000D003882311F081E008958091D20388235F
:1003900011F482E008951092D20308958093D0035F
:1003A00008959091F3038091F403981711F480E07D
:1003B00008950E94A80208959091F3038091F40398
:1003C000981771F10E94D101982F883621F481E0AD
:1003D0008093D10304C08091D103882311F18091CF
:1003E000D303E82FF0E0E852FC4F90838F5F8093B7
:1003F000D3038430B1F41092D3031092D103963119
:1004000081F48091D903813019F48093D003089549
:10041000823019F41092D00308958093D203089586
:10042000FFCF0895982F8091F503883C21F0892F04
:100430000E94C1020895FFCFEF92FF920F931F9386
:10044000CF93DF93182F062F7A0188E60E941202BD
:10045000812F0E941202802F0E941202C0E0D0E081
:1004600010E007C0F701EC0FFD1F80810E9412020F
:100470002196C017D107B4F386E10E941202DF91E2
:10048000CF911F910F91FF90EF900895DF93CF933D
:100490000F92CDB7DEB7898385E061E0AE014F5F93
:1004A0005F4F0E941C020F90CF91DF91089560E092
:1004B00040E050E00E941C020895982FAB0184E0B8
:1004C000692F0E941C020895DF93CF9300D000D0C3
:1004D0000F92CDB7DEB7DC01FE0131969E012A5F97
:1004E0003F4F11968C91119781931296E217F30763
:1004F000C1F783E065E0AE014F5F5F4F0E941C02D1
:100500000F900F900F900F900F90CF91DF91089563
:100510000E9492020E94DE02089580E895E20E9405
:10052000880208959C0140E050E084E0220F331FD0
:10053000441F551F8A95D1F760E074E284EF90E084
:100540000E940B16215030403093900029B9089535
:10055000F8949091F303E92FF0E0ED51FC4FE08126
:100560008091F403883011F49093F403892F8F5F06
:100570008093F303883010F01092F30378948E2F59
:100580000895282FF8948091F503E82FF0E0E551C5
:10059000FC4F20838F5F8093F503883010F010921A
:1005A000F5039091F5038091E203981719F488E020
:1005B0008093F503559A7894822F089588EB8AB931
:1005C00008951AB808951F920F920FB60F920BB6A6
:1005D0000F9211248F939F93EF93FF938091E203E7
:1005E0009091F503891791F0E82FF0E0E551FC4F69
:1005F000E081983011F48093F5038F5F8093E203DC
:10060000883010F01092E203ECB901C05598FF91C8
:10061000EF919F918F910F900BBE0F900FBE0F9097
:100620001F9018951F920F920FB60F920BB60F9254
:1006300011242F933F934F935F936F937F938F93E7
:100640009F93AF93BF93EF93FF939CB18091F4037B
:100650008830A9F0E82FF0E0ED51FC4F90838F5FD8
:100660008093F403883010F01092F4039091F40317
:100670008091F303981719F488E08093F4030E94A3
:10068000DC01FF91EF91BF91AF919F918F917F918D
:100690006F915F914F913F912F910F900BBE0F90F3
:1006A0000FBE0F901F901895CF92DF92EF92FF929E
:1006B0000F93CF93DF93C0E0D0E000E084E1C82E39
:1006C000D12C23C07E010894E11CF11C81E3602F32
:1006D0000E94B3088091D4039091D5038C0F9D1F85
:1006E00065E070E00E94F8159C012C9DC0012D9DD5
:1006F000900D3C9D900D1124845E9E4F0E94350DFF
:100700008AE090E00E94B306E701065F8091D6037D
:100710009091D703C817D907ACF2DF91CF910F9111
:10072000FF90EF90DF90CF900895FC018091D60369
:100730009091D7032091D4033091D503820F931F5A
:1007400065E070E00E94F81524E130E0AC01429FC2
:10075000C001439F900D529F900D1124845E9E4FC7
:10076000BF010E9424178091D6039091D703853052
:10077000910534F401969093D7038093D60309C072
:100780008091D4039091D50301969093D5038093E3
:10079000D4030E94540308951F93CF93DF93F894DA
:1007A0001AE081E3612F0E94B30880E091E00E948B
:1007B000350D165F1C33A9F7CCE1D1E0CE016EE018
:1007C00071E00E942417649681E0C038D807B1F721
:1007D0007894DF91CF911F9108950E949F050E9408
:1007E000740880E060E00E94B30881E36CE34CE8A9
:1007F00050E00E94B5090895EF92FF920F931F9366
:10080000DF93CF93CDB7DEB764970FB6F894DEBF12
:100810000FBECDBF19821A821B821C82FE01359643
:1008200080E1DF011D928A95E9F70E941E0FEDB766
:10083000FEB738970FB6F894FEBF0FBEEDBF0DB7E9
:100840001EB70F5F1F4F7E010894E11CF11CF2825E
:10085000E1828FE091E0D80113969C938E931297DA
:100860006091AE047091AF0480E090E00E9450105F
:1008700029EB3CEF47E85CE30E94DE102CEE31E50B
:1008800048E95FE30E94EB0FF80164837583868378
:1008900097830E9462178DB79EB708960FB6F8949B
:1008A0009EBF0FBE8DBF81E360E00E94B308C70109
:1008B0000E94350D64960FB6F894DEBF0FBECDBF13
:1008C000CF91DF911F910F91FF90EF9008950E94BB
:1008D000260F78940E94DA060E948B0F0E94FD0575
:1008E0000E94320F0E94A30E0E9443150E94ED0346
:1008F0000E948D0285E085BD87B7806487BF80E850
:1009000091E00E94950308950E94670488EE93E0A9
:100910000E94B3060E94FC03F9CF0E94550D8091FE
:100920007004909171048050974410F082E001C0EF
:1009300081E067E00E943A0F809172049091730405
:100940008050974410F082E001C081E066E00E9490
:100950003A0F80917404909175048050974430F060
:1009600082E065E00E943A0F82E005C081E065E028
:100970000E943A0F81E064E00E943A0F8091760471
:10098000909177048050974410F082E001C081E09C
:1009900063E00E943A0F809178049091790480502E
:1009A000974410F082E001C081E062E00E943A0FBB
:1009B00008951F920F920FB60F920BB60F9211244B
:1009C0002F933F934F935F936F937F938F939F9357
:1009D000AF93BF93EF93FF930E948D04FF91EF912C
:1009E000BF91AF919F918F917F916F915F914F9147
:1009F0003F912F910F900BBE0F900FBE0F901F9045
:100A0000189590916500282F30E080E0A901417091
:100A1000507020FF81E09E7F982B9093650080911D
:100A200065004115510511F490E001C092E08D7F01
:100A3000892B809365008091650021FD02C090E0C4
:100A400001C098E0877F892B8093650080916500C5
:100A50008F7E809365008FEF8ABB6BBB85E0982FFC
:100A60009A95F1F790916500946090936500982FA6
:100A70009A95F1F7909165009B7F909365008A9518
:100A8000F1F71BBA1ABA089590916500282F30E04B
:100A900080E0A9014170507020FF81E09E7F982B7B
:100AA00090936500809165004115510511F490E027
:100AB00001C092E08D7F892B809365008091650055
:100AC00021FD02C090E001C098E0877F892B8093D0
:100AD0006500809165008061809365001ABA25E009
:100AE000822F8A95F1F7809165008460809365007C
:100AF00085E18A95F1F789B3909165009B7F90938A
:100B00006500922F9A95F1F708951F93CF93DF9385
:100B10009091F603992371F0182F1170CFEFDFEF4A
:100B2000812F0E944405219787FD02C081E003C008
:100B30002097B1F780E0DF91CF911F9108958FEF5B
:100B40008093F603809164008860809364008091B4
:100B5000640080618093640080916400846080936D
:100B600064008091640081608093640080916400DF
:100B7000826080936400B89A1ABA80916500877F7A
:100B800080936500809165008F7E809365008091E1
:100B900065008B7F80936500809165008E7F8093D8
:100BA0006500809165008D7F80936500C098979B5C
:100BB00007C0979880EA9FE00197F1F7979A04C0E1
:100BC00080EA9FE00197F1F7C09A80E00E948505D6
:100BD000882351F081E00E948505882311F082E08E
:100BE00001C081E08093F6038091F6038F3F11F4FA
:100BF0001092F6038091F60308951092000410926B
:100C0000FF031092FC031092FB0310920104109258
:100C1000020410920304109204041092F80310923C
:100C2000F7031092FA031092F9038FEF93E0909379
:100C3000FE038093FD03C598C698BD9ABE9ABF9ADD
:100C4000C79A1DBC1CBC8AEA8FBD82E18EBD80E0C4
:100C500094E097BD86BD87B7846087BF08951F92D3
:100C60000F920FB60F9211242F933F934F938F93B0
:100C70009F93AF93BF938091FF03909100049C01D9
:100C8000285E3F4F309300042093FF0343E0283E4B
:100C9000340778F0805D9340909300048093FF03C5
:100CA0008091FB039091FC0301969093FC03809349
:100CB000FB038091FB039091FC039C012F5F3F4F4E
:100CC0003093FC032093FB0343E0283E3407C8F035
:100CD000875E93409093FC038093FB038091010413
:100CE00090910204A0910304B09104040196A11D07
:100CF000B11D8093010490930204A0930304B09368
:100D000004048091F7039091F80323E08F3F92074A
:100D100010F080E094E09BBD8ABD8091F903909132
:100D2000FA0343E08F3F940710F080E094E099BD10
:100D300088BD8091FD039091FE0323E08F3F9207D1
:100D400010F080E094E09093790080937800BF9158
:100D5000AF919F918F914F913F912F910F900FBE27
:100D60000F901F90189520EA3FE004C0F9013197D9
:100D7000F1F701970097D1F70895109241048093FD
:100D80002204982F9F5F9093240496E99093420445
:100D9000F89403C078940000F894B09BFBCF90ECDB
:100DA0009DB98FB996E9982790934004779A7894E3
:100DB00080E00895B898C098BB9AC39A80E00E94DA
:100DC000BD0608951F920F920FB60F920BB60F92A9
:100DD00011242F933F934F935F936F937F938F9340
:100DE0009F93AF93BF93EF93FF939FB120914204E2
:100DF000292720934204809141048823B1F49093E1
:100E000020049C3130F0109222041092200491E0D2
:100E100009C0492F50E02091240430E042175307C5
:100E2000FCF09F5F909324041BC0482F50E060911A
:100E3000200470E0641775072CF04C5D5B4FFA01DD
:100E400090830EC0415050404617570749F4222363
:100E500039F0909121049F5F909321041092200417
:100E600090912204891750F4E82FF0E0EB5FFB4FDC
:100E700020812FB990914004922711C0891731F435
:100E8000909140049FB9109240040BC090912404AB
:100E9000891758F49FEF9FB99091400490959093D3
:100EA00040048F5F8093410411C0B898C0981DB86A
:100EB000B898C098809123048F5F8093230478941E
:100EC000809120040E94C80E0E94BD06FF91EF9100
:100ED000BF91AF919F918F917F916F915F914F9152
:100EE0003F912F910F900BBE0F900FBE0F901F9050
:100EF000189580914604089580914F040895809339
:100F000043040895982F9052903608F080E880525C
:100F100090E0FC01EE0FFF1FE80FF91FEE0FFF1F1F
:100F2000E157FE4F908180914504882309F49FE1A9
:100F300080E020E090FD8F5F2F5F253011F09695C7
:100F4000F9CF08951F93CF93DF93EC0110E005C014
:100F500021960E9482078F5F180F88818823C1F72E
:100F6000812FDF91CF911F9108951F93CF93DF932E
:100F7000EC0110E007C02196F90184910E948207DC
:100F80008F5F180F9E01FE0194919923A1F7812F85
:100F9000DF91CF911F91089580934504089580912A
:100FA00045040895863130F4683020F46093440499
:100FB0008093500408950F931F93DF93CF930F9264
:100FC000CDB7DEB7182F6854883018F580E06983F4
:100FD0000E94850580E069810E94010580E00E94F1
:100FE0008505612F660F660F660F605C80E00E94CA
:100FF000010507E414E082E00E94850582E0F80123
:1010000061918F010E940105F4E00F341F0799F7E9
:1010100023C0185081E069830E94850581E06981C1
:101020000E94010581E00E948505612F660F660F11
:10103000660F605C81E00E94010507E414E083E034
:101040000E94850583E0F80161918F010E940105EE
:10105000F4E00F341F0799F70F90CF91DF911F91A4
:101060000F910895FF920F931F93F82E18EB80E0D5
:101070000E94850581E00E94850580E0612F0E9425
:10108000010581E0612F0E94010500E082E00E94DD
:10109000850583E00E94850582E06F2D0E94010591
:1010A00083E06F2D0E9401050F5F003479F71F5F09
:1010B000103CE9F680E00E94850581E00E948505EC
:1010C00080E068EB0E94010581E068EB0E94010569
:1010D0001F910F91FF90089580E00E9432081092B6
:1010E000440410925004089580E00E94850580E039
:1010F0006FE30E94010580E00E94850580E060ECBE
:101100000E94010580E00E94850580E060E40E9465
:10111000010580E00E94850580E068EB0E940105E2
:1011200081E00E94850581E06FE30E94010581E076
:101130000E94850581E060EC0E94010581E00E942B
:10114000850581E060E40E94010581E00E9485053B
:1011500081E068EB0E94010580E00E94320881E096
:101160008093430408950F931F93182F062F8093A5
:10117000460460934F0480E00E94850581E00E9450
:101180008505069506950695085480E0602F0E9417
:10119000010581E0602F0E94010580E00E94850525
:1011A00081E00E948505113438F080E060E40E94FF
:1011B000010581E0612F07C0612F605C80E00E9423
:1011C000010581E060E40E9401051F910F910895DF
:1011D000EF92FF920F931F93CF93DF9319EB47C0CA
:1011E0000830E8F480E00E94850580E0612F0E94CD
:1011F000010580E00E9485056F2D605C80E00E9403
:10120000010582E00E944405C7E4D4E082E00E9428
:101210004405899384E0CF34D807C1F71BC081E02F
:101220000E94850581E0612F0E94010581E00E94F6
:10123000850581E06F2D0E94010583E00E94440531
:10124000C7E4D4E083E00E944405899384E0CF346E
:10125000D807C1F7802F6E2D0E94DB070F5F88E053
:10126000F80E003109F0BCCF1F5F103C31F0FF24B5
:1012700000E037E4E32EE10EB3CFE7E4F4E01192AF
:1012800084E0EF34F807D9F710E0812F67E00E947F
:10129000DB071F5F1031C9F780914404882319F0E0
:1012A000815080934404DF91CF911F910F91FF9063
:1012B000EF900895EF92FF920F931F93E82E162F51
:1012C0008091460487FD39C000E0803408F001E0D9
:1012D000802F0E94850542E0F42EF00E8F2D0E9493
:1012E00044058F2D0E9444059091430492FF02C053
:1012F000E0949B7FE122992319F41E2D182B08C03E
:10130000913021F4109518231E2902C01E2D182794
:10131000802F0E948505609146046064802F0E94A2
:101320000105802F0E9485058F2D612F0E940105E8
:10133000809146048F5F809346041F910F91FF9028
:10134000EF90089590914F04977061E070E002C0B3
:10135000660F771F9A95E2F7882311F0862F02C057
:10136000862F60E00E945A0908952F923F924F9273
:101370005F926F927F928F929F92AF92BF92CF9225
:10138000DF92EF92FF920F931F93DF93CF9300D0E2
:1013900000D000D0CDB7DEB7082F162F5A8349836F
:1013A00060904604E0904F048E2D87702FEF30E060
:1013B000F22E01C0FF0C8A95EAF7802F90E001978A
:1013C00068E070E00E94F8156F5FA62EBB24C5018F
:1013D00073E0880F991F7A95E1F744245524481A41
:1013E000590ACC2468E0762E5FEF852E912CBC82C2
:1013F000AB8271C08E2D8770D72CD81A1D1548F47A
:101400008D2D811B940102C0359527958A95E2F7B1
:10141000F2228D2D8C0D90E08A9D10018B9D300C59
:101420009A9D300C112480E090E09E838D8343C010
:101430004D815E81477050704115510571F5E695FB
:10144000E695E695C1018E0F911DFC01A981BA8137
:10145000EA0FFB1FE40DF51D20E030E06D817E8179
:101460009491A7E4B4E08C9186958C9390FF02C090
:1014700080688C93119684E0AF34B80711F096958C
:10148000F2CF2F5F3F4F2830310529F0AB81BC816F
:10149000EA0FFB1FE5CF7E836D83495B5B4FFA014B
:1014A00080818F216F2D0E945A092D813E812F5FEF
:1014B0003F4F3E832D83ED81E01708F4B9CF1D1512
:1014C00008F4D12E1D19ED0CCD0C862D6E2D0E9429
:1014D000B308FF24FA94112309F08CCF26960FB697
:1014E000F894DEBF0FBECDBFCF91DF911F910F915A
:1014F000FF90EF90DF90CF90BF90AF909F908F9034
:101500007F906F905F904F903F902F9008952F9213
:101510003F924F925F926F927F928F929F92AF9283
:10152000BF92CF92DF92EF92FF920F931F93DF93C0
:10153000CF9300D000D000D0CDB7DEB7082F162F44
:101540005A83498360904604E0904F048E2D877043
:101550002FEF30E0F22E01C0FF0C8A95EAF7802FC2
:1015600090E0019768E070E00E94F8156F5FA62E8A
:10157000BB24C501A3E0880F991FAA95E1F7442475
:101580005524481A590ACC24F8E07F2EEFEF8E2E0E
:10159000912CBC82AB8271C08E2D8770D72CD81A4B
:1015A0001D1548F48D2D811B940102C0359527959A
:1015B0008A95E2F7F2228D2D8C0D90E08A9D100124
:1015C0008B9D300C9A9D300C112480E090E09E831E
:1015D0008D8343C04D815E81477050704115510528
:1015E00071F5E695E695E695C1018E0F911DFC011A
:1015F000A981BA81EA0FFB1FE40DF51D20E030E060
:101600006D817E819081A7E4B4E08C9186958C9366
:1016100090FF02C080688C93119684E0AF34B807C5
:1016200011F09695F2CF2F5F3F4F2830310529F00A
:10163000AB81BC81EA0FFB1FE5CF7E836D83495BE5
:101640005B4FFA0180818F216F2D0E945A092D81F5
:101650003E812F5F3F4F3E832D83ED81E01708F4DD
:10166000B9CF1D1508F4D12E1D19ED0CCD0C862D0A
:101670006E2D0E94B308FF24FA94112309F08CCF39
:1016800026960FB6F894DEBF0FBECDBFCF91DF9187
:101690001F910F91FF90EF90DF90CF90BF90AF9090
:1016A0009F908F907F906F905F904F903F902F9082
:1016B0000895AF92BF92CF92DF92EF92FF920F9375
:1016C0001F93CF93DF93A82E162FB0904604F0906F
:1016D0004F048F2D87702FEF30E0022F01C0000FD5
:1016E0008A95EAF7B8E0CB2ECFEFD0E022C08F2D5D
:1016F0008770EC2CE81A1E1548F48E2D811B9E0174
:1017000002C0359527958A95E2F70223DA2C05C0A9
:10171000802F602F0E945A09DA94DD20C9F71E1528
:1017200008F4E12E1E19FE0C8B2D6F2D0E94B308BC
:101730000FEF1123E1F6DF91CF911F910F91FF90F1
:10174000EF90DF90CF90BF90AF900895682F81E029
:101750000E94590B08950F931F93182F80914F04E7
:10176000877021E030E0022F01C0000F8A95EAF770
:1017700005C0802F602F0E945A0911501123C9F70C
:101780001F910F9108959F92AF92BF92CF92DF92D7
:10179000EF92FF920F931F93082F162FF09046049D
:1017A000E0904F048F1561F4E61618F4862F8E1919
:1017B00004C00E94B3088E2D811B0E94A60B5EC040
:1017C000DE2C6E1559F4F81610F48F1904C00E941F
:1017D000B3088F2D801B0E94AB0B50C08F1528F4CF
:1017E000AF2CA81A99249A9409C0F81618F09924D5
:1017F000AA2404C0A82EAF18992493941E1528F487
:10180000BE2CB11ACC24CA9409C0E11618F0CC241D
:10181000BB2404C0B12EBE18CC24C39481E00E9426
:10182000A209BA14B0F4EA2CE694E194F90CEB0C9A
:101830001E1414F4EA18DC0C8F2D6D2D0E94B308D1
:1018400081E00E94A209F90C8F2D8919801779F780
:1018500015C0DB2CD694D194EC0CDA0C1D1414F4C6
:10186000DB18F90C8F2D6E2D0E94B30881E00E94C9
:10187000A209EC0C8E2D8C19811779F7802F612F1E
:101880000E94B3081F910F91FF90EF90DF90CF90CF
:10189000BF90AF909F9008958F929F92AF92BF920A
:1018A000CF92DF92EF92FF920F931F93CF93DF932C
:1018B000062F982F9052903608F080E8805296E0DC
:1018C000899FE0011124C157DE4F188180914504A2
:1018D000882309F41FE1E02EFF24E7FCF0948FEF4A
:1018E00090E06C010E2C02C0CC0CDD1C0A94E2F7D7
:1018F000AA24BB24AE18BF080A2C02C09595879570
:101900000A94E2F7D82E85E0882E912C8C0E9D1E2D
:1019100010FF16C0898107FD09C090E00E2C02C09F
:10192000880F991F0A94E2F76C2D08C090E00A2CEA
:1019300002C0959587950A94E2F76D2D0E945A0989
:101940002196C815D90511F01695E2CF07FD03C001
:1019500080E06C2D02C080E06D2D0E945A09DF915D
:10196000CF911F910F91FF90EF90DF90CF90BF909C
:10197000AF909F908F900895FF920F931F93082F21
:10198000F090460410914F041770612F0E944C0C88
:10199000112391F060914F04685F8F2D0E94B3086E
:1019A000612F6850802F0E944C0C60914F0468504A
:1019B000809146040E94B3081F910F91FF900895F3
:1019C0001F93CF93DF93EC011092450436C01A3079
:1019D00069F410925004809144048F5F8093440412
:1019E000883059F581E00E94E80827C01D3029F1B0
:1019F00080915004853160F010925004809144042D
:101A00008F5F80934404883019F481E00E94E808D5
:101A100090915004892F880F890F60914404660FBC
:101A2000660F660F880F0E94B308812F0E94BC0CBE
:101A3000809150048F5F809350041991112339F6DF
:101A4000DF91CF911F910895CF93DF93EC0105C0F3
:101A50002196F90184910E94BC0C9E01FE01949193
:101A60009923B1F7DF91CF910895CF93DF93EC01E4
:101A700003C021960E94BC0C88818823D1F7DF9196
:101A8000CF91089590E0282F30E0F90183E0EE0F28
:101A9000FF1F8A95E1F7E21BF30BE95AFB4F8081A8
:101AA0008F3F09F091E0892F0895F89490918F0469
:101AB00080E0EFE8F4E02291820F911D9093710491
:101AC00080937004938180E02281820F911D909316
:101AD000730480937204958180E02481820F911DAC
:101AE0009093750480937404978180E02681820F1F
:101AF000911D9093770480937604918580E02085F2
:101B0000820F911D90937904809378047894F894CF
:101B1000209198048091530490915404820F911D58
:101B20003091990420E0820F931F90936D0480936D
:101B30006C0420919A048091510490915204820F78
:101B4000911D30919B0420E0820F931F9093850498
:101B50008093840490919D0480E020919C04820FE6
:101B6000911D9093AD048093AC0490919F0480E00C
:101B700020919E04820F911D909383048093820490
:101B80009091A10480E02091A004820F911D909378
:101B90005604809355049091A30480E02091A20400
:101BA000820F911D90938D0480938C047894F89407
:101BB0009091A60480E02091A504820F911D90933E
:101BC0006F0480936E049091A80480E02091A70494
:101BD000820F911D9093AA048093A904789481E0C8
:101BE0000895F89481E08093570478940895F894C8
:101BF0008AE080935704789481E00895F89425E072
:101C000020935704809358049093590460935A0486
:101C100070935B04789481E00895F89422E0209317
:101C20005704809358049093590460935A04709316
:101C30005B04789481E0089520915304309154041A
:101C4000FC01E21BF30B9F0180915104909152041F
:101C5000681B790BF89483E080935704E093580451
:101C60003093590460935A0470935B0440935C046E
:101C700050935D04789481E00895F89424E02093D3
:101C80005704809358049093590460935A047093B6
:101C90005B0440935C0450935D04789481E0089564
:101CA00078949091650420E137E22150304011F0A2
:101CB0009F3FD9F7F89496E090936504809366046B
:101CC0006093670440936804789481E0089581E00C
:101CD0000895F89430919B0420E040919A04F90112
:101CE000E40FF11DAF013091990420E0E0919804D8
:101CF0002E0F311DFC01E21BF30BF0935404E09313
:101D000053049B01241B350B309352042093510440
:101D100090936D0480936C047093850460938404A5
:101D2000789481E00895789420915E0480E197E2B0
:101D3000019711F02F3FE1F7F89488E080935E045B
:101D4000789481E00895789420915E0480E197E290
:101D5000019711F02F3FE1F7F89487E080935E043C
:101D6000789481E00895789440915E0420E137E210
:101D70002150304011F04F3FD9F7F89429E02093DB
:101D80005E0480935F0490936004789481E00895EA
:101D90009091AB049F5F9093AB048B3141F4AEE81C
:101DA000B4E0E5E2F4E001900D928150E1F78FEFAD
:101DB0008093130480930C0480930504809157044E
:101DC0008F3F11F480E00DC0A5E0B4E0E7E5F4E05A
:101DD00087E001900D928150E1F78FEF80935704D7
:101DE00087E090915E049F3F79F0E82FF0E0EB5F91
:101DF000FB4FAEE5B4E097E00D9001929150E1F712
:101E00009FEF90935E04895F909165049F3F81F0FE
:101E1000E82FF0E0EB5FFB4FA5E6B4E087E00D9024
:101E200001928150E1F78FEF8093650485E1089579
:101E3000882311F487E0089585E1089587E00E94E2
:101E4000C80F9093AF048093AE0408958F9A97982B
:101E50008AE090E00E94B306979A84E690E00E94A0
:101E6000B3060895BF9AC79ABD9ABE9A8FEF82B9FA
:101E700084BB0895482F80FF0BC095B321E030E06C
:101E8000062E02C0220F331F0A94E2F7922B0CC0D9
:101E900085B321E030E0062E02C0220F331F0A94E2
:101EA000E2F7922F9095982395BB41FF0AC083B12A
:101EB00021E030E002C0220F331F6A95E2F7822B47
:101EC0000AC023B181E090E002C0880F991F6A9593
:101ED000E2F78095822383B908959093FE0380935F
:101EE000FD0308958091FD039091FE030895909362
:101EF000F8038093F70308958091F7039091F80316
:101F000008959093FA038093F90308958091F9035B
:101F10009091FA030895BC9A089545E322C0C498AD
:101F2000282F392F0AC061507040542F5A95F1F76D
:101F30006115710529F0215030402115310599F7BF
:101F4000C49A282F392F07C061507040215030406B
:101F5000542F5A95F1F76115710519F021153105C6
:101F600099F761157105D9F60895E1E6F0E09081E1
:101F700021E030E002C0220F331F8A95E2F720955E
:101F800092239083E2E6F0E08081822380830895AB
:101F900090E497B997B18770892B87B987EC86B998
:101FA00001C000003699FDCF84B195B1392F20E0F2
:101FB000280F311D8091B0049091B104820F931FBE
:101FC0009093B1048093B004C90108958091B00446
:101FD0009091B10408955058BB27AA270ED0B4C0E1
:101FE000A5D030F0AAD020F031F49F3F11F41EF4B8
:101FF0009AC00EF4E095E7FB90C0E92FB6D080F3CD
:10200000BA17620773078407950718F071F49EF5F5
:10201000CEC00EF4E0950B2EBA2FA02D0B01B90106
:1020200090010C01CA01A0011124FF27591B99F04E
:10203000593F50F4503E68F11A16F040A22F232F5A
:10204000342F4427585FF3CF469537952795A795AA
:10205000F0405395C9F77EF41F16BA0B620B730B51
:10206000840BBAF09150A1F0FF0FBB1F661F771FC2
:10207000881FC2F70EC0BA0F621F731F841F48F477
:10208000879577956795B795F7959E3F08F0B3CFFD
:102090009395880F08F09927EE0F979587950895E7
:1020A000E89409C097FB3EF49095809570956195F2
:1020B0007F4F8F4F9F4F9923A9F0F92F96E9BB27A8
:1020C0009395F695879577956795B795F111F8CF24
:1020D000FAF4BB0F11F460FF1BC06F5F7F4F8F4F8F
:1020E0009F4F16C0882311F096E911C0772321F085
:1020F0009EE8872F762F05C0662371F096E8862F1D
:1021000070E060E02AF09A95660F771F881FDAF773
:10211000880F9695879597F9089597F99F6780E8B6
:1021200070E060E008959FEF80EC089500240A9429
:102130001616170618060906089500240A941216A2
:102140001306140605060895092E0394000C11F4D5
:10215000882352F0BB0F40F4BF2B11F460FF04C082
:102160006F5F7F4F8F4F9F4F089557FD9058440FDB
:10217000551F59F05F3F71F04795880F97FB991FE6
:1021800061F09F3F79F087950895121613061406A3
:10219000551FF2CF4695F1DF08C016161706180630
:1021A000991FF1CF86957105610508940895E8940B
:1021B000BB2766277727CB0197F908950BD0C4CFAB
:1021C000B5DF28F0BADF18F0952309F0A6CFABCF22
:1021D0001124EECFCADFA0F3959FD1F3950F50E005
:1021E000551F629FF001729FBB27F00DB11D639FC9
:1021F000AA27F00DB11DAA1F649F6627B00DA11D6F
:10220000661F829F2227B00DA11D621F739FB00D14
:10221000A11D621F839FA00D611D221F749F332784
:10222000A00D611D231F849F600D211D822F762F1D
:102230006A2F11249F5750408AF0E1F088234AF01A
:10224000EE0FFF1FBB1F661F771F881F9150504066
:10225000A9F79E3F510570F060CFAACF5F3FECF326
:10226000983EDCF3869577956795B795F795E79552
:102270009F5FC1F7FE2B880F911D9695879597F963
:1022800008952F923F924F925F926F927F928F921A
:102290009F92AF92BF92CF92DF92EF92FF920F93F5
:1022A0001F93DF93CF93CDB7DEB761970FB6F89446
:1022B000DEBF0FBECDBF3C017F876E876A01FC0188
:1022C00017821682838181FD03C06FEF7FEF71C398
:1022D0009E012F5F3F4F398B288BF3012381EE85C1
:1022E000FF8523FD859123FF8191FF87EE8788235A
:1022F00009F45CC3853251F4EE85FF8523FD859199
:1023000023FF8191FF87EE87853229F490E0B301A6
:102310000E943617E2CF982F10E0882499241032BB
:10232000B0F49B3269F09C3228F4903251F0933231
:1023300071F40BC09D3239F0903349F4116028C01C
:102340001260146025C0186023C0106121C017FD01
:102350002AC0892F80538A3078F416FF06C0FAE02D
:102360009F9E902C1124980E13C03AE0839E802CDF
:102370001124880E10620CC09E3221F416FD16C383
:10238000106406C09C3611F4106802C0983659F4E7
:10239000EE85FF8523FD959123FF9191FF87EE87C1
:1023A000992309F0BCCF892F8554833020F4812FE5
:1023B0008061905E07C0892F8556833008F0A1C1E7
:1023C000812F8F7E86FD02C076E0972E6FE3F62E7A
:1023D000F822953619F4F0E4FF2A07C0963619F46E
:1023E00020E8F22A02C091109A94F7FE0BC03BE35A
:1023F000391520F427E05CE3B52E0EC0B92CB39458
:1024000027E00AC047E0491528F427E0BB2447E04D
:10241000942E02C0292DBB24C60104969D878C876B
:10242000F6016081718182819381AE014F5F5F4FC0
:102430000B2D0E9441166C010981202E332400FFD0
:1024400004C003FD02C01DE209C0F1FE02C01BE290
:1024500005C0F2FC02C010E001C010E2C1018C70A6
:102460009070892BB9F1112311F483E001C084E04D
:10247000881510F088240AC0881AF3FC07C080E28F
:1024800090E0B3010E9436178A94C9F7112329F00E
:10249000812F90E0B3010E94361723FE03C009E3A9
:1024A00012E00EC00DE312E00BC0E114F10409F0DC
:1024B000805290E0B3010E9436170F5F1F4F05C096
:1024C000EF2CFF24F0E1EF22FF24F8018491882310
:1024D00061F714C1F7FE12C0BC0C24FE04C08A814F
:1024E000813309F4BA941B141CF0BB24B3942DC09F
:1024F000F8E0FB1550F538E0B32E27C0F6FC25C0F8
:10250000892D90E08C159D054CF02CEFC2162FEF15
:10251000D20624F030E8F32A01C09A94992049F0B9
:10252000E2E0F0E0EC0FFD1FE90DF11D808180334A
:10253000A1F3F7FE0AC0B92CB394892D90E0C81618
:10254000D90614F0992401C09C18F7FC03C025E0BB
:1025500030E009C01C141D041CF021E030E003C071
:1025600096012F5F3F4F112311F02F5F3F4F9920AE
:1025700029F0892D90E00196280F391F882D90E0D1
:102580002817390714F0882401C0821A4F2C5524CB
:10259000C20189709070892B39F008C080E290E008
:1025A000B3010E9436178A948820C1F7112329F0BD
:1025B000812F90E0B3010E94361743FE07C008C088
:1025C00080E390E0B3010E9436178A948820C1F717
:1025D000F7FE46C08601D7FE02C000E010E076019B
:1025E0000894E11CF11CE01AF10A41E050E04C0FA4
:1025F0005D1FE40EF51E26014B185108892D90E051
:10260000AA24BB24A81AB90A5FEF0F3F150729F4C3
:102610008EE290E0B3010E943617C016D10634F066
:10262000401651061CF4F701808101C080E301507F
:1026300010400894E11CF11C0A151B052CF090E0D9
:10264000B3010E943617E0CF0C151D0539F49A81AD
:10265000963318F4953311F424FE81E390E04BC0D7
:102660008A81813309F00F7E90E0B3010E94361712
:102670009920A1F08EE290E0B3010E94361712E09B
:10268000E1E0F0E0EC0FFD1FE10FF11D1F5F808125
:1026900090E0B3010E9436179A9491F744FC03C06E
:1026A00085E690E002C085E490E0B3010E94361711
:1026B000D7FC05C0C114D10441F404FF06C0D09476
:1026C000C194D108D3948DE201C08BE290E0B301B4
:1026D0000E94361780E305C08F5F26EF3FEFC20EE2
:1026E000D31E3AE0C316D104BCF790E0B3010E94B8
:1026F0003617C601C096B3010E943617CC84DD841C
:1027000052C1933631F0933799F0933509F059C09F
:1027100023C0F601808189835E010894A11CB11C4D
:1027200022E030E0C20ED31E21E0E22EF12C12C0D6
:10273000F601A080B18016FD03C06FEF7FEF02C0ED
:10274000692D70E022E030E0C20ED31EC5010E9468
:102750002B177C011F7713C0F601A080B18016FDF6
:1027600003C06FEF7FEF02C0692D70E022E030E020
:10277000C20ED31EC5010E9419177C01106813FFF9
:1027800007C01BC080E290E0B3010E9436178A9414
:10279000882D90E0E816F906A8F30FC0F50117FDA3
:1027A000859117FF81915F0190E0B3010E94361778
:1027B00081108A940894E108F108E114F10471F79A
:1027C000F2C0943611F0993689F517FF08C0F6016A
:1027D000208131814281538184E090E00AC0F6017A
:1027E000808191819C01442737FD4095542F82E0E0
:1027F00090E0C80ED91E9FE6F92EF12257FF09C0BE
:1028000050954095309521953F4F4F4F5F4F90E841
:10281000F92ACA01B901AE014F5F5F4F2AE030E0EB
:102820000E949317E82EE889EE1A41C0953721F4EB
:102830001F7E2AE030E01CC0197F9F3661F0903780
:1028400020F4983509F0B2C00FC0903739F09837AE
:1028500009F0ACC004C028E030E00AC0106114FDEB
:10286000146020E130E004C014FD166020E132E085
:1028700017FF08C0F601608171818281938144E075
:1028800050E008C0F60180819181BC0180E090E0B9
:1028900042E050E0C40ED51EAE014F5F5F4F0E9474
:1028A0009317E82E5889E51A8FE7F82EF122F6FEE5
:1028B0000BC08EEFF822E91438F4F4FE07C0F2FCE6
:1028C00005C09FEEF92202C01E2D01C0192DF4FE95
:1028D0000DC0FE01EE0DF11D8081803319F4E9EE8B
:1028E000FE2208C01F5FF2FE05C003C08F2D867850
:1028F00009F01F5F0F2DF3FC14C0F0FE0FC0181578
:1029000010F09E2C0BC09E2C980C911A182D06C00E
:1029100080E290E0B3010E9436171F5F1815C0F3E4
:1029200004C0181510F4811A01C0882404FF0FC0D8
:1029300080E390E0B3010E94361702FF1DC001FD45
:1029400003C088E790E00EC088E590E00BC0802FC0
:10295000867891F001FF02C08BE201C080E2F7FCB3
:102960008DE290E0B3010E94361706C080E390E04C
:10297000B3010E9436179A94E914C0F3EA94E1E097
:10298000F0E0EC0FFD1FEE0DF11D808190E0B30132
:102990000E943617EE2091F706C080E290E0B30166
:1029A0000E9436178A948820C1F797CCF30166817C
:1029B0007781CB0161960FB6F894DEBF0FBECDBF15
:1029C000CF91DF911F910F91FF90EF90DF90CF900B
:1029D000BF90AF909F908F907F906F905F904F903F
:1029E0003F902F900895F8948091C604882311F4A5
:1029F00081E105C08091740084FF05C082E180936D
:102A0000C60480E015C08091740085FF07C0109255
:102A1000740084E08093740088E1F1CF1092C604C2
:102A20008091C9048093C70485EA8093740081E093
:102A30007894089580E197E235E00DC0209174000C
:102A400020FD06C02091740024FD02C081E008959D
:102A5000232F2A95F1F701972FEF8F3F920771F7F8
:102A6000F8941092740084E0809374008091C604FE
:102A7000803118F483E18093C604789480E008954F
:102A80008091C6040895E4E7F0E0108288E4809322
:102A900070008FEF8093730084E0808381E08093E7
:102AA000C60408951F920F920FB60F920BB60F92A5
:102AB00011242F933F938F939F93EF93FF938091D4
:102AC0007100887F8093C804883251F1893288F47C
:102AD000803121F1813138F4882309F471C08830C4
:102AE00009F073C01BC08831D9F0803209F06DC085
:102AF00067C0803409F442C0813438F4803309F46B
:102B00005FC0883309F061C056C0803559F18835FF
:102B100009F442C0883409F058C052C01092CA0467
:102B20009091CA048091C704981768F48091CA04F0
:102B3000E82FF0E0EE54FB4F90818F5F8093CA0442
:102B40009093730027C08091CB04882369F1809112
:102B5000CB048093C7048091B20481608093B20457
:102B600085EA26C08091CA0490917300E82FF0E0B6
:102B7000EE54FB4F90838F5F8093CA048091CA0408
:102B80002091C70490E0019630E08217930714F477
:102B900085EC0EC085E80CC0E091CA0480917300FA
:102BA000F0E0EE54FB4F808382E08093C60484E91A
:102BB0008093740010C084E88093740085E109C09C
:102BC00084E98093740086E104C084E880937400F3
:102BD00087E18093C604FF91EF919F918F913F9180
:102BE0002F910F900BBE0F900FBE0F901F90189556
:102BF00097FB092E07260AD077FD04D02ED006D0E9
:102C000000201AF4709561957F4F0895F6F790951E
:102C100081959F4F0895A1E21A2EAA1BBB1BFD01AF
:102C20000DC0AA1FBB1FEE1FFF1FA217B307E407AB
:102C3000F50720F0A21BB30BE40BF50B661F771F03
:102C4000881F991F1A9469F76095709580959095E3
:102C50009B01AC01BD01CF010895AA1BBB1B51E133
:102C600007C0AA1FBB1FA617B70710F0A61BB70BFC
:102C7000881F991F5A95A9F780959095BC01CD01A1
:102C80000895283008F027E03327DA01990F311D25
:102C900087FD916000966105710539F432602E5F01
:102CA0003D9330E32A95E1F708959F3F30F0803857
:102CB0007105610509F03C5F3C5F3D93913008F080
:102CC0008068911DDF93CF931F930F93FF92EF9234
:102CD000192F987F9695E92F96959695E90FFF27DE
:102CE000E556FD4F99273327EE24FF24A701E7017E
:102CF00005900894079428F4360FE71EF81E491F24
:102D0000511D660F771F881F991F0694A1F7059024
:102D1000079428F4E70EF81E491F561FC11D770FB0
:102D2000881F991F661F0694A1F70590079428F441
:102D3000F80E491F561FC71FD11D880F991F661F08
:102D4000771F0694A1F70590079420F4490F561FAA
:102D5000C71FD81F990F661F771F881F0694A9F7F2
:102D600084911095177041F0D695C7955795479562
:102D7000F794E7941A95C1F7E1E4F2E068941590AE
:102D8000159135916591959105907FE27395E118C4
:102D9000F10A430B560BC90BD009C0F7E10CF11E29
:102DA000431F561FC91FD01D7EF4703311F48A953E
:102DB000E6CFE894015030F0080F0AF4002702171C
:102DC00008F4202F2395022F7A3328F079E37D939E
:102DD0002A95E9F710C07D932A9589F60694979570
:102DE0006795379517951794E118F10A430B560B21
:102DF000C90BD00998F023957E9173957A3308F02A
:102E000070E37C932013B8F77E9170617D9330F06E
:102E1000839571E37D9370E32A95E1F71124EF9098
:102E2000FF900F911F91CF91DF91992787FD90958A
:102E30000895FC010590615070400110D8F780950D
:102E400090958E0F9F1F0895FB01DC0101900D925C
:102E50000020E1F70895FC016150704001900110DD
:102E6000D8F7809590958E0F9F1F08950F931F930D
:102E7000CF93DF938C01EB018B8181FF1BC082FF1D
:102E80000DC02E813F818C819D812817390764F404
:102E9000E881F9810193F983E88306C0E885F98523
:102EA000802F0995892B31F48E819F8101969F8314
:102EB0008E8302C00FEF1FEFC801DF91CF911F91EA
:102EC0000F9108950F931F93DF93CF93CDB7DEB784
:102ED0002E970FB6F894DEBF0FBECDBF0D891E89A9
:102EE00086E08C831A8309838FEF9FE79E838D830F
:102EF0009E01275E3F4FCE0101966F89788DA90113
:102F00000E9441112F813885020F131FF801108292
:102F10002E960FB6F894DEBF0FBECDBFCF91DF91D6
:102F20001F910F910895FA01AA27283051F12031FD
:102F300081F1E8946F936E7F6E5F7F4F8F4F9F4F4D
:102F4000AF4FB1E03ED0B4E03CD0670F781F891F8F
:102F50009A1FA11D680F791F8A1F911DA11D6A0F5D
:102F6000711D811D911DA11D20D009F468943F9110
:102F70002AE0269F11243019305D3193DEF6CF010F
:102F80000895462F4770405D4193B3E00FD0C9F7D5
:102F9000F6CF462F4F70405D4A3318F0495D31FD42
:102FA0004052419302D0A9F7EACFB4E0A695979595
:102FB000879577956795BA95C9F70097610571056B
:102FC00008959B01AC010A2E0694579547953795B5
:102FD0002795BA95C9F7620F731F841F951FA01D0F
:062FE0000895F894FFCFF4
:102FE60020202020202020202020202020000056E5
:102FF60043433A2025322E31662056000000000059
:1030060000000000000000000000000000000000BA
:1030160000000000000000000000000000000000AA
:10302600000000000000000000000000000000009A
:10303600000000000000000000000000000000008A
:10304600000000000000000000000000000000007A
:10305600000000000000000000000000000000006A
:10306600496E697469616C697369657274210003DC
:1030760000000000000400005F00000E00070007CB
:10308600001F147F147F141F242A7F2A121F231364
:103096000864621F36495522500600050300000EDB
:1030A600001C2241000E0041221C001F14083E088D
:1030B600141F08083E08080600A06000000F080854
:1030C6000808080600606000000E00601C03001F70
:1030D6003E5149453E0E00427F40001F4261514924
:1030E600461D2141454B311F1814127F101D2745DF
:1030F600454539173C4A4949301E01710905031DEA
:1031060036494949361D064949291E060036360004
:10311600000600AC6C00000F08142241000F1414C6
:103126001414141E00412214081F02015109061F1F
:10313600324979413E1F7C1211127C177F49494959
:1031460036173E414141221F7F4141221C177F49CC
:10315600494941177F09090901173E4149497A172B
:103166007F0808087F0E00417F41001F2040413F35
:10317600011F7F08142241177F404040401F7F02F5
:103186000C027F1F7F0408107F173E4141413E1706
:103196007F09090906173E414141BE1D7F091929CC
:1031A600461746494949311F01017F0101173F4032
:1031B60040403F1F1F2040201F1F3F4038403F1FF9
:1031C60063140814631F07087008071F61514945F7
:1031D600430E007F4141000E00031C60000E0041BB
:1031E600417F000E04020102041F40404040400C93
:1031F6000000030400172054545478177F484444B1
:10320600381738444444201D384444487F173854FE
:1032160054541817087E0901021718A4A4A4781795
:103226007F080404780E00447D40000D4080847DB4
:10323600000F7F102844000E00417F40001F7C04D1
:10324600780478177C0804047817384444443817FF
:10325600FC242424181718242424FC177C080404AE
:103266000817485454542017043F4440201D3C403E
:1032760040207C1F1C2040201C1F3C4030403C1F2F
:103286004428102844171CA0A0A07C1F4464544C5A
:10329600440E00083641000400007F00000E004185
:1032A6003608001F02010204021FAA55AA55AA00E9
:00000001FF
