:100000000C949E010C94BD010C94BD010C94BD0197
:100010000C94BD010C94BD010C94BD010C94BD0168
:100020000C94BD010C94BD010C9459050C94BD01B8
:100030000C94BD010C94BD010C9430120C94BD01C4
:100040000C94BD010C942B090C94FE020C94CF026D
:100050000C94BD010C94BD010C94BD010C94BD0128
:100060000C94BD010C94BD010C94BD010C94BD0118
:100070000C94BD010C94BD010C94BD010C94BD0108
:100080000C94BD010C9479180C94BD010000000083
:100090000000000000000000000000000000000060
:1000A0000000000000000000008056010002000077
:1000B000FEFFFF030300C0FFFFFFBF0100E00F00D2
:1000C000C4FF0100E0030000F00300E07F0000E057
:1000D0000300C0FCFFFFFF0300C081FFFFBF010062
:1000E00080030000DF010000030080FB0000000728
:1000F00000C07F0000000E00C03F0000000C00E0C8
:100100003F0000001C00F80F0000003800DC0E006B
:1001100000007000FC07000000E000FE030000008B
:10012000C080FF01000000C0C1FF0000000080E3AC
:100130003C0000000000E73F0000000000E60F0068
:1001400000000000EE070000000000DC07000000D7
:100150000000B8030000000000F8010000000000EB
:10016000F0010000000000F0000000000000F000BE
:100170000000000000F0000000000000F00000009F
:10018000000000F0000000000000F000000000008F
:100190000070000000000000E0000000000000F01F
:1001A000000000000000F0000000000000700000EF
:1001B00000000000E00000000000007000000000EF
:1001C000000070000000000000700000000000004F
:1001D00060000000000000700000000000007000DF
:1001E000000000000060000000000000700000003F
:1001F000000080FF0700000000F0FF3F000000004B
:1002000070F87C0000000038FCE100000000F00104
:10021000F800000000E0FF7F0000000000FF0F007A
:1002200000000000000000000000000000000000CE
:1002300031363300322E3131006E616E00696E66E8
:100240000000407A10F35A00A0724E18090010A561
:10025000D4E80000E87648170000E40B54020000E0
:10026000CA9A3B000000E1F5050000809698000066
:100270000040420F000000A086010000001027008F
:10028000000000E803000000006400000000000A15
:1002900000000000000100000000002C76D888DC7F
:1002A000674F0823DFC1DFAE59E1B1B796E5E3E45C
:1002B00053C63AE651997696E8E6C28426EB898CD5
:1002C0009B62ED407C6FFCEFBC9C9F40F2BAA56F37
:1002D000A5F490055A2AF75C936B6CF9676DC11B06
:1002E000FCE0E40D47FEF520E6B500D0ED902E03CE
:1002F00000943577050080841E080000204E0A0017
:100300000000C80C333333330F986E12831141EF62
:100310008D2114893BE65516CFFEE6DB18D1844BC0
:10032000381BF77C1D901DA4BBE424203284725E30
:10033000228100C9F124ECA1E53D270011241FBE54
:10034000CFEFD0E1DEBFCDBF14E0A0E0B1E0E8E543
:10035000F9E300E00BBF02C007900D92AE37B10782
:10036000D9F717E0AEE7B4E001C01D92A03EB10797
:10037000E1F70E94C0040C94AA1C0C940000809128
:100380007F04882311F010927F0408959091410614
:1003900080914206981711F480E008950E9494021B
:1003A00008959091410680914206981721F10E948C
:1003B000C601982F883621F481E080937E0404C022
:1003C00080917E048823C1F080918004E82FF0E0C2
:1003D000E45CFA4F90838F5F80938004843061F4F3
:1003E0001092800410927E04963131F480913D0584
:1003F00080937F040895FFCF0895982F809143063E
:10040000883C41F0892F0E94AD0282E090E00E947A
:10041000FC080895FFCFEF92FF920F931F93CF93A5
:10042000DF93182F062F7A0188E60E94FD01812FA5
:100430000E94FD01802F0E94FD01C0E0D0E010E08D
:1004400007C0F701EC0FFD1F80810E94FD0121967E
:10045000C017D107B4F386E10E94FD01DF91CF916F
:100460001F910F91FF90EF900895DF93CF930F921C
:10047000CDB7DEB7898385E061E0AE014F5F5F4FA6
:100480000E940B020F90CF91DF91089560E040E051
:1004900050E00E940B020895982FAB0184E0692F71
:1004A0000E940B020895DF93CF9300D000D00F92EB
:1004B000CDB7DEB7DC01FE0131969E012A5F3F4FCA
:1004C00011968C91119781931296E217F307C1F759
:1004D00083E065E0AE014F5F5F4F0E940B020F901B
:1004E0000F900F900F900F90CF91DF91089580E8BB
:1004F00095E20E947E020E94CA0208959C0140E09B
:1005000050E084E0220F331F441F551F8A95D1F716
:1005100060E074E284EF90E00E94A91A215030401C
:100520003093900029B90895F89490914106E92FED
:10053000F0E0E95BFA4FE08180914206823311F4EA
:1005400090934206892F8F5F80934106823310F08B
:100550001092410678948E2F0895282FF894809158
:100560004306E82FF0E0E758FA4F20838F5F80932F
:100570004306883C10F01092430690914306809108
:100580004605981719F488EC80934306559A789499
:10059000822F089588EB8AB908951AB808951F929A
:1005A0000F920FB60F920BB60F9211248F939F9359
:1005B000EF93FF938091460590914306891791F040
:1005C000E82FF0E0E758FA4FE081983C11F480936F
:1005D00043068F5F80934605883C10F010924605D5
:1005E000ECB901C05598FF91EF919F918F910F90B9
:1005F0000BBE0F900FBE0F901F9018951F920F9279
:100600000FB60F920BB60F9211242F933F934F9377
:100610005F936F937F938F939F93AF93BF93EF936A
:10062000FF939CB1809142068233A9F0E82FF0E05D
:10063000E95BFA4F90838F5F80934206823310F01C
:10064000109242069091420680914106981719F443
:1006500082E3809342060E94D101FF91EF91BF9106
:10066000AF919F918F917F916F915F914F913F914A
:100670002F910F900BBE0F900FBE0F901F901895EB
:100680000F931F938B019C01442737FD4095542FF6
:1006900060E573EC80E090E00E94CB1A84E690E085
:1006A000089FB001099F700D189F700D1124A5E3DC
:1006B00023C0C498FB0106C031978A2F8A95F1F7B1
:1006C000309741F0A901C901861B970B8E0F9F1F20
:1006D000892B91F7C49ABF014E1B5F0B05C0615077
:1006E00070408A2F8A95F1F76115710529F0CA01CA
:1006F000860F971F892B99F761157105D1F681E057
:1007000090E01F910F9108950E946A188AE590E089
:100710000E94731A08950F931F93082F10E0812FE2
:1007200090E00E94731A112319F484E893E002C048
:1007300084E690E00E94FC080E949E0F0E94251A09
:10074000282F812F602F0E948A1AE82FF0E0EF57A0
:10075000FB4F2083100F143B10F38AE590E00E94BA
:10076000731A81E894E01F910F9108950E949E0FE3
:100770008091B2069091B3068050974410F082E0C9
:1007800001C081E067E00E9483118091B4069091DE
:10079000B5068050974410F082E001C081E066E029
:1007A0000E9483118091B6069091B70680509744BD
:1007B00030F082E065E00E94831182E005C081E0B4
:1007C00065E00E94831181E064E00E9483118091C2
:1007D000B8069091B9068050974410F082E001C0AD
:1007E00081E063E00E9483118091BA069091BB067C
:1007F0008050974410F082E001C081E062E00E94E6
:10080000831108951F9384E10E94A1060E94F705B9
:10081000823009F444C0833009F44BC0843009F0BD
:100820004AC00E94BF01182F0E949507123049F458
:100830001092370580E091E00E9426070E943A104E
:100840003AC084990DC01092370580E091E00E9473
:1008500026070E943A1084EF91E00E94FC082BC00A
:10086000143059F482E00E948B03BC01909345063A
:10087000809344068BE50E944C0286EF9FEF66EF63
:100880007FEF4AE050E00E9486108CED95E00E94D8
:10089000FC080E94D305882329F00E943A100E9488
:1008A000610609C00E94E505882309F4BACF0E94B9
:1008B0003A100E9481061F9108950E946F1178944A
:1008C0000E9486070E9495078BE091E00E94260710
:1008D00084E191E00E94260788EE93E00E94FC08E4
:1008E0000E9423098CE191E00E94260784EF91E0A9
:1008F0000E94FC080E9477028AE291E00E9426078B
:1009000084EF91E00E94FC080E94D41188E391E0FA
:100910000E94260784EF91E00E94FC080E94EC10E0
:1009200086E491E00E94260784EF91E00E94FC0893
:100930000E94840384E591E00E94260784EF91E001
:100940000E94FC080E947B1182E691E00E9426072B
:1009500084EF91E00E94FC0885E085BD87B7806444
:1009600087BF80E791E00E9426078EE791E00E9412
:10097000260788EE93E00E94FC080E945D07089518
:10098000FF920F931F930E945D04FF24F3940E9433
:10099000BF01182F0E949507113039F410933705C5
:1009A00086E891E00E94260739C0849937C0F0920A
:1009B000370586E891E00E94260784EF91E00E94C7
:1009C000FC082CC00E94BF01182F0E94950712300E
:1009D00039F41092370580E091E00E9426073EC06E
:1009E00084990DC01092370580E091E00E9426079F
:1009F0000E943A1084EF91E00E94FC0813C014306A
:100A000059F482E00E948B03BC01909345068093C9
:100A100044068BE50E944C020E9402048091370537
:100A2000813081F2143061F482E00E948B03BC01BA
:100A300090934506809344068BE50E944C02A7CF15
:100A40001630E9F40E94BF01182F873039F084E195
:100A50000E94A106082F143079F403C00E943A10B6
:100A600096CF82E00E948B03BC0190934506809351
:100A700044068BE50E944C02013021F388CF1C30E4
:100A800019F40E94910683CF1B3019F40E9481064D
:100A90007ECF1D3019F40E94610679CF1E3019F403
:100AA0000E94710674CF1A3009F071CF0E9451066E
:100AB0006ECF1F920F920FB60F920BB60F921124AA
:100AC0002F933F934F935F936F937F938F939F9356
:100AD000AF93BF93EF93FF930E94B60380913505C8
:100AE00090913605019690933605809335050197D0
:100AF0008837910544F110923605109235050E9411
:100B000067116091F0067091F10680E090E00E941C
:100B1000531329EB3CEF47E85CE30E9405142CEEED
:100B200031E548E95FE30E94EA1220E030E048E066
:100B300051E40E944F13181634F088EB9BE064E6F2
:100B400070E00E944003FF91EF91BF91AF919F91A0
:100B50008F917F916F915F914F913F912F910F9066
:100B60000BBE0F900FBE0F901F9018958091B4068A
:100B70009091B5068050964498F48091B606909175
:100B8000B7068050964460F420E08091B8069091BA
:100B9000B9068050964408F021E081E0282701C082
:100BA00020E0822F08958091B2069091B306805084
:100BB000964448F48091B4069091B50680509644CE
:100BC00010F482E0089580E008958091BA06909133
:100BD000BB068050964448F48091B8069091B906BF
:100BE0008050964410F483E0089580E008950E94B8
:100BF0009E0F2091B4063091B50646E420303407AC
:100C000000F58091B6069091B70680509644C8F4DE
:100C10008091B8069091B9068050964490F481E096
:100C2000089520503644A0F482E008958091B806DB
:100C30009091B9068050964410F483E0089584E0C2
:100C400008958091B2069091B3068050964448F37F
:100C50008091BA069091BB068050964480F7E6CF0B
:100C60000E94FC0880E090E060E070E00E94B2101A
:100C70000E949E0F82EB96E00E94530208950E940C
:100C80009E0F8091AE069091AF061816190614F4C7
:100C90000E94350280E090E060E070E00E94B210B7
:100CA000089585E390E06BEC7FEF4AE050E00E940E
:100CB00086108AE00E94460280EA9FE00E94300689
:100CC00008958DE090E063EF7FEF4AE050E00E94EE
:100CD00086108DE00E94460280ED97E00E9430066B
:100CE00008958BE190E065EE7FEF4AE050E00E94CE
:100CF00086108EE00E94460280ED97E00E9430064A
:100D0000089583EF9FEF6DE070E04AE050E00E94AD
:100D100086108BE00E94460280ED97E00E9430062C
:100D2000089585EE9FEF6BE170E04AE050E00E948D
:100D300086108CE00E94460280ED97E00E9430060B
:100D400008951F93182F0E949E0F80E090E060E0AE
:100D500070E00E94B2108091B4069091B506805068
:100D6000964410F58091B6069091B706805096444F
:100D7000D8F48091B8069091B90680509644A0F4BA
:100D8000812F90E0612F70E00E94561011E084E600
:100D900090E00E94FC080E943F0680E090E00E94E4
:100DA0003006812F1F9108950E943A1010E0EFCF76
:100DB000AF92BF92DF92EF92FF920F931F93CF9368
:100DC000DF93C0E0D0E0DD2484E1A82EB12C2BC05D
:100DD0007E010894E11CF11C81E36D2D0E94FC0A48
:100DE00083E991E00E947E0F80913805909139054A
:100DF0008C0F9D1F65E070E00E94961A8C0181E3C4
:100E00006D2D0E94FC0A0A9DC0010B9D900D1A9D3C
:100E1000900D112486529E4F0E947E0F8AE090E032
:100E20000E94FC08E7018AE0D80E80913A05909173
:100E30003B05C817D90764F2DF91CF911F910F913D
:100E4000FF90EF90DF90BF90AF900895FC018091EC
:100E50003A0590913B052091380530913905820F74
:100E6000931F65E070E00E94961A24E130E0AC0127
:100E7000429FC001439F900D529F900D11248652B6
:100E80009E4FBF010E94DD1B80913A0590913B056A
:100E90008530910534F4019690933B0580933A0593
:100EA00009C08091380590913905019690933905D4
:100EB000809338050E94D80608951F93CF93DF933F
:100EC000F8941AE081E3612F0E94FC0A8AEA91E01B
:100ED0000E947E0F165F1C33A9F7CAEDD1E0CE0148
:100EE00068EB71E00E94DD1B649682E0CE33D80788
:100EF000B1F7109239051092380510923B05109207
:100F00003A057894DF91CF911F9108950E949E0831
:100F10000E94BD0A80E060E00E94FC0A81E36CE36D
:100F20004CE850E00E94FE0B0895EF92FF920F9361
:100F30001F93DF93CF93CDB7DEB764970FB6F894C6
:100F4000DEBF0FBECDBF19821A821B821C82FE013A
:100F5000359680E1DF011D928A95E9F70E946711BD
:100F6000EDB7FEB738970FB6F894FEBF0FBEEDBFD2
:100F70000DB71EB70F5F1F4F7E010894E11CF11CD7
:100F8000F282E1828DEC91E0D80113969C938E93CE
:100F900012976091F0067091F10680E090E00E9457
:100FA000531329EB3CEF47E85CE30E9405142CEE59
:100FB00031E548E95FE30E94EA12F8016483758332
:100FC000868397830E941B1C8DB79EB708960FB629
:100FD000F8949EBF0FBE8DBF81E360E00E94FC0AC3
:100FE000C7010E947E0F64960FB6F894DEBF0FBE55
:100FF000CDBFCF91DF911F910F91FF90EF9008959A
:1010000090916500282F30E080E0A9014170507078
:1010100020FF81E09E7F982B909365008091650072
:101020004115510511F490E001C092E08D7F892BAC
:10103000809365008091650021FD02C090E001C0B1
:1010400098E0877F892B80936500809165008F7E73
:10105000809365008FEF8ABB6BBB85E0982F9A95D4
:10106000F1F790916500946090936500982F9A95A0
:10107000F1F7909165009B7F909365008A95F1F759
:101080001BBA1ABA089590916500282F30E080E0CD
:10109000A9014170507020FF81E09E7F982B9093B2
:1010A0006500809165004115510511F490E001C083
:1010B00092E08D7F892B809365008091650021FDF2
:1010C00002C090E001C098E0877F892B8093650083
:1010D000809165008061809365001ABA25E0822FB7
:1010E0008A95F1F78091650084608093650085E1C1
:1010F0008A95F1F789B3909165009B7F9093650085
:10110000922F9A95F1F708951F93CF93DF939091C3
:101110004606992371F0182F1170CFEFDFEF812F62
:101120000E944308219787FD02C081E003C02097F9
:10113000B1F780E0DF91CF911F9108958FEF8093F9
:10114000460680916400886080936400809164000A
:101150008061809364008091640084608093640067
:10116000809164008160809364008091640082605B
:1011700080936400B89A1ABA80916500877F809343
:101180006500809165008F7E809365008091650089
:101190008B7F80936500809165008E7F80936500D2
:1011A000809165008D7F80936500C098979B07C0F4
:1011B000979880EA9FE00197F1F7979A04C080EA38
:1011C0009FE00197F1F7C09A80E00E94840888238D
:1011D00051F081E00E948408882311F082E001C070
:1011E00081E080934606809146068F3F11F410926D
:1011F000460680914606089520EA3FE004C0F901C2
:101200003197F1F701970097D1F70895109283066F
:1012100080936406982F9F5F9093660696E990935B
:101220008406F89403C078940000F894B09BFBCF38
:1012300090EC9DB98FB996E9982790938206779A9A
:10124000789480E00895B898C098BB9AC39A80E0DB
:101250000E94060908951F920F920FB60F920BB6C7
:101260000F9211242F933F934F935F936F937F932C
:101270008F939F93AF93BF93EF93FF939FB1209171
:101280008406292720938406809183068823B1F45D
:10129000909362069C3130F01092640610926206C0
:1012A00091E009C0492F50E02091660630E04217D6
:1012B0005307FCF09F5F909366061BC0482F50E0D9
:1012C0006091620670E0641775072CF04A59594F17
:1012D000FA0190830EC0415050404617570749F419
:1012E000222339F0909163069F5F909363061092DA
:1012F000620690916406891750F4E82FF0E0E95BEC
:10130000F94F20812FB990918206922711C0891739
:1013100031F4909182069FB9109282060BC0909191
:101320006606891758F49FEF9FB9909182069095B1
:10133000909382068F5F8093830611C0B898C098FF
:101340001DB8B898C098809165068F5F8093650638
:101350007894809162060E9411110E940609FF9103
:10136000EF91BF91AF919F918F917F916F915F911D
:101370004F913F912F910F900BBE0F900FBE0F908A
:101380001F90189580918806089580919106089580
:10139000809385060895982F9052903608F080E843
:1013A000805290E0FC01EE0FFF1FE80FF91FEE0FD7
:1013B000FF1FE25CFD4F908180918706882309F42E
:1013C0009FE180E020E090FD8F5F2F5F253011F0DE
:1013D0009695F9CF08951F93CF93DF93EC0110E01A
:1013E00005C021960E94CB098F5F180F8881882342
:1013F000C1F7812FDF91CF911F9108951F93CF9354
:10140000DF93EC0110E007C02196F90184910E945E
:10141000CB098F5F180F9E01FE0194919923A1F7CC
:10142000812FDF91CF911F910895809387060895B2
:10143000809187060895863130F4683020F46093F7
:1014400086068093920608950F931F93DF93CF93A0
:101450000F92CDB7DEB7182F6854883018F580E0AA
:1014600069830E94840880E069810E94000880E00E
:101470000E948408612F660F660F660F605C80E033
:101480000E94000809E816E082E00E94840882E0D9
:10149000F80161918F010E940008F6E001391F07F1
:1014A00099F723C0185081E069830E94840881E085
:1014B00069810E94000881E00E948408612F660F04
:1014C000660F660F605C81E00E94000809E816E084
:1014D00083E00E94840883E0F80161918F010E94FB
:1014E0000008F6E001391F0799F70F90CF91DF91BF
:1014F0001F910F910895FF920F931F93F82E18EBF1
:1015000080E00E94840881E00E94840880E0612FCE
:101510000E94000881E0612F0E94000800E082E044
:101520000E94840883E00E94840882E06F2D0E945C
:10153000000883E06F2D0E9400080F5F003479F7E8
:101540001F5F103CE9F680E00E94840881E00E9461
:10155000840880E068EB0E94000881E068EB0E944C
:1015600000081F910F91FF90089580E00E947B0A70
:101570001092860610929206089580E00E948408D8
:1015800080E06FE30E94000880E00E94840880E011
:1015900060EC0E94000880E00E94840880E060E423
:1015A0000E94000880E00E94840880E068EB0E94AE
:1015B000000881E00E94840881E06FE30E94000837
:1015C00081E00E94840881E060EC0E94000881E0D4
:1015D0000E94840881E060E40E94000881E00E948B
:1015E000840881E068EB0E94000880E00E947B0A8A
:1015F00081E08093850608950F931F93182F062F7F
:10160000809388066093910680E00E94840881E0C0
:101610000E948408069506950695085480E0602F80
:101620000E94000881E0602F0E94000880E00E9474
:10163000840881E00E948408113438F080E060E47E
:101640000E94000881E0612F07C0612F605C80E08C
:101650000E94000881E060E40E9400081F910F9141
:101660000895EF92FF920F931F93CF93DF9319EB9F
:1016700047C00830E8F480E00E94840880E0612FD1
:101680000E94000880E00E9484086F2D605C80E06A
:101690000E94000882E00E944308C9E8D6E082E088
:1016A0000E944308899386E0C139D807C1F71BC05F
:1016B00081E00E94840881E0612F0E94000881E09F
:1016C0000E94840881E06F2D0E94000883E00E9440
:1016D0004308C9E8D6E083E00E944308899386E086
:1016E000C139D807C1F7802F6E2D0E94240A0F5FE1
:1016F00088E0F80E003109F0BCCF1F5F103C31F0DC
:10170000FF2400E037E4E32EE10EB3CFE9E8F6E092
:10171000119286E0E139F807D9F710E0812F67E0F0
:101720000E94240A1F5F1031C9F780918606882322
:1017300019F0815080938606DF91CF911F910F9110
:10174000FF90EF900895EF92FF920F931F93E82E72
:10175000162F8091880687FD39C000E0803408F09C
:1017600001E0802F0E94840842E0F42EF00E8F2DBD
:101770000E9443088F2D0E9443089091850692FF96
:1017800002C0E0949B7FE122992319F41E2D182BAF
:1017900008C0913021F4109518231E2902C01E2D77
:1017A0001827802F0E948408609188066064802F2B
:1017B0000E940008802F0E9484088F2D612F0E94B4
:1017C0000008809188068F5F809388061F910F9193
:1017D000FF90EF90089590919106977061E070E00E
:1017E00002C0660F771F9A95E2F7882311F0862FC3
:1017F00002C0862F60E00E94A30B08952F923F92B3
:101800004F925F926F927F928F929F92AF92BF9210
:10181000CF92DF92EF92FF920F931F93DF93CF93BC
:1018200000D000D000D0CDB7DEB7082F162F5A83D6
:10183000498360908806E09091068E2D87702FEF87
:1018400030E0F22E01C0FF0C8A95EAF7802F90E07D
:10185000019768E070E00E94961A6F5FA62EBB2485
:10186000C50173E0880F991F7A95E1F74424552448
:10187000481A590ACC2468E0762E5FEF852E912C09
:10188000BC82AB8271C08E2D8770D72CD81A1D15E3
:1018900048F48D2D811B940102C0359527958A95BA
:1018A000E2F7F2228D2D8C0D90E08A9D10018B9D28
:1018B000300C9A9D300C112480E090E09E838D8343
:1018C00043C04D815E81477050704115510571F5DF
:1018D000E695E695E695C1018E0F911DFC01A98163
:1018E000BA81EA0FFB1FE40DF51D20E030E06D81A9
:1018F0007E819491A9E8B6E08C9186958C9390FFB7
:1019000002C080688C93119686E0A139B80711F067
:101910009695F2CF2F5F3F4F2830310529F0AB81EC
:10192000BC81EA0FFB1FE5CF7E836D834757594F7C
:10193000FA0180818F216F2D0E94A30B2D813E81A2
:101940002F5F3F4F3E832D83ED81E01708F4B9CF21
:101950001D1508F4D12E1D19ED0CCD0C862D6E2D04
:101960000E94FC0AFF24FA94112309F08CCF2696DA
:101970000FB6F894DEBF0FBECDBFCF91DF911F91A0
:101980000F91FF90EF90DF90CF90BF90AF909F901E
:101990008F907F906F905F904F903F902F90089521
:1019A0002F923F924F925F926F927F928F929F926F
:1019B000AF92BF92CF92DF92EF92FF920F931F935D
:1019C000DF93CF9300D000D000D0CDB7DEB7082F83
:1019D000162F5A83498360908806E09091068E2DD9
:1019E00087702FEF30E0F22E01C0FF0C8A95EAF7E6
:1019F000802F90E0019768E070E00E94961A6F5F78
:101A0000A62EBB24C501A3E0880F991FAA95E1F774
:101A100044245524481A590ACC24F8E07F2EEFEFCD
:101A20008E2E912CBC82AB8271C08E2D8770D72CEC
:101A3000D81A1D1548F48D2D811B940102C03595CF
:101A400027958A95E2F7F2228D2D8C0D90E08A9DE4
:101A500010018B9D300C9A9D300C112480E090E099
:101A60009E838D8343C04D815E81477050704115C8
:101A7000510571F5E695E695E695C1018E0F911D2C
:101A8000FC01A981BA81EA0FFB1FE40DF51D20E0DE
:101A900030E06D817E819081A9E8B6E08C918695D9
:101AA0008C9390FF02C080688C93119686E0A139D8
:101AB000B80711F09695F2CF2F5F3F4F28303105D0
:101AC00029F0AB81BC81EA0FFB1FE5CF7E836D83DC
:101AD0004757594FFA0180818F216F2D0E94A30B28
:101AE0002D813E812F5F3F4F3E832D83ED81E01797
:101AF00008F4B9CF1D1508F4D12E1D19ED0CCD0C2D
:101B0000862D6E2D0E94FC0AFF24FA94112309F001
:101B10008CCF26960FB6F894DEBF0FBECDBFCF9107
:101B2000DF911F910F91FF90EF90DF90CF90BF90CA
:101B3000AF909F908F907F906F905F904F903F906D
:101B40002F900895AF92BF92CF92DF92EF92FF92C3
:101B50000F931F93CF93DF93A82E162FB090880674
:101B6000F09091068F2D87702FEF30E0022F01C08B
:101B7000000F8A95EAF7B8E0CB2ECFEFD0E022C075
:101B80008F2D8770EC2CE81A1E1548F48E2D811BC2
:101B90009E0102C0359527958A95E2F70223DA2C3B
:101BA00005C0802F602F0E94A30BDA94DD20C9F7B7
:101BB0001E1508F4E12E1E19FE0C8B2D6F2D0E94B0
:101BC000FC0A0FEF1123E1F6DF91CF911F910F91E6
:101BD000FF90EF90DF90CF90BF90AF900895682F67
:101BE00081E00E94A20D08950F931F93182F8091FA
:101BF0009106877021E030E0022F01C0000F8A9526
:101C0000EAF705C0802F602F0E94A30B115011230B
:101C1000C9F71F910F9108959F92AF92BF92CF92F3
:101C2000DF92EF92FF920F931F93082F162FF090E1
:101C30008806E09091068F1561F4E61618F4862F59
:101C40008E1904C00E94FC0A8E2D811B0E94EF0D8C
:101C50005EC0DE2C6E1559F4F81610F48F1904C00E
:101C60000E94FC0A8F2D801B0E94F40D50C08F151E
:101C700028F4AF2CA81A99249A9409C0F81618F0E1
:101C80009924AA2404C0A82EAF18992493941E1551
:101C900028F4BE2CB11ACC24CA9409C0E11618F05D
:101CA000CC24BB2404C0B12EBE18CC24C39481E044
:101CB0000E94EB0BBA14B0F4EA2CE694E194F90C10
:101CC000EB0C1E1414F4EA18DC0C8F2D6D2D0E9401
:101CD000FC0A81E00E94EB0BF90C8F2D891980170B
:101CE00079F715C0DB2CD694D194EC0CDA0C1D14CA
:101CF00014F4DB18F90C8F2D6E2D0E94FC0A81E084
:101D00000E94EB0BEC0C8E2D8C19811779F7802F2C
:101D1000612F0E94FC0A1F910F91FF90EF90DF90BE
:101D2000CF90BF90AF909F9008958F929F92AF9267
:101D3000BF92CF92DF92EF92FF920F931F93CF93B8
:101D4000DF93062F982F9052903608F080E880524B
:101D500096E0899FE0011124C25CDD4F18818091DB
:101D60008706882309F41FE1E02EFF24E7FCF094A6
:101D70008FEF90E06C010E2C02C0CC0CDD1C0A949D
:101D8000E2F7AA24BB24AE18BF080A2C02C095951E
:101D900087950A94E2F7D82E85E0882E912C8C0E38
:101DA0009D1E10FF16C0898107FD09C090E00E2C12
:101DB00002C0880F991F0A94E2F76C2D08C090E0CA
:101DC0000A2C02C0959587950A94E2F76D2D0E9422
:101DD000A30B2196C815D90511F01695E2CF07FD82
:101DE00003C080E06C2D02C080E06D2D0E94A30B2B
:101DF000DF91CF911F910F91FF90EF90DF90CF90E7
:101E0000BF90AF909F908F900895FF920F931F9374
:101E1000082FF0908806109191061770612F0E948C
:101E2000950E112391F060919106685F8F2D0E94AD
:101E3000FC0A612F6850802F0E94950E60919106D8
:101E40006850809188060E94FC0A1F910F91FF90B4
:101E500008951F93CF93DF93EC011092870636C04D
:101E60001A3069F410929206809186068F5F8093F3
:101E70008606883059F581E00E94310B27C01D305D
:101E800029F180919206853160F01092920680913E
:101E900086068F5F80938606883019F481E00E9461
:101EA000310B90919206892F880F890F60918606D9
:101EB000660F660F660F880F0E94FC0A812F0E9432
:101EC000050F809192068F5F8093920619911123DE
:101ED00039F6DF91CF911F910895CF93DF93EC01F5
:101EE00005C02196F90184910E94050F9E01FE0113
:101EF00094919923B1F7DF91CF910895CF93DF9318
:101F0000EC0103C021960E94050F88818823D1F738
:101F1000DF91CF91089590E0282F30E0F90183E020
:101F2000EE0FFF1F8A95E1F7E21BF30BE756F94F1F
:101F300080818F3F09F091E0892F0895F894909166
:101F4000D10680E0E1EDF6E02291820F911D9093A1
:101F5000B3068093B206938180E02281820F911DA7
:101F60009093B5068093B406958180E02481820F1A
:101F7000911D9093B7068093B606978180E02681E5
:101F8000820F911D9093B9068093B806918580E0E9
:101F90002085820F911D9093BB068093BA0678949A
:101FA000F8942091DA068091950690919606820F1A
:101FB000911D3091DB0620E0820F931F9093AF06B6
:101FC0008093AE062091DC06809193069091940652
:101FD000820F911D3091DD0620E0820F931F9093B8
:101FE000C7068093C6069091DF0680E02091DE064A
:101FF000820F911D9093EF068093EE069091E1067B
:1020000080E02091E006820F911D9093C506809399
:10201000C4069091E30680E02091E206820F911DB4
:1020200090939806809397069091E50680E0209122
:10203000E406820F911D9093CF068093CE0678948C
:10204000F8949091E80680E02091E706820F911DB8
:102050009093B1068093B0069091EA0680E02091BB
:10206000E906820F911D9093EC068093EB0678941D
:1020700081E00895F89481E080939906789408951A
:10208000F8948AE080939906789481E00895F89412
:1020900025E02093990680939A0690939B0660937F
:1020A0009C0670939D06789481E00895F89422E050
:1020B0002093990680939A0690939B0660939C06C2
:1020C00070939D06789481E0089520919506309153
:1020D0009606FC01E21BF30B9F0180919306909101
:1020E0009406681B790BF89483E080939906E0933B
:1020F0009A0630939B0660939C0670939D064093CE
:102100009E0650939F06789481E00895F89424E009
:102110002093990680939A0690939B0660939C0661
:1021200070939D0640939E0650939F06789481E09D
:10213000089578949091A70620E137E2215030402D
:1021400011F09F3FD9F7F89496E09093A7068093FB
:10215000A8066093A9064093AA06789481E00895A2
:1021600081E00895F8943091DD0620E04091DC068E
:10217000F901E40FF11DAF013091DB0620E0E091A1
:10218000DA062E0F311DFC01E21BF30BF0939606CD
:10219000E09395069B01241B350B30939406209306
:1021A00093069093AF068093AE067093C706609334
:1021B000C606789481E0089578942091A00680E185
:1021C00097E2019711F02F3FE1F7F89488E08093B0
:1021D000A006789481E0089578942091A00680E18B
:1021E00097E2019711F02F3FE1F7F89487E0809391
:1021F000A006789481E0089578944091A00620E1AB
:1022000037E22150304011F04F3FD9F7F89429E0E0
:102210002093A0068093A1069093A206789481E073
:1022200008959091ED069F5F9093ED068B3141F4F8
:10223000A0EDB6E0E7E6F6E001900D928150E1F7FF
:102240008FEF8093550680934E06809347068091CA
:1022500099068F3F11F480E00DC0A7E4B6E0E9E9EC
:10226000F6E087E001900D928150E1F78FEF8093C7
:10227000990687E09091A0069F3F79F0E82FF0E063
:10228000E95BF94FA0EAB6E097E00D90019291501A
:10229000E1F79FEF9093A006895F9091A7069F3F7B
:1022A00081F0E82FF0E0E95BF94FA7EAB6E087E0BC
:1022B0000D9001928150E1F78FEF8093A70685E1A1
:1022C0000895882311F487E0089585E1089587E053
:1022D0000E94C7129093F1068093F00608958F9A9A
:1022E00097988AE090E00E94FC08979A84E690E034
:1022F0000E94FC080895BF9AC79ABD9ABE9A8FEFB4
:1023000082B984BB0895482F80FF0BC095B321E0AC
:1023100030E0062E02C0220F331F0A94E2F7922B00
:102320000CC085B321E030E0062E02C0220F331F1F
:102330000A94E2F7922F9095982395BB41FF0AC02B
:1023400083B121E030E002C0220F331F6A95E2F72B
:10235000822B0AC023B181E090E002C0880F991F50
:102360006A95E2F78095822383B908959093F906E0
:102370008093F80608958091F8069091F9060895E3
:102380009093F3068093F20608958091F20690915F
:10239000F30608959093F5068093F40608958091CE
:1023A000F4069091F5060895BC9A089545E322C07D
:1023B000C498282F392F0AC061507040542F5A9565
:1023C000F1F76115710529F02150304021153105D3
:1023D00099F7C49A282F392F07C0615070402150B7
:1023E0003040542F5A95F1F76115710519F02115F8
:1023F000310599F761157105D9F608951092FB061C
:102400001092FA061092F7061092F6061092FC0649
:102410001092FD061092FE061092FF061092F3062F
:102420001092F2061092F5061092F4068FEF93E0E8
:102430009093F9068093F806C598C698BD9ABE9AFF
:10244000BF9AC79A1DBC1CBC8AEA8FBD82E18EBDB3
:1024500080E094E097BD86BD87B7846087BF08950C
:102460001F920F920FB60F9211242F933F934F9309
:102470008F939F93AF93BF938091FA069091FB0641
:102480009C01285E3F4F3093FB062093FA0643E001
:10249000283E340778F0805D93409093FB0680934C
:1024A000FA068091F6069091F70601969093F7064A
:1024B0008093F6068091F6069091F7069C012F5FB7
:1024C0003F4F3093F7062093F60643E0283E34074B
:1024D000C8F0875E93409093F7068093F60680914C
:1024E000FC069091FD06A091FE06B091FF060196B4
:1024F000A11DB11D8093FC069093FD06A093FE06DE
:10250000B093FF068091F2069091F30623E08F3F8F
:10251000920710F080E094E09BBD8ABD8091F406A4
:102520009091F50643E08F3F940710F080E094E02F
:1025300099BD88BD8091F8069091F90623E08F3F00
:10254000920710F080E094E09093790080937800F7
:10255000BF91AF919F918F914F913F912F910F908C
:102560000FBE0F901F901895E1E6F0E0908121E0FA
:1025700030E002C0220F331F8A95E2F720959223A4
:102580009083E2E6F0E0808182238083089590E4E6
:1025900097B997B18770892B87B987EC86B901C045
:1025A00000003699FDCF84B195B1392F20E0280F76
:1025B000311D8091000790910107820F931F909326
:1025C000010780930007C901089580910007909149
:1025D000010708955058BB27AA270ED0DCC0CDD0E4
:1025E00030F0D2D020F031F49F3F11F41EF4C2C07D
:1025F0000EF4E095E7FBB8C0E92FDED080F3BA1700
:10260000620773078407950718F071F49EF5F6C00A
:102610000EF4E0950B2EBA2FA02D0B01B9019001FD
:102620000C01CA01A0011124FF27591B99F0593F41
:1026300050F4503E68F11A16F040A22F232F342F89
:102640004427585FF3CF469537952795A795F040D7
:102650005395C9F77EF41F16BA0B620B730B840BEC
:10266000BAF09150A1F0FF0FBB1F661F771F881FA4
:10267000C2F70EC0BA0F621F731F841F48F48795FC
:1026800077956795B795F7959E3F08F0B3CF9395EB
:10269000880F08F09927EE0F97958795089540D0F9
:1026A00008F481E00895E89409C097FB3EF4909502
:1026B0008095709561957F4F8F4F9F4F9923A9F01B
:1026C000F92F96E9BB279395F695879577956795AA
:1026D000B795F111F8CFFAF4BB0F11F460FF1BC0EE
:1026E0006F5F7F4F8F4F9F4F16C0882311F096E981
:1026F00011C0772321F09EE8872F762F05C066232F
:1027000071F096E8862F70E060E02AF09A95660FE7
:10271000771F881FDAF7880F9695879597F90895A0
:10272000990F0008550FAA0BE0E8FEEF16161706E2
:10273000E807F907C0F012161306E407F50798F04A
:10274000621B730B840B950B39F40A2661F0232B63
:10275000242B252B21F408950A2609F4A140A695DF
:102760008FEF811D811D089597F99F6780E870E0C4
:1027700060E008959FEF80EC089500240A941616F7
:10278000170618060906089500240A94121613065F
:10279000140605060895092E0394000C11F48823ED
:1027A00052F0BB0F40F4BF2B11F460FF04C06F5F09
:1027B0007F4F8F4F9F4F089557FD9058440F551FDF
:1027C00059F05F3F71F04795880F97FB991F61F0B3
:1027D0009F3F79F087950895121613061406551F2A
:1027E000F2CF4695F1DF08C0161617061806991F96
:1027F000F1CF86957105610508940895E894BB278B
:1028000066277727CB0197F908950BD0C4CFB5DFA2
:1028100028F0BADF18F0952309F0A6CFABCF11242A
:10282000EECFCADFA0F3959FD1F3950F50E0551F6F
:10283000629FF001729FBB27F00DB11D639FAA2715
:10284000F00DB11DAA1F649F6627B00DA11D661F64
:10285000829F2227B00DA11D621F739FB00DA11D85
:10286000621F839FA00D611D221F749F3327A00D3F
:10287000611D231F849F600D211D822F762F6A2FDB
:1028800011249F5750408AF0E1F088234AF0EE0F60
:10289000FF1FBB1F661F771F881F91505040A9F76D
:1028A0009E3F510570F060CFAACF5F3FECF3983E9A
:1028B000DCF3869577956795B795F795E7959F5FD4
:1028C000C1F7FE2B880F911D9695879597F908956E
:1028D0002F923F924F925F926F927F928F929F9230
:1028E000AF92BF92CF92DF92EF92FF920F931F931E
:1028F000DF93CF93CDB7DEB761970FB6F894DEBF05
:102900000FBECDBF3C017F876E876A01FC01178235
:102910001682838181FD03C06FEF7FEF71C39E013B
:102920002F5F3F4F398B288BF3012381EE85FF8585
:1029300023FD859123FF8191FF87EE87882309F48A
:102940005CC3853251F4EE85FF8523FD859123FF1D
:102950008191FF87EE87853229F490E0B3010E94D0
:10296000EF1BE2CF982F10E0882499241032B0F4A6
:102970009B3269F09C3228F4903251F0933271F41A
:102980000BC09D3239F0903349F4116028C01260B9
:10299000146025C0186023C0106121C017FD2AC033
:1029A000892F80538A3078F416FF06C0FAE09F9E84
:1029B000902C1124980E13C03AE0839E802C112491
:1029C000880E10620CC09E3221F416FD16C31064EE
:1029D00006C09C3611F4106802C0983659F4EE8592
:1029E000FF8523FD959123FF9191FF87EE87992322
:1029F00009F0BCCF892F8554833020F4812F80616A
:102A0000905E07C0892F8556833008F0A1C1812FC1
:102A10008F7E86FD02C076E0972E6FE3F62EF822B9
:102A2000953619F4F0E4FF2A07C0963619F420E829
:102A3000F22A02C091109A94F7FE0BC03BE33915BD
:102A400020F427E05CE3B52E0EC0B92CB39427E048
:102A50000AC047E0491528F427E0BB2447E0942E3C
:102A600002C0292DBB24C60104969D878C87F601E0
:102A70006081718182819381AE014F5F5F4F0B2D29
:102A80000E94FA1A6C010981202E332400FF04C031
:102A900003FD02C01DE209C0F1FE02C01BE205C039
:102AA000F2FC02C010E001C010E2C1018C70907015
:102AB000892BB9F1112311F483E001C084E088155A
:102AC00010F088240AC0881AF3FC07C080E290E066
:102AD000B3010E94EF1B8A94C9F7112329F0812FBB
:102AE00090E0B3010E94EF1B23FE03C009E312E054
:102AF0000EC00DE312E00BC0E114F10409F08052A6
:102B000090E0B3010E94EF1B0F5F1F4F05C0EF2C39
:102B1000FF24F0E1EF22FF24F8018491882361F77C
:102B200014C1F7FE12C0BC0C24FE04C08A8181339C
:102B300009F4BA941B141CF0BB24B3942DC0F8E024
:102B4000FB1550F538E0B32E27C0F6FC25C0892DC3
:102B500090E08C159D054CF02CEFC2162FEFD2069D
:102B600024F030E8F32A01C09A94992049F0E2E079
:102B7000F0E0EC0FFD1FE90DF11D80818033A1F322
:102B8000F7FE0AC0B92CB394892D90E0C816D90677
:102B900014F0992401C09C18F7FC03C025E030E034
:102BA00009C01C141D041CF021E030E003C0960194
:102BB0002F5F3F4F112311F02F5F3F4F992029F0D6
:102BC000892D90E00196280F391F882D90E0281755
:102BD000390714F0882401C0821A4F2C5524C201F1
:102BE00089709070892B39F008C080E290E0B301C1
:102BF0000E94EF1B8A948820C1F7112329F0812FAE
:102C000090E0B3010E94EF1B43FE07C008C080E3C1
:102C100090E0B3010E94EF1B8A948820C1F7F7FE71
:102C200046C08601D7FE02C000E010E0760108949D
:102C3000E11CF11CE01AF10A41E050E04C0F5D1F6D
:102C4000E40EF51E26014B185108892D90E0AA24A8
:102C5000BB24A81AB90A5FEF0F3F150729F48EE2CB
:102C600090E0B3010E94EF1BC016D10634F040166D
:102C700051061CF4F701808101C080E3015010402F
:102C80000894E11CF11C0A151B052CF090E0B3011F
:102C90000E94EF1BE0CF0C151D0539F49A81963385
:102CA00018F4953311F424FE81E390E04BC08A813F
:102CB000813309F00F7E90E0B3010E94EF1B992051
:102CC000A1F08EE290E0B3010E94EF1B12E0E1E080
:102CD000F0E0EC0FFD1FE10FF11D1F5F808190E020
:102CE000B3010E94EF1B9A9491F744FC03C085E660
:102CF00090E002C085E490E0B3010E94EF1BD7FC96
:102D000005C0C114D10441F404FF06C0D094C1949D
:102D1000D108D3948DE201C08BE290E0B3010E9410
:102D2000EF1B80E305C08F5F26EF3FEFC20ED31E7F
:102D30003AE0C316D104BCF790E0B3010E94EF1B48
:102D4000C601C096B3010E94EF1BCC84DD8452C142
:102D5000933631F0933799F0933509F059C023C079
:102D6000F601808189835E010894A11CB11C22E0D8
:102D700030E0C20ED31E21E0E22EF12C12C0F6018B
:102D8000A080B18016FD03C06FEF7FEF02C0692DF8
:102D900070E022E030E0C20ED31EC5010E94E41BA9
:102DA0007C011F7713C0F601A080B18016FD03C01F
:102DB0006FEF7FEF02C0692D70E022E030E0C20EBD
:102DC000D31EC5010E94D21B7C01106813FF07C0EF
:102DD0001BC080E290E0B3010E94EF1B8A94882D13
:102DE00090E0E816F906A8F30FC0F50117FD8591EC
:102DF00017FF81915F0190E0B3010E94EF1B8110EA
:102E00008A940894E108F108E114F10471F7F2C022
:102E1000943611F0993689F517FF08C0F601208124
:102E200031814281538184E090E00AC0F6018081C3
:102E300091819C01442737FD4095542F82E090E01A
:102E4000C80ED91E9FE6F92EF12257FF09C05095F2
:102E50004095309521953F4F4F4F5F4F90E8F92AAD
:102E6000CA01B901AE014F5F5F4F2AE030E00E9416
:102E70004C1CE82EE889EE1A41C0953721F41F7EDC
:102E80002AE030E01CC0197F9F3661F0903720F4B3
:102E9000983509F0B2C00FC0903739F0983709F073
:102EA000ACC004C028E030E00AC0106114FD14601A
:102EB00020E130E004C014FD166020E132E017FF8D
:102EC00008C0F601608171818281938144E050E005
:102ED00008C0F60180819181BC0180E090E042E071
:102EE00050E0C40ED51EAE014F5F5F4F0E944C1CD8
:102EF000E82E5889E51A8FE7F82EF122F6FE0BC06E
:102F00008EEFF822E91438F4F4FE07C0F2FC05C095
:102F10009FEEF92202C01E2D01C0192DF4FE0DC036
:102F2000FE01EE0DF11D8081803319F4E9EEFE22E1
:102F300008C01F5FF2FE05C003C08F2D867809F020
:102F40001F5F0F2DF3FC14C0F0FE0FC0181510F01A
:102F50009E2C0BC09E2C980C911A182D06C080E256
:102F600090E0B3010E94EF1B1F5F1815C0F304C06F
:102F7000181510F4811A01C0882404FF0FC080E3E3
:102F800090E0B3010E94EF1B02FF1DC001FD03C0D2
:102F900088E790E00EC088E590E00BC0802F86782F
:102FA00091F001FF02C08BE201C080E2F7FC8DE2EC
:102FB00090E0B3010E94EF1B06C080E390E0B301F4
:102FC0000E94EF1B9A94E914C0F3EA94E1E0F0E068
:102FD000EC0FFD1FEE0DF11D808190E0B3010E940A
:102FE000EF1BEE2091F706C080E290E0B3010E9453
:102FF000EF1B8A948820C1F797CCF3016681778113
:10300000CB0161960FB6F894DEBF0FBECDBFCF9156
:10301000DF911F910F91FF90EF90DF90CF90BF90C5
:10302000AF909F908F907F906F905F904F903F9068
:103030002F900895F89480911607882311F481E168
:1030400005C08091740084FF05C082E1809316075B
:1030500080E015C08091740085FF07C01092740055
:1030600084E08093740088E1F1CF1092160780917C
:1030700019078093170785EA8093740081E078949C
:10308000089580E197E235E00DC02091740020FDA5
:1030900006C02091740024FD02C081E00895232F12
:1030A0002A95F1F701972FEF8F3F920771F7F89468
:1030B0001092740084E08093740080911607803130
:1030C00018F483E180931607789480E00895809146
:1030D00016070895E4E7F0E0108288E4809370001A
:1030E0008FEF8093730084E0808381E080931607E4
:1030F00008951F920F920FB60F920BB60F921124E4
:103100002F933F938F939F93EF93FF938091710041
:10311000887F80931807883251F1893288F4803192
:1031200021F1813138F4882309F471C0883009F025
:1031300073C01BC08831D9F0803209F06DC067C000
:10314000803409F442C0813438F4803309F45FC01C
:10315000883309F061C056C0803559F1883509F4CB
:1031600042C0883409F058C052C010921A0790919A
:103170001A0780911707981768F480911A07E82FAB
:10318000F0E0EE5FF84F90818F5F80931A07909385
:10319000730027C080911B07882369F180911B076A
:1031A000809317078091020781608093020785EA68
:1031B00026C080911A0790917300E82FF0E0EE5F2F
:1031C000F84F90838F5F80931A0780911A072091A0
:1031D000170790E0019630E08217930714F485EC0E
:1031E0000EC085E80CC0E0911A0780917300F0E0F2
:1031F000EE5FF84F808382E08093160784E9809326
:10320000740010C084E88093740085E109C084E9EB
:103210008093740086E104C084E88093740087E1A1
:1032200080931607FF91EF919F918F913F912F917E
:103230000F900BBE0F900FBE0F901F901895089522
:103240008093190760931B070E941A180E94411867
:10325000089584E58093020784E2809303078091B8
:10326000DA079091DB07909304078093050780911C
:10327000DC079091DD079093060780930707809104
:103280001C0790911D07909308078093090788E019
:1032900062E00E942019089584E58093020783E28A
:1032A0008093030782E067E00E9420199091030752
:1032B00080E020910407820F911D9093DB0780939B
:1032C000DA079091050780E020910607820F911D93
:1032D0009093DD078093DC079091070780E02091B1
:1032E0000807820F911D90931D0780931C07089576
:1032F00084E58093020782E2809303078091D807D8
:103300009091D907909304078093050780911E0739
:1033100090911F0790930607809307078091DE071F
:103320009091DF07909308078093090788E062E097
:103330000E942019089584E58093020781E280931A
:10334000030782E067E00E9420199091030780E064
:1033500020910407820F911D9093D9078093D8077D
:103360009091050780E020910607820F911D9093B0
:103370001F0780931E079091070780E020910807A0
:10338000820F911D9093DF078093DE07089524E557
:103390002093020720E22093030790930407809371
:1033A000050784E062E00E942019089594E5909357
:1033B000020793E1909303078093040783E063E09F
:1033C0000E9420193091030720E080910407280F04
:1033D000311DC901089584E58093020782E180933D
:1033E000030782E062E00E94201980910307809326
:1033F0002007089584E58093020781E18093030705
:103400008091D7078093040783E062E00E9420192F
:10341000089584E58093020780E1809303078091FB
:1034200021078093040783E062E00E942019089539
:1034300084E58093020786E08093030782E062E0E0
:103440000E94201980910307089584E58093020764
:1034500085E08093030782E062E00E94201980915A
:103460000307089584E58093020784E080930307AF
:1034700082E062E00E9420198091030708950F9373
:103480001F93182F062F84E58093020783E0809313
:103490000307109304076093050784E061E10E942D
:1034A0002019E3E0F7E007C0A12FB0E0AE5DB84F10
:1034B00081918C93100F153B20F487E0E331F807DE
:1034C00099F71F910F91089594E59093020792E068
:1034D00090930307809304076093050784E062E0FC
:1034E0000E942019089594E59093020791E090932B
:1034F00003078093040783E062E00E942019089587
:1035000084E5809302071092030782E062E00E9444
:1035100020190895991B79E004C0991F961708F0A7
:10352000961B881F7A95C9F78095089597FB092EF9
:1035300007260AD077FD04D049D006D000201AF41F
:10354000709561957F4F0895F6F7909581959F4FFF
:103550000895A1E21A2EAA1BBB1BFD010DC0AA1FD4
:10356000BB1FEE1FFF1FA217B307E407F50720F0EC
:10357000A21BB30BE40BF50B661F771F881F991F67
:103580001A9469F760957095809590959B01AC01B0
:10359000BD01CF01089597FB092E05260ED057FDDA
:1035A00004D0D7DF0AD0001C38F4509540953095F0
:1035B00021953F4F4F4F5F4F0895F6F790958095B7
:1035C000709561957F4F8F4F9F4F0895AA1BBB1B2E
:1035D00051E107C0AA1FBB1FA617B70710F0A61B13
:1035E000B70B881F991F5A95A9F780959095BC0134
:1035F000CD010895283008F027E03327DA01990F2C
:10360000311D87FD916000966105710539F43260C6
:103610002E5F3D9330E32A95E1F708959F3F30F008
:1036200080387105610509F03C5F3C5F3D93913046
:1036300008F08068911DDF93CF931F930F93FF9243
:10364000EF92192F987F9695E92F96959695E90F09
:10365000FF27E556FD4F99273327EE24FF24A701C6
:10366000E70105900894079428F4360FE71EF81E2A
:10367000491F511D660F771F881F991F0694A1F7D8
:103680000590079428F4E70EF81E491F561FC11D28
:10369000770F881F991F661F0694A1F7059007945E
:1036A00028F4F80E491F561FC71FD11D880F991FF8
:1036B000661F771F0694A1F70590079420F4490F21
:1036C000561FC71FD81F990F661F771F881F0694A4
:1036D000A9F784911095177041F0D695C795579525
:1036E0004795F794E7941A95C1F7E1E4F2E06894FE
:1036F0001590159135916591959105907FE273959F
:10370000E118F10A430B560BC90BD009C0F7E10CC5
:10371000F11E431F561FC91FD01D7EF4703311F4D4
:103720008A95E6CFE894015030F0080F0AF400279C
:10373000021708F4202F2395022F7A3328F079E31B
:103740007D932A95E9F710C07D932A9589F6069412
:1037500097956795379517951794E118F10A430BDC
:10376000560BC90BD00998F023957E9173957A3347
:1037700008F070E37C932013B8F77E9170617D931D
:1037800030F0839571E37D9370E32A95E1F711247E
:10379000EF90FF900F911F91CF91DF91992787FDB7
:1037A00090950895FC010590615070400110D8F784
:1037B000809590958E0F9F1F0895FB01DC0101906D
:1037C0000D920020E1F70895FC01615070400190D6
:1037D0000110D8F7809590958E0F9F1F08950F9335
:1037E0001F93CF93DF938C01EB018B8181FF1BC073
:1037F00082FF0DC02E813F818C819D812817390762
:1038000064F4E881F9810193F983E88306C0E885CF
:10381000F985802F0995892B31F48E819F8101963E
:103820009F838E8302C00FEF1FEFC801DF91CF91FE
:103830001F910F9108950F931F93DF93CF93CDB7EF
:10384000DEB72E970FB6F894DEBF0FBECDBF0D8941
:103850001E8986E08C831A8309838FEF9FE79E83FE
:103860008D839E01275E3F4FCE0101966F89788D33
:10387000A9010E9468142F813885020F131FF801D7
:1038800010822E960FB6F894DEBF0FBECDBFCF913B
:10389000DF911F910F910895FA01AA27283051F165
:1038A000203181F1E8946F936E7F6E5F7F4F8F4F71
:1038B0009F4FAF4FB1E03ED0B4E03CD0670F781FD0
:1038C000891F9A1FA11D680F791F8A1F911DA11DB5
:1038D0006A0F711D811D911DA11D20D009F46894EE
:1038E0003F912AE0269F11243019305D3193DEF696
:1038F000CF010895462F4770405D4193B3E00FD04C
:10390000C9F7F6CF462F4F70405D4A3318F0495D36
:1039100031FD4052419302D0A9F7EACFB4E0A69519
:103920009795879577956795BA95C9F7009761053B
:10393000710508959B01AC010A2E06945795479591
:1039400037952795BA95C9F7620F731F841F951F86
:08395000A01D0895F894FFCFBB
:103958002D3E204D616E75656C6C004D6172746909
:103968006E692100496E69742E2E2E004D6F746F9A
:10397800722020202020204F4B005842454520200F
:1039880020202020204F4B00417564696F202020A3
:103998002020204F4B0053656E736F72656E202098
:1039A800204F4B004E445320202020202020204F21
:1039B8004B004C454453202020202020204F4B0012
:1039C800496E7465727275707473204F4B0042654E
:1039D8007265697421002D3E204175746F6D6174A4
:1039E800696B00202020202020202020202020205B
:1039F80020202020202020202000202020202020DF
:103A080020202020202020002020202020202020CE
:103A18002020202020202020202020200056434342
:103A28003A2025322E3166205600000000000000A2
:103A3800000000000000000000000000000000007E
:103A4800000000000000000000000000000000006E
:103A5800000000000000000000000000000000005E
:103A6800000000000000000000000000000000004E
:103A7800000000000000000000000000000000003E
:103A8800000000000000000000000000000003002B
:103A9800000000000400005F00000E00070007009F
:103AA8001F147F147F141F242A7F2A121F23130830
:103AB80064621F36495522500600050300000E00B7
:103AC8001C2241000E0041221C001F14083E08144D
:103AD8001F08083E08080600A06000000F08080834
:103AE80008080600606000000E00601C03001F3E0E
:103AF8005149453E0E00427F40001F4261514946F0
:103B08001D2141454B311F1814127F101D274545B3
:103B18004539173C4A4949301E01710905031D36CC
:103B2800494949361D064949291E0600363600000E
:103B38000600AC6C00000F08142241000F14141486
:103B480014141E00412214081F02015109061F32D5
:103B58004979413E1F7C1211127C177F4949493629
:103B6800173E414141221F7F4141221C177F49498D
:103B78004941177F09090901173E4149497A177FC9
:103B88000808087F0E00417F41001F2040413F0187
:103B98001F7F08142241177F404040401F7F020CBE
:103BA800027F1F7F0408107F173E4141413E177F67
:103BB80009090906173E414141BE1D7F09192946D9
:103BC8001746494949311F01017F0101173F40400C
:103BD800403F1F1F2040201F1F3F4038403F1F63AA
:103BE800140814631F07087008071F6151494543EB
:103BF8000E007F4141000E00031C60000E00414191
:103C08007F000E04020102041F40404040400C00A7
:103C180000030400172054545478177F484444384C
:103C28001738444444201D384444487F17385454B6
:103C3800541817087E0901021718A4A4A478177F3E
:103C4800080404780E00447D40000D4080847D0007
:103C58000F7F102844000E00417F40001F7C04782D
:103C68000478177C0804047817384444443817FC4F
:103C7800242424181718242424FC177C0804040876
:103C880017485454542017043F4440201D3C4040DA
:103C9800207C1F1C2040201C1F3C4030403C1F44FF
:103CA80028102844171CA0A0A07C1F4464544C442E
:103CB8000E00083641000400007F00000E00413667
:0E3CC80008001F02010204021FAA55AA55AAF5
:00000001FF
