:100000000C949E010C94BD010C94BD010C94BD0197
:100010000C94BD010C94BD010C94BD010C94BD0168
:100020000C94BD010C94BD010C94A0040C94BD0172
:100030000C94BD010C94BD010C94F6050C94BD010B
:100040000C94BD010C94A9060C94BC020C94EC0217
:100050000C94BD010C94BD010C94BD010C94BD0128
:100060000C94BD010C94BD010C94BD010C94BD0118
:100070000C94BD010C94BD010C94BD010C94BD0108
:100080000C94BD010C9419150C94BD0100000000E6
:100090000000000000000000000000000000000060
:1000A0000000000000000000008056010002000077
:1000B000FEFFFF030300C0FFFFFFBF0100E00F00D2
:1000C000C4FF0100E0030000F00300E07F0000E057
:1000D0000300C0FCFFFFFF0300C081FFFFBF010062
:1000E00080030000DF010000030080FB0000000728
:1000F00000C07F0000000E00C03F0000000C00E0C8
:100100003F0000001C00F80F0000003800DC0E006B
:1001100000007000FC07000000E000FE030000008B
:10012000C080FF01000000C0C1FF0000000080E3AC
:100130003C0000000000E73F0000000000E60F0068
:1001400000000000EE070000000000DC07000000D7
:100150000000B8030000000000F8010000000000EB
:10016000F0010000000000F0000000000000F000BE
:100170000000000000F0000000000000F00000009F
:10018000000000F0000000000000F000000000008F
:100190000070000000000000E0000000000000F01F
:1001A000000000000000F0000000000000700000EF
:1001B00000000000E00000000000007000000000EF
:1001C000000070000000000000700000000000004F
:1001D00060000000000000700000000000007000DF
:1001E000000000000060000000000000700000003F
:1001F000000080FF0700000000F0FF3F000000004B
:1002000070F87C0000000038FCE100000000F00104
:10021000F800000000E0FF7F0000000000FF0F007A
:1002200000000000000000000000000000000000CE
:1002300031363300322E3131006E616E00696E66E8
:100240000000407A10F35A00A0724E18090010A561
:10025000D4E80000E87648170000E40B54020000E0
:10026000CA9A3B000000E1F5050000809698000066
:100270000040420F000000A086010000001027008F
:10028000000000E803000000006400000000000A15
:1002900000000000000100000000002C76D888DC7F
:1002A000674F0823DFC1DFAE59E1B1B796E5E3E45C
:1002B00053C63AE651997696E8E6C28426EB898CD5
:1002C0009B62ED407C6FFCEFBC9C9F40F2BAA56F37
:1002D000A5F490055A2AF75C936B6CF9676DC11B06
:1002E000FCE0E40D47FEF520E6B500D0ED902E03CE
:1002F00000943577050080841E080000204E0A0017
:100300000000C80C333333330F986E12831141EF62
:100310008D2114893BE65516CFFEE6DB18D1844BC0
:10032000381BF77C1D901DA4BBE424203284725E30
:10033000228100C9F124ECA1E53D270011241FBE54
:10034000CFEFD0E1DEBFCDBF13E0A0E0B1E0E4E746
:10035000FFE200E00BBF02C007900D92A03DB10785
:10036000D9F714E0A0EDB3E001C01D92AE3BB10798
:10037000E1F70E944B040C94B8170C94000080E045
:10038000089508959091E5038091E603981711F47C
:1003900080E008950E9481020895982F8091E703DC
:1003A000883021F0892F0E949A020895FFCFEF92A2
:1003B000FF920F931F93CF93DF93182F062F7A018D
:1003C00088E60E94CD01812F0E94CD01802F0E94DE
:1003D000CD01C0E0D0E010E007C0F701EC0FFD1F39
:1003E00080810E94CD012196C017D107B4F386E128
:1003F0000E94CD01DF91CF911F910F91FF90EF905F
:100400000895482F83E061E050E00E94D7010895ED
:1004100060E040E050E00E94D70108950F931F93E1
:10042000DF93CF93CDB7DEB7BC010DB71EB78DB745
:100430009EB7861B970B0FB6F8949EBF0FBE8DBF5D
:100440004DB75EB74F5F5F4F20E030E006C0FA0166
:10045000E20FF31F10822F5F3F4F26173707BCF3C1
:1004600082E00E94D7010FB6F8941EBF0FBE0DBFE9
:10047000CF91DF911F910F910895DF93CF9300D01B
:1004800000D00F92CDB7DEB7DC01FE0131969E01A0
:100490002A5F3F4F11968C91119781931296E21724
:1004A000F307C1F781E065E0AE014F5F5F4F0E9447
:1004B000D7010F900F900F900F900F90CF91DF9179
:1004C00008950E946B020E94B702089580E895E2A9
:1004D0000E94610208959C0140E050E084E0220FF8
:1004E000331F441F551F8A95D1F760E074E284EFF3
:1004F00090E00E94D215215030403093900029B9ED
:100500000895F8949091E503E92FF0E0EB52FC4F49
:10051000E0818091E603883011F49093E603892FFF
:100520008F5F8093E503883010F01092E503789494
:100530008E2F0895282FF8948091E703E82FF0E09C
:10054000E352FC4F20838F5F8093E703883010F0E5
:100550001092E7039091E7038091D403981719F460
:1005600088E08093E703559A7894822F089588EB6A
:100570008AB908951AB808951F920F920FB60F9274
:100580000BB60F9211248F939F93EF93FF939CB11F
:100590008091E6038830A9F0E82FF0E0EB52FC4FA1
:1005A00090838F5F8093E603883010F01092E6030B
:1005B0009091E6038091E503981719F488E0809301
:1005C000E603FF91EF919F918F910F900BBE0F90DB
:1005D0000FBE0F901F9018951F920F920FB60F929B
:1005E0000BB60F9211248F939F93EF93FF938091FB
:1005F000D4039091E703891791F0E82FF0E0E352DC
:10060000FC4FE081983011F48093E7038F5F809373
:10061000D403883010F01092D403ECB901C055987F
:10062000FF91EF919F918F910F900BBE0F900FBE96
:100630000F901F901895CF92DF92EF92FF920F9339
:10064000CF93DF93C0E0D0E000E084E1C82ED12C4E
:1006500023C07E010894E11CF11C81E3602F0E94FD
:100660007A088091D0039091D1038C0F9D1F65E093
:1006700070E00E94BF159C012C9DC0012D9D900D26
:100680003C9D900D1124845E9E4F0E94FC0C8AE0DC
:1006900090E00E947A06E701065F8091D203909174
:1006A000D303C817D907ACF2DF91CF910F91FF9018
:1006B000EF90DF90CF900895FC018091D20390914C
:1006C000D3032091D0033091D103820F931F65E0B3
:1006D00070E00E94BF1524E130E0AC01429FC001F0
:1006E000439F900D529F900D1124845E9E4FBF0139
:1006F0000E94EB168091D2039091D303853091052F
:1007000034F401969093D3038093D20309C080916F
:10071000D0039091D10301969093D1038093D0039D
:100720000E941B0308951F93CF93DF93F8941AE060
:1007300081E3612F0E947A0880E091E00E94FC0C26
:10074000165F1C33A9F7CCE1D1E0CE016EE071E079
:100750000E94EB16649681E0C038D807B1F7789410
:10076000DF91CF911F9108950E9466050E943B087A
:1007700080E060E00E947A0881E36CE34CE850E09E
:100780000E947C090895EF92FF920F931F93DF93CD
:10079000CF93CDB7DEB764970FB6F894DEBF0FBE28
:1007A000CDBF19821A821B821C82FE01359680E120
:1007B000DF011D928A95E9F70E94E50EEDB7FEB7BD
:1007C00038970FB6F894FEBF0FBEEDBF0DB71EB73A
:1007D0000F5F1F4F7E010894E11CF11CF282E18241
:1007E0008FE091E0D80113969C938E9312976091BD
:1007F000A0047091A10480E090E00E94171029EB02
:100800003CEF47E85CE30E94A5102CEE31E548E997
:100810005FE30E94B20FF801648375838683978338
:100820000E9429178DB79EB708960FB6F8949EBF01
:100830000FBE8DBF81E360E00E947A08C7010E946D
:10084000FC0C64960FB6F894DEBF0FBECDBFCF91FF
:10085000DF911F910F91FF90EF9008950E94ED0E90
:1008600078940E94A1060E94520F0E94C4050E9423
:10087000F90E0E946A0E0E940A150E94B4030E949B
:10088000660285E085BD87B7806487BF80E891E018
:100890000E945C0308950E942E0488EE93E00E945B
:1008A0007A060E94C303F9CF0E941C0D8091620456
:1008B000909163048050974410F082E001C081E081
:1008C00067E00E94010F809164049091650480505C
:1008D000974410F082E001C081E066E00E94010FC1
:1008E00080916604909167048050974430F082E0D4
:1008F00065E00E94010F82E005C081E065E00E9492
:10090000010F81E064E00E94010F809168049091E2
:1009100069048050974410F082E001C081E063E0F8
:100920000E94010F80916A0490916B04805097445B
:1009300010F082E001C081E062E00E94010F0895A2
:100940001F920F920FB60F920BB60F9211242F9396
:100950003F934F935F936F937F938F939F93AF9347
:10096000BF93EF93FF930E945404FF91EF91BF91C7
:10097000AF919F918F917F916F915F914F913F9137
:100980002F910F900BBE0F900FBE0F901F901895D8
:1009900090916500282F30E080E0A90141705070EF
:1009A00020FF81E09E7F982B9093650080916500E9
:1009B0004115510511F490E001C092E08D7F892B23
:1009C000809365008091650021FD02C090E001C028
:1009D00098E0877F892B80936500809165008F7EEA
:1009E000809365008FEF8ABB6BBB85E0982F9A954B
:1009F000F1F790916500946090936500982F9A9517
:100A0000F1F7909165009B7F909365008A95F1F7CF
:100A10001BBA1ABA089590916500282F30E080E043
:100A2000A9014170507020FF81E09E7F982B909328
:100A30006500809165004115510511F490E001C0F9
:100A400092E08D7F892B809365008091650021FD68
:100A500002C090E001C098E0877F892B80936500F9
:100A6000809165008061809365001ABA25E0822F2D
:100A70008A95F1F78091650084608093650085E137
:100A80008A95F1F789B3909165009B7F90936500FB
:100A9000922F9A95F1F708951F93CF93DF9390913A
:100AA000E803992371F0182F1170CFEFDFEF812F3A
:100AB0000E940B05219787FD02C081E003C02097AB
:100AC000B1F780E0DF91CF911F9108958FEF809370
:100AD000E8038091640088608093640080916400E2
:100AE00080618093640080916400846080936400DE
:100AF00080916400816080936400809164008260D2
:100B000080936400B89A1ABA80916500877F8093B9
:100B10006500809165008F7E8093650080916500FF
:100B20008B7F80936500809165008E7F8093650048
:100B3000809165008D7F80936500C098979B07C06A
:100B4000979880EA9FE00197F1F7979A04C080EAAE
:100B50009FE00197F1F7C09A80E00E944C0588233E
:100B600051F081E00E944C05882311F082E001C021
:100B700081E08093E8038091E8038F3F11F41092A5
:100B8000E8038091E80308951092F2031092F103B4
:100B90001092EE031092ED031092F3031092F403FF
:100BA0001092F5031092F6031092EA031092E903F3
:100BB0001092EC031092EB038FEF93E09093F0030D
:100BC0008093EF03C598C698BD9ABE9ABF9AC79AFC
:100BD0001DBC1CBC8AEA8FBD82E18EBD80E094E022
:100BE00097BD86BD87B7846087BF08951F920F9217
:100BF0000FB60F9211242F933F934F938F939F9390
:100C0000AF93BF938091F1039091F2039C01285E12
:100C10003F4F3093F2032093F10343E0283E340723
:100C200078F0805D93409093F2038093F10380917C
:100C3000ED039091EE0301969093EE038093ED0304
:100C40008091ED039091EE039C012F5F3F4F309315
:100C5000EE032093ED0343E0283E3407C8F0875E9F
:100C600093409093EE038093ED038091F303909172
:100C7000F403A091F503B091F6030196A11DB11DF7
:100C80008093F3039093F403A093F503B093F603DA
:100C90008091E9039091EA0323E08F3F920710F0DF
:100CA00080E094E09BBD8ABD8091EB039091EC03C2
:100CB00043E08F3F940710F080E094E099BD88BD39
:100CC0008091EF039091F00323E08F3F920710F0A3
:100CD00080E094E09093790080937800BF91AF9189
:100CE0009F918F914F913F912F910F900FBE0F9039
:100CF0001F90189520EA3FE004C0F9013197F1F701
:100D000001970097D1F7089510923304809314044B
:100D1000982F9F5F9093160496E990933404F8946B
:100D200003C078940000F894B09BFBCF90EC9DB981
:100D30008FB996E9982790933204779A789480E057
:100D40000895B898C098BB9AC39A80E00E94840620
:100D500008951F920F920FB60F920BB60F921124A7
:100D60002F933F934F935F936F937F938F939F93B3
:100D7000AF93BF93EF93FF939FB120913404292742
:100D800020933404809133048823B1F490931204A7
:100D90009C3130F0109214041092120491E009C0BA
:100DA000492F50E02091160430E042175307FCF021
:100DB0009F5F909316041BC0482F50E0609112046F
:100DC00070E0641775072CF04A5E5B4FFA01908360
:100DD0000EC0415050404617570749F4222339F0BE
:100DE000909113049F5F90931304109212049091BA
:100DF0001404891750F4E82FF0E0E950FC4F2081EB
:100E00002FB990913204922711C0891731F4909133
:100E100032049FB9109232040BC0909116048917C6
:100E200058F49FEF9FB990913204909590933204BB
:100E30008F5F8093330411C0B898C0981DB8B898DC
:100E4000C098809115048F5F8093150478948091E9
:100E500012040E948F0E0E948406FF91EF91BF91B1
:100E6000AF919F918F917F916F915F914F913F9142
:100E70002F910F900BBE0F900FBE0F901F901895E3
:100E80008091380408958091410408958093350439
:100E90000895982F9052903608F080E8805290E0A4
:100EA000FC01EE0FFF1FE80FF91FEE0FFF1FE157C8
:100EB000FE4F908180913704882309F49FE180E000
:100EC00020E090FD8F5F2F5F253011F09695F9CFD0
:100ED00008951F93CF93DF93EC0110E005C0219696
:100EE0000E9449078F5F180F88818823C1F7812FDF
:100EF000DF91CF911F9108951F93CF93DF93EC0162
:100F000010E007C02196F90184910E9449078F5F84
:100F1000180F9E01FE0194919923A1F7812FDF9173
:100F2000CF911F91089580933704089580913704DD
:100F30000895863130F4683020F46093360480934D
:100F4000420408950F931F93DF93CF930F92CDB771
:100F5000DEB7182F6854883018F580E069830E9446
:100F60004C0580E069810E94C80480E00E944C0525
:100F7000612F660F660F660F605C80E00E94C804F8
:100F800009E314E082E00E944C0582E0F8016191DF
:100F90008F010E94C804F4E001341F0799F723C0B1
:100FA000185081E069830E944C0581E069810E94AC
:100FB000C80481E00E944C05612F660F660F660F22
:100FC000605C81E00E94C80409E314E083E00E94B1
:100FD0004C0583E0F80161918F010E94C804F4E0A0
:100FE00001341F0799F70F90CF91DF911F910F9157
:100FF0000895FF920F931F93F82E18EB80E00E9444
:101000004C0581E00E944C0580E0612F0E94C804DD
:1010100081E0612F0E94C80400E082E00E944C053C
:1010200083E00E944C0582E06F2D0E94C80483E09B
:101030006F2D0E94C8040F5F003479F71F5F103CCA
:10104000E9F680E00E944C0581E00E944C0580E0BA
:1010500068EB0E94C80481E068EB0E94C8041F91FD
:101060000F91FF90089580E00E94F90710923604D6
:1010700010924204089580E00E944C0580E06FE3E6
:101080000E94C80480E00E944C0580E060EC0E9451
:10109000C80480E00E944C0580E060E40E94C8041F
:1010A00080E00E944C0580E068EB0E94C80481E06B
:1010B0000E944C0581E06FE30E94C80481E00E9419
:1010C0004C0581E060EC0E94C80481E00E944C0560
:1010D00081E060E40E94C80481E00E944C0581E048
:1010E00068EB0E94C80480E00E94F90781E08093C9
:1010F000350408950F931F93182F062F80933804FB
:101100006093410480E00E944C0581E00E944C0500
:10111000069506950695085480E0602F0E94C80445
:1011200081E0602F0E94C80480E00E944C0581E0AD
:101130000E944C05113438F080E060E40E94C8043D
:1011400081E0612F07C0612F605C80E00E94C804CD
:1011500081E060E40E94C8041F910F910895EF920E
:10116000FF920F931F93CF93DF9319EB47C0083083
:10117000E8F480E00E944C0580E0612F0E94C804E2
:1011800080E00E944C056F2D605C80E00E94C804E6
:1011900082E00E940B05C9E3D4E082E00E940B05C7
:1011A000899384E0C134D807C1F71BC081E00E9455
:1011B0004C0581E0612F0E94C80481E00E944C052B
:1011C00081E06F2D0E94C80483E00E940B05C9E3F3
:1011D000D4E083E00E940B05899384E0C134D807F2
:1011E000C1F7802F6E2D0E94A2070F5F88E0F80ED6
:1011F000003109F0BCCF1F5F103C31F0FF2400E04C
:1012000037E4E32EE10EB3CFE9E3F4E0119284E09A
:10121000E134F807D9F710E0812F67E00E94A207B8
:101220001F5F1031C9F780913604882319F081506F
:1012300080933604DF91CF911F910F91FF90EF9033
:101240000895EF92FF920F931F93E82E162F80912F
:10125000380487FD39C000E0803408F001E0802FB9
:101260000E944C0542E0F42EF00E8F2D0E940B05DB
:101270008F2D0E940B059091350492FF02C0E094DF
:101280009B7FE122992319F41E2D182B08C0913061
:1012900021F4109518231E2902C01E2D1827802F17
:1012A0000E944C05609138046064802F0E94C8043D
:1012B000802F0E944C058F2D612F0E94C8048091C1
:1012C00038048F5F809338041F910F91FF90EF9047
:1012D000089590914104977061E070E002C0660F3C
:1012E000771F9A95E2F7882311F0862F02C0862F88
:1012F00060E00E94210908952F923F924F925F92E1
:101300006F927F928F929F92AF92BF92CF92DF9215
:10131000EF92FF920F931F93DF93CF9300D000D0F3
:1013200000D0CDB7DEB7082F162F5A8349836090BF
:101330003804E09041048E2D87702FEF30E0F22EBC
:1013400001C0FF0C8A95EAF7802F90E0019768E0D2
:1013500070E00E94BF156F5FA62EBB24C50173E02D
:10136000880F991F7A95E1F744245524481A590AA1
:10137000CC2468E0762E5FEF852E912CBC82AB8268
:1013800071C08E2D8770D72CD81A1D1548F48D2D5D
:10139000811B940102C0359527958A95E2F7F222C8
:1013A0008D2D8C0D90E08A9D10018B9D300C9A9DA7
:1013B000300C112480E090E09E838D8343C04D81EA
:1013C0005E81477050704115510571F5E695E695BF
:1013D000E695C1018E0F911DFC01A981BA81EA0F2A
:1013E000FB1FE40DF51D20E030E06D817E819491BE
:1013F000A9E3B4E08C9186958C9390FF02C080683D
:101400008C93119684E0A134B80711F09695F2CF31
:101410002F5F3F4F2830310529F0AB81BC81EA0FA7
:10142000FB1FE5CF7E836D83475C5B4FFA018081B4
:101430008F216F2D0E9421092D813E812F5F3F4F0B
:101440003E832D83ED81E01708F4B9CF1D1508F414
:10145000D12E1D19ED0CCD0C862D6E2D0E947A0813
:10146000FF24FA94112309F08CCF26960FB6F89436
:10147000DEBF0FBECDBFCF91DF911F910F91FF90C7
:10148000EF90DF90CF90BF90AF909F908F907F9024
:101490006F905F904F903F902F9008952F923F92C2
:1014A0004F925F926F927F928F929F92AF92BF9274
:1014B000CF92DF92EF92FF920F931F93DF93CF9320
:1014C00000D000D000D0CDB7DEB7082F162F5A833A
:1014D000498360903804E09041048E2D87702FEF8F
:1014E00030E0F22E01C0FF0C8A95EAF7802F90E0E1
:1014F000019768E070E00E94BF156F5FA62EBB24C5
:10150000C501A3E0880F991FAA95E1F7442455244B
:10151000481A590ACC24F8E07F2EEFEF8E2E912C3A
:10152000BC82AB8271C08E2D8770D72CD81A1D1546
:1015300048F48D2D811B940102C0359527958A951D
:10154000E2F7F2228D2D8C0D90E08A9D10018B9D8B
:10155000300C9A9D300C112480E090E09E838D83A6
:1015600043C04D815E81477050704115510571F542
:10157000E695E695E695C1018E0F911DFC01A981C6
:10158000BA81EA0FFB1FE40DF51D20E030E06D810C
:101590007E819081A9E3B4E08C9186958C9390FF35
:1015A00002C080688C93119684E0A134B80711F0D2
:1015B0009695F2CF2F5F3F4F2830310529F0AB8150
:1015C000BC81EA0FFB1FE5CF7E836D83475C5B4FD9
:1015D000FA0180818F216F2D0E9421092D813E818A
:1015E0002F5F3F4F3E832D83ED81E01708F4B9CF85
:1015F0001D1508F4D12E1D19ED0CCD0C862D6E2D68
:101600000E947A08FF24FA94112309F08CCF2696C1
:101610000FB6F894DEBF0FBECDBFCF91DF911F9103
:101620000F91FF90EF90DF90CF90BF90AF909F9081
:101630008F907F906F905F904F903F902F90089584
:10164000AF92BF92CF92DF92EF92FF920F931F93D0
:10165000CF93DF93A82E162FB0903804F09041045A
:101660008F2D87702FEF30E0022F01C0000F8A9579
:10167000EAF7B8E0CB2ECFEFD0E022C08F2D8770F5
:10168000EC2CE81A1E1548F48E2D811B9E0102C019
:10169000359527958A95E2F70223DA2C05C0802F2D
:1016A000602F0E942109DA94DD20C9F71E1508F485
:1016B000E12E1E19FE0C8B2D6F2D0E947A080FEF64
:1016C0001123E1F6DF91CF911F910F91FF90EF90E1
:1016D000DF90CF90BF90AF900895682F81E00E9477
:1016E000200B08950F931F93182F8091410487704A
:1016F00021E030E0022F01C0000F8A95EAF705C013
:10170000802F602F0E94210911501123C9F71F91CA
:101710000F9108959F92AF92BF92CF92DF92EF9276
:10172000FF920F931F93082F162FF0903804E0902C
:1017300041048F1561F4E61618F4862F8E1904C043
:101740000E947A088E2D811B0E946D0B5EC0DE2CDC
:101750006E1559F4F81610F48F1904C00E947A0817
:101760008F2D801B0E94720B50C08F1528F4AF2C58
:10177000A81A99249A9409C0F81618F09924AA2452
:1017800004C0A82EAF18992493941E1528F4BE2CDB
:10179000B11ACC24CA9409C0E11618F0CC24BB2499
:1017A00004C0B12EBE18CC24C39481E00E94690904
:1017B000BA14B0F4EA2CE694E194F90CEB0C1E1484
:1017C00014F4EA18DC0C8F2D6D2D0E947A0881E04C
:1017D0000E946909F90C8F2D8919801779F715C0B6
:1017E000DB2CD694D194EC0CDA0C1D1414F4DB1819
:1017F000F90C8F2D6E2D0E947A0881E00E946909F4
:10180000EC0C8E2D8C19811779F7802F612F0E9497
:101810007A081F910F91FF90EF90DF90CF90BF90CB
:10182000AF909F9008958F929F92AF92BF92CF9268
:10183000DF92EF92FF920F931F93CF93DF93062FC8
:10184000982F9052903608F080E8805296E0899F59
:10185000E0011124C157DE4F18818091370488239D
:1018600009F41FE1E02EFF24E7FCF0948FEF90E0F5
:101870006C010E2C02C0CC0CDD1C0A94E2F7AA24E9
:10188000BB24AE18BF080A2C02C0959587950A9410
:10189000E2F7D82E85E0882E912C8C0E9D1E10FF2D
:1018A00016C0898107FD09C090E00E2C02C0880F88
:1018B000991F0A94E2F76C2D08C090E00A2C02C030
:1018C000959587950A94E2F76D2D0E94210921963E
:1018D000C815D90511F01695E2CF07FD03C080E0C9
:1018E0006C2D02C080E06D2D0E942109DF91CF9107
:1018F0001F910F91FF90EF90DF90CF90BF90AF902E
:101900009F908F900895FF920F931F93082FF09050
:101910003804109141041770612F0E94130C112399
:1019200091F060914104685F8F2D0E947A08612FC9
:101930006850802F0E94130C609141046850809180
:1019400038040E947A081F910F91FF9008951F9309
:10195000CF93DF93EC011092370436C01A3069F44C
:1019600010924204809136048F5F80933604883051
:1019700059F581E00E94AF0827C01D3029F1809100
:101980004204853160F010924204809136048F5FEA
:1019900080933604883019F481E00E94AF0890915A
:1019A0004204892F880F890F60913604660F660FF5
:1019B000660F880F0E947A08812F0E94830C809105
:1019C00042048F5F809342041991112339F6DF910D
:1019D000CF911F910895CF93DF93EC0105C021961D
:1019E000F90184910E94830C9E01FE019491992338
:1019F000B1F7DF91CF910895CF93DF93EC0103C04E
:101A000021960E94830C88818823D1F7DF91CF91A2
:101A1000089590E0282F30E0F90183E0EE0FFF1FDA
:101A20008A95E1F7E21BF30BE75BFB4F80818F3F69
:101A300009F091E0892F0895F8949091810480E055
:101A4000E1E8F4E02291820F911D9093630480936A
:101A50006204938180E02281820F911D909365043E
:101A600080936404958180E02481820F911D90937E
:101A7000670480936604978180E02681820F911D20
:101A80009093690480936804918580E02085820F9B
:101A9000911D90936B0480936A047894F89420913C
:101AA0008A048091450490914604820F911D3091E3
:101AB0008B0420E0820F931F90935F0480935E0459
:101AC00020918C048091430490914404820F911DD5
:101AD00030918D0420E0820F931F909377048093C0
:101AE000760490918F0480E020918E04820F911DE6
:101AF00090939F0480939E049091910480E02091A4
:101B00009004820F911D90937504809374049091BA
:101B1000930480E020919204820F911D90934804D9
:101B2000809347049091950480E020919404820F63
:101B3000911D90937F0480937E047894F894909103
:101B4000980480E020919704820F911D9093610486
:101B50008093600490919A0480E020919904820F10
:101B6000911D90939C0480939B04789481E0089548
:101B7000F89481E08093490478940895F8948AE079
:101B800080934904789481E00895F89425E02093A7
:101B9000490480934A0490934B0460934C047093DF
:101BA0004D04789481E00895F89422E0209349044C
:101BB00080934A0490934B0460934C0470934D04BB
:101BC000789481E008952091450430914604FC0109
:101BD000E21BF30B9F018091430490914404681B26
:101BE000790BF89483E080934904E0934A0430939E
:101BF0004B0460934C0470934D0440934E045093F7
:101C00004F04789481E00895F89424E020934904E7
:101C100080934A0490934B0460934C0470934D045A
:101C200040934E0450934F04789481E00895789443
:101C30009091570420E137E22150304011F09F3F4E
:101C4000D9F7F89496E090935704809358046093E2
:101C5000590440935A04789481E0089581E00895EE
:101C6000F89430918D0420E040918C04F901E40F48
:101C7000F11DAF0130918B0420E0E0918A042E0F1A
:101C8000311DFC01E21BF30BF0934604E093450485
:101C90009B01241B350B3093440420934304909301
:101CA0005F0480935E047093770460937604789465
:101CB00081E0089578942091500480E197E20197A3
:101CC00011F02F3FE1F7F89488E080935004789466
:101CD00081E0089578942091500480E197E2019783
:101CE00011F02F3FE1F7F89487E080935004789447
:101CF00081E0089578944091500420E137E221502A
:101D0000304011F04F3FD9F7F89429E02093500468
:101D10008093510490935204789481E008959091B7
:101D20009D049F5F90939D048B3141F4A0E8B4E043
:101D3000E7E1F4E001900D928150E1F78FEF80939D
:101D400005048093FE038093F703809149048F3F3D
:101D500011F480E00DC0A7EFB3E0E9E4F4E087E020
:101D600001900D928150E1F78FEF8093490487E055
:101D7000909150049F3F79F0E82FF0E0E950FC4F3C
:101D8000A0E5B4E097E00D9001929150E1F79FEF4C
:101D900090935004895F909157049F3F81F0E82F02
:101DA000F0E0E950FC4FA7E5B4E087E00D90019228
:101DB0008150E1F78FEF8093570485E108958823E0
:101DC00011F487E0089585E1089587E00E948F0F60
:101DD0009093A1048093A00408958F9A97988AE025
:101DE00090E00E947A06979A84E690E00E947A0634
:101DF0000895BF9AC79ABD9ABE9A8FEF82B984BBE5
:101E00000895482F80FF0BC095B321E030E0062EE7
:101E100002C0220F331F0A94E2F7922B0CC085B345
:101E200021E030E0062E02C0220F331F0A94E2F7B1
:101E3000922F9095982395BB41FF0AC083B121E072
:101E400030E002C0220F331F6A95E2F7822B0AC0EE
:101E500023B181E090E002C0880F991F6A95E2F7F4
:101E60008095822383B908959093F0038093EF03C4
:101E700008958091EF039091F00308959093EA0301
:101E80008093E90308958091E9039091EA0308950E
:101E90009093EC038093EB0308958091EB03909172
:101EA000EC030895BC9A089545E322C0C498282FF6
:101EB000392F0AC061507040542F5A95F1F76115BF
:101EC000710529F0215030402115310599F7C49A48
:101ED000282F392F07C06150704021503040542FB7
:101EE0005A95F1F76115710519F02115310599F72A
:101EF00061157105D9F60895E1E6F0E0908121E0E1
:101F000030E002C0220F331F8A95E2F7209592231A
:101F10009083E2E6F0E0808182238083089590E45C
:101F200097B997B18770892B87B987EC86B901C0BB
:101F300000003699FDCF84B195B1392F20E0280FEC
:101F4000311D8091A2049091A304820F931F90935E
:101F5000A3048093A204C90108958091A2049091E2
:101F6000A30408955058BB27AA270ED0B4C0A5D00B
:101F700030F0AAD020F031F49F3F11F41EF49AC043
:101F80000EF4E095E7FB90C0E92FB6D080F3BA17C6
:101F9000620773078407950718F071F49EF5CEC0A9
:101FA0000EF4E0950B2EBA2FA02D0B01B901900174
:101FB0000C01CA01A0011124FF27591B99F0593FB8
:101FC00050F4503E68F11A16F040A22F232F342F00
:101FD0004427585FF3CF469537952795A795F0404E
:101FE0005395C9F77EF41F16BA0B620B730B840B63
:101FF000BAF09150A1F0FF0FBB1F661F771F881F1B
:10200000C2F70EC0BA0F621F731F841F48F4879572
:1020100077956795B795F7959E3F08F0B3CF939561
:10202000880F08F09927EE0F979587950895E89403
:1020300009C097FB3EF490958095709561957F4F10
:102040008F4F9F4F9923A9F0F92F96E9BB279395BE
:10205000F695879577956795B795F111F8CFFAF4CE
:10206000BB0F11F460FF1BC06F5F7F4F8F4F9F4FFF
:1020700016C0882311F096E911C0772321F09EE85D
:10208000872F762F05C0662371F096E8862F70E0C3
:1020900060E02AF09A95660F771F881FDAF7880F9D
:1020A0009695879597F9089597F99F6780E870E06E
:1020B00060E008959FEF80EC089500240A941616BE
:1020C000170618060906089500240A941216130626
:1020D000140605060895092E0394000C11F48823B4
:1020E00052F0BB0F40F4BF2B11F460FF04C06F5FD0
:1020F0007F4F8F4F9F4F089557FD9058440F551FA6
:1021000059F05F3F71F04795880F97FB991F61F079
:102110009F3F79F087950895121613061406551FF0
:10212000F2CF4695F1DF08C0161617061806991F5C
:10213000F1CF86957105610508940895E894BB2751
:1021400066277727CB0197F908950BD0C4CFB5DF69
:1021500028F0BADF18F0952309F0A6CFABCF1124F1
:10216000EECFCADFA0F3959FD1F3950F50E0551F36
:10217000629FF001729FBB27F00DB11D639FAA27DC
:10218000F00DB11DAA1F649F6627B00DA11D661F2B
:10219000829F2227B00DA11D621F739FB00DA11D4C
:1021A000621F839FA00D611D221F749F3327A00D06
:1021B000611D231F849F600D211D822F762F6A2FA2
:1021C00011249F5750408AF0E1F088234AF0EE0F27
:1021D000FF1FBB1F661F771F881F91505040A9F734
:1021E0009E3F510570F060CFAACF5F3FECF3983E61
:1021F000DCF3869577956795B795F795E7959F5F9B
:10220000C1F7FE2B880F911D9695879597F9089534
:102210002F923F924F925F926F927F928F929F92F6
:10222000AF92BF92CF92DF92EF92FF920F931F93E4
:10223000DF93CF93CDB7DEB761970FB6F894DEBFCB
:102240000FBECDBF3C017F876E876A01FC011782FC
:102250001682838181FD03C06FEF7FEF71C39E0102
:102260002F5F3F4F398B288BF3012381EE85FF854C
:1022700023FD859123FF8191FF87EE87882309F451
:102280005CC3853251F4EE85FF8523FD859123FFE4
:102290008191FF87EE87853229F490E0B3010E9497
:1022A000FD16E2CF982F10E0882499241032B0F464
:1022B0009B3269F09C3228F4903251F0933271F4E1
:1022C0000BC09D3239F0903349F4116028C0126080
:1022D000146025C0186023C0106121C017FD2AC0FA
:1022E000892F80538A3078F416FF06C0FAE09F9E4B
:1022F000902C1124980E13C03AE0839E802C112458
:10230000880E10620CC09E3221F416FD16C31064B4
:1023100006C09C3611F4106802C0983659F4EE8558
:10232000FF8523FD959123FF9191FF87EE879923E8
:1023300009F0BCCF892F8554833020F4812F806130
:10234000905E07C0892F8556833008F0A1C1812F88
:102350008F7E86FD02C076E0972E6FE3F62EF82280
:10236000953619F4F0E4FF2A07C0963619F420E8F0
:10237000F22A02C091109A94F7FE0BC03BE3391584
:1023800020F427E05CE3B52E0EC0B92CB39427E00F
:102390000AC047E0491528F427E0BB2447E0942E03
:1023A00002C0292DBB24C60104969D878C87F601A7
:1023B0006081718182819381AE014F5F5F4F0B2DF0
:1023C0000E9408166C010981202E332400FF04C0EE
:1023D00003FD02C01DE209C0F1FE02C01BE205C000
:1023E000F2FC02C010E001C010E2C1018C709070DC
:1023F000892BB9F1112311F483E001C084E0881521
:1024000010F088240AC0881AF3FC07C080E290E02C
:10241000B3010E94FD168A94C9F7112329F0812F78
:1024200090E0B3010E94FD1623FE03C009E312E011
:102430000EC00DE312E00BC0E114F10409F080526C
:1024400090E0B3010E94FD160F5F1F4F05C0EF2CF7
:10245000FF24F0E1EF22FF24F8018491882361F743
:1024600014C1F7FE12C0BC0C24FE04C08A81813363
:1024700009F4BA941B141CF0BB24B3942DC0F8E0EB
:10248000FB1550F538E0B32E27C0F6FC25C0892D8A
:1024900090E08C159D054CF02CEFC2162FEFD20664
:1024A00024F030E8F32A01C09A94992049F0E2E040
:1024B000F0E0EC0FFD1FE90DF11D80818033A1F3E9
:1024C000F7FE0AC0B92CB394892D90E0C816D9063E
:1024D00014F0992401C09C18F7FC03C025E030E0FB
:1024E00009C01C141D041CF021E030E003C096015B
:1024F0002F5F3F4F112311F02F5F3F4F992029F09D
:10250000892D90E00196280F391F882D90E028171B
:10251000390714F0882401C0821A4F2C5524C201B7
:1025200089709070892B39F008C080E290E0B30187
:102530000E94FD168A948820C1F7112329F0812F6B
:1025400090E0B3010E94FD1643FE07C008C080E37F
:1025500090E0B3010E94FD168A948820C1F7F7FE2F
:1025600046C08601D7FE02C000E010E07601089464
:10257000E11CF11CE01AF10A41E050E04C0F5D1F34
:10258000E40EF51E26014B185108892D90E0AA246F
:10259000BB24A81AB90A5FEF0F3F150729F48EE292
:1025A00090E0B3010E94FD16C016D10634F040162B
:1025B00051061CF4F701808101C080E301501040F6
:1025C0000894E11CF11C0A151B052CF090E0B301E6
:1025D0000E94FD16E0CF0C151D0539F49A81963343
:1025E00018F4953311F424FE81E390E04BC08A8106
:1025F000813309F00F7E90E0B3010E94FD1699200F
:10260000A1F08EE290E0B3010E94FD1612E0E1E03D
:10261000F0E0EC0FFD1FE10FF11D1F5F808190E0E6
:10262000B3010E94FD169A9491F744FC03C085E61D
:1026300090E002C085E490E0B3010E94FD16D7FC53
:1026400005C0C114D10441F404FF06C0D094C19464
:10265000D108D3948DE201C08BE290E0B3010E94D7
:10266000FD1680E305C08F5F26EF3FEFC20ED31E3D
:102670003AE0C316D104BCF790E0B3010E94FD1606
:10268000C601C096B3010E94FD16CC84DD8452C100
:10269000933631F0933799F0933509F059C023C040
:1026A000F601808189835E010894A11CB11C22E09F
:1026B00030E0C20ED31E21E0E22EF12C12C0F60152
:1026C000A080B18016FD03C06FEF7FEF02C0692DBF
:1026D00070E022E030E0C20ED31EC5010E94F21667
:1026E0007C011F7713C0F601A080B18016FD03C0E6
:1026F0006FEF7FEF02C0692D70E022E030E0C20E84
:10270000D31EC5010E94E0167C01106813FF07C0AC
:102710001BC080E290E0B3010E94FD168A94882DD0
:1027200090E0E816F906A8F30FC0F50117FD8591B2
:1027300017FF81915F0190E0B3010E94FD168110A7
:102740008A940894E108F108E114F10471F7F2C0E9
:10275000943611F0993689F517FF08C0F6012081EB
:1027600031814281538184E090E00AC0F60180818A
:1027700091819C01442737FD4095542F82E090E0E1
:10278000C80ED91E9FE6F92EF12257FF09C05095B9
:102790004095309521953F4F4F4F5F4F90E8F92A74
:1027A000CA01B901AE014F5F5F4F2AE030E00E94DD
:1027B0005A17E82EE889EE1A41C0953721F41F7E9A
:1027C0002AE030E01CC0197F9F3661F0903720F47A
:1027D000983509F0B2C00FC0903739F0983709F03A
:1027E000ACC004C028E030E00AC0106114FD1460E1
:1027F00020E130E004C014FD166020E132E017FF54
:1028000008C0F601608171818281938144E050E0CB
:1028100008C0F60180819181BC0180E090E042E037
:1028200050E0C40ED51EAE014F5F5F4F0E945A1795
:10283000E82E5889E51A8FE7F82EF122F6FE0BC034
:102840008EEFF822E91438F4F4FE07C0F2FC05C05C
:102850009FEEF92202C01E2D01C0192DF4FE0DC0FD
:10286000FE01EE0DF11D8081803319F4E9EEFE22A8
:1028700008C01F5FF2FE05C003C08F2D867809F0E7
:102880001F5F0F2DF3FC14C0F0FE0FC0181510F0E1
:102890009E2C0BC09E2C980C911A182D06C080E21D
:1028A00090E0B3010E94FD161F5F1815C0F304C02D
:1028B000181510F4811A01C0882404FF0FC080E3AA
:1028C00090E0B3010E94FD1602FF1DC001FD03C090
:1028D00088E790E00EC088E590E00BC0802F8678F6
:1028E00091F001FF02C08BE201C080E2F7FC8DE2B3
:1028F00090E0B3010E94FD1606C080E390E0B301B2
:102900000E94FD169A94E914C0F3EA94E1E0F0E025
:10291000EC0FFD1FEE0DF11D808190E0B3010E94D0
:10292000FD16EE2091F706C080E290E0B3010E9410
:10293000FD168A948820C1F797CCF30166817781D0
:10294000CB0161960FB6F894DEBF0FBECDBFCF911D
:10295000DF911F910F91FF90EF90DF90CF90BF908C
:10296000AF909F908F907F906F905F904F903F902F
:102970002F900895F8948091B804882311F481E190
:1029800005C08091740084FF05C082E18093B80483
:1029900080E015C08091740085FF07C0109274001C
:1029A00084E08093740088E1F1CF1092B8048091A4
:1029B000BB048093B90485EA8093740081E0789425
:1029C000089580E197E235E00DC02091740020FD6C
:1029D00006C02091740024FD02C081E00895232FD9
:1029E0002A95F1F701972FEF8F3F920771F7F8942F
:1029F0001092740084E0809374008091B804803158
:102A000018F483E18093B804789480E0089580916D
:102A1000B8040895E4E7F0E0108288E48093700041
:102A20008FEF8093730084E0808381E08093B8040B
:102A300008951F920F920FB60F920BB60F921124AA
:102A40002F933F938F939F93EF93FF938091710008
:102A5000887F8093BA04883251F1893288F48031BA
:102A600021F1813138F4882309F471C0883009F0EC
:102A700073C01BC08831D9F0803209F06DC067C0C7
:102A8000803409F442C0813438F4803309F45FC0E3
:102A9000883309F061C056C0803559F1883509F492
:102AA00042C0883409F058C052C01092BC049091C2
:102AB000BC048091B904981768F48091BC04E82F95
:102AC000F0E0EC55FB4F90818F5F8093BC049093B6
:102AD000730027C08091BD04882369F18091BD04F3
:102AE0008093B9048091A40481608093A40485EA52
:102AF00026C08091BC0490917300E82FF0E0EC5563
:102B0000FB4F90838F5F8093BC048091BC04209125
:102B1000B90490E0019630E08217930714F485EC35
:102B20000EC085E80CC0E091BC0480917300F0E019
:102B3000EC55FB4F808382E08093B80484E9809356
:102B4000740010C084E88093740085E109C084E9B2
:102B50008093740086E104C084E88093740087E168
:102B60008093B804FF91EF919F918F913F912F91A6
:102B70000F900BBE0F900FBE0F901F90189597FBF4
:102B8000092E07260AD077FD04D02ED006D00020CB
:102B90001AF4709561957F4F0895F6F79095819599
:102BA0009F4F0895A1E21A2EAA1BBB1BFD010DC069
:102BB000AA1FBB1FEE1FFF1FA217B307E407F507ED
:102BC00020F0A21BB30BE40BF50B661F771F881FC9
:102BD000991F1A9469F760957095809590959B015F
:102BE000AC01BD01CF010895AA1BBB1B51E107C079
:102BF000AA1FBB1FA617B70710F0A61BB70B881F8D
:102C0000991F5A95A9F780959095BC01CD0108951B
:102C1000283008F027E03327DA01990F311D87FDAE
:102C2000916000966105710539F432602E5F3D9325
:102C300030E32A95E1F708959F3F30F08038710521
:102C4000610509F03C5F3C5F3D93913008F080687E
:102C5000911DDF93CF931F930F93FF92EF92192F44
:102C6000987F9695E92F96959695E90FFF27E5565B
:102C7000FD4F99273327EE24FF24A701E701059094
:102C80000894079428F4360FE71EF81E491F511DBB
:102C9000660F771F881F991F0694A1F70590079468
:102CA00028F4E70EF81E491F561FC11D770F881F15
:102CB000991F661F0694A1F70590079428F4F80E53
:102CC000491F561FC71FD11D880F991F661F771FE9
:102CD0000694A1F70590079420F4490F561FC71FCB
:102CE000D81F990F661F771F881F0694A9F7849134
:102CF0001095177041F0D695C79557954795F7945D
:102D0000E7941A95C1F7E1E4F2E068941590159103
:102D100035916591959105907FE27395E118F10ADF
:102D2000430B560BC90BD009C0F7E10CF11E431F32
:102D3000561FC91FD01D7EF4703311F48A95E6CF5B
:102D4000E894015030F0080F0AF40027021708F445
:102D5000202F2395022F7A3328F079E37D932A954B
:102D6000E9F710C07D932A9589F6069497956795A3
:102D7000379517951794E118F10A430B560BC90BB9
:102D8000D00998F023957E9173957A3308F070E31B
:102D90007C932013B8F77E9170617D9330F083951A
:102DA00071E37D9370E32A95E1F71124EF90FF9092
:102DB0000F911F91CF91DF91992787FD90950895ED
:102DC000FC010590615070400110D8F780959095F6
:102DD0008E0F9F1F0895FB01DC0101900D920020D2
:102DE000E1F70895FC016150704001900110D8F79F
:102DF000809590958E0F9F1F08950F931F93CF93EB
:102E0000DF938C01EB018B8181FF1BC082FF0DC022
:102E10002E813F818C819D812817390764F4E881D8
:102E2000F9810193F983E88306C0E885F985802F4D
:102E30000995892B31F48E819F8101969F838E8322
:102E400002C00FEF1FEFC801DF91CF911F910F91CB
:102E500008950F931F93DF93CF93CDB7DEB72E97CF
:102E60000FB6F894DEBF0FBECDBF0D891E8986E078
:102E70008C831A8309838FEF9FE79E838D839E0146
:102E8000275E3F4FCE0101966F89788DA9010E9480
:102E900008112F813885020F131FF80110822E961A
:102EA0000FB6F894DEBF0FBECDBFCF91DF911F915B
:102EB0000F910895FA01AA27283051F1203181F1AC
:102EC000E8946F936E7F6E5F7F4F8F4F9F4FAF4F32
:102ED000B1E03ED0B4E03CD0670F781F891F9A1F45
:102EE000A11D680F791F8A1F911DA11D6A0F711DF9
:102EF000811D911DA11D20D009F468943F912AE005
:102F0000269F11243019305D3193DEF6CF010895EC
:102F1000462F4770405D4193B3E00FD0C9F7F6CF1D
:102F2000462F4F70405D4A3318F0495D31FD4052E5
:102F3000419302D0A9F7EACFB4E0A695979587957B
:102F400077956795BA95C9F700976105710508955A
:102F50009B01AC010A2E0694579547953795279506
:102F6000BA95C9F7620F731F841F951FA01D08959E
:042F7000F894FFCF03
:102F74002020202020202020202020202000005657
:102F840043433A2025322E316620560000000000CB
:102F9400000000000000000000000000000000002D
:102FA400000000000000000000000000000000001D
:102FB400000000000000000000000000000000000D
:102FC40000000000000000000000000000000000FD
:102FD40000000000000000000000000000000000ED
:102FE40000000000000000000000000000000000DD
:102FF400496E697469616C6973696572742100034F
:1030040000000000000400005F00000E000700073D
:10301400001F147F147F141F242A7F2A121F2313D6
:103024000864621F36495522500600050300000E4D
:10303400001C2241000E0041221C001F14083E08FF
:10304400141F08083E08080600A06000000F0808C6
:103054000808080600606000000E00601C03001FE2
:103064003E5149453E0E00427F40001F4261514996
:10307400461D2141454B311F1814127F101D274551
:10308400454539173C4A4949301E01710905031D5C
:1030940036494949361D064949291E060036360077
:1030A400000600AC6C00000F08142241000F141439
:1030B4001414141E00412214081F02015109061F92
:1030C400324979413E1F7C1211127C177F494949CC
:1030D40036173E414141221F7F4141221C177F493F
:1030E400494941177F09090901173E4149497A179E
:1030F4007F0808087F0E00417F41001F2040413FA8
:10310400011F7F08142241177F404040401F7F0267
:103114000C027F1F7F0408107F173E4141413E1778
:103124007F09090906173E414141BE1D7F0919293E
:10313400461746494949311F01017F0101173F40A4
:1031440040403F1F1F2040201F1F3F4038403F1F6B
:1031540063140814631F07087008071F6151494569
:10316400430E007F4141000E00031C60000E00412D
:10317400417F000E04020102041F40404040400C05
:103184000000030400172054545478177F48444423
:10319400381738444444201D384444487F17385471
:1031A40054541817087E0901021718A4A4A4781708
:1031B4007F080404780E00447D40000D4080847D27
:1031C400000F7F102844000E00417F40001F7C0444
:1031D400780478177C080404781738444444381772
:1031E400FC242424181718242424FC177C08040421
:1031F4000817485454542017043F4440201D3C40B1
:1032040040207C1F1C2040201C1F3C4030403C1FA1
:103214004428102844171CA0A0A07C1F4464544CCC
:10322400440E00083641000400007F00000E0041F7
:103234003608001F02010204021FAA55AA55AA005B
:00000001FF
