:100000000C949E010C94BD010C94BD010C94BD0197
:100010000C94BD010C94BD010C94BD010C94BD0168
:100020000C94BD010C94BD010C9475040C94BD019D
:100030000C94BD010C94BD010C94CB050C94BD0136
:100040000C94BD010C947E060C942E020C945E025E
:100050000C94BD010C94BD010C94BD010C94BD0128
:100060000C94BD010C94BD010C94BD010C94BD0118
:100070000C94BD010C94BD010C94BD010C94BD0108
:100080000C94BD010C94EE140C94BD010000000012
:100090000000000000000000000000000000000060
:1000A0000000000000000000008056010002000077
:1000B000FEFFFF030300C0FFFFFFBF0100E00F00D2
:1000C000C4FF0100E0030000F00300E07F0000E057
:1000D0000300C0FCFFFFFF0300C081FFFFBF010062
:1000E00080030000DF010000030080FB0000000728
:1000F00000C07F0000000E00C03F0000000C00E0C8
:100100003F0000001C00F80F0000003800DC0E006B
:1001100000007000FC07000000E000FE030000008B
:10012000C080FF01000000C0C1FF0000000080E3AC
:100130003C0000000000E73F0000000000E60F0068
:1001400000000000EE070000000000DC07000000D7
:100150000000B8030000000000F8010000000000EB
:10016000F0010000000000F0000000000000F000BE
:100170000000000000F0000000000000F00000009F
:10018000000000F0000000000000F000000000008F
:100190000070000000000000E0000000000000F01F
:1001A000000000000000F0000000000000700000EF
:1001B00000000000E00000000000007000000000EF
:1001C000000070000000000000700000000000004F
:1001D00060000000000000700000000000007000DF
:1001E000000000000060000000000000700000003F
:1001F000000080FF0700000000F0FF3F000000004B
:1002000070F87C0000000038FCE100000000F00104
:10021000F800000000E0FF7F0000000000FF0F007A
:1002200000000000000000000000000000000000CE
:1002300031363300322E3131006E616E00696E66E8
:100240000000407A10F35A00A0724E18090010A561
:10025000D4E80000E87648170000E40B54020000E0
:10026000CA9A3B000000E1F5050000809698000066
:100270000040420F000000A086010000001027008F
:10028000000000E803000000006400000000000A15
:1002900000000000000100000000002C76D888DC7F
:1002A000674F0823DFC1DFAE59E1B1B796E5E3E45C
:1002B00053C63AE651997696E8E6C28426EB898CD5
:1002C0009B62ED407C6FFCEFBC9C9F40F2BAA56F37
:1002D000A5F490055A2AF75C936B6CF9676DC11B06
:1002E000FCE0E40D47FEF520E6B500D0ED902E03CE
:1002F00000943577050080841E080000204E0A0017
:100300000000C80C333333330F986E12831141EF62
:100310008D2114893BE65516CFFEE6DB18D1844BC0
:10032000381BF77C1D901DA4BBE424203284725E30
:10033000228100C9F124ECA1E53D270011241FBE54
:10034000CFEFD0E1DEBFCDBF13E0A0E0B1E0EEE142
:10035000FFE200E00BBF02C007900D92A03CB10786
:10036000D9F714E0A0ECB3E001C01D92AE3AB1079A
:10037000E1F70E94B9030C948D170C940000909142
:10038000D5038091D603981711F480E008950E9458
:10039000F3010895982F8091D703883019F0892FA1
:1003A0000E940C0208950E94DD010E942902089516
:1003B00080E895E20E94D30108959C0140E050E05E
:1003C00084E0220F331F441F551F8A95D1F760E048
:1003D00074E284EF90E00E94A715215030403093E2
:1003E000900029B90895F8949091D503E92FF0E091
:1003F000EB53FC4FE0818091D603883011F4909349
:10040000D603892F8F5F8093D503883010F0109228
:10041000D50378948E2F0895282FF8948091D703D0
:10042000E82FF0E0E353FC4F20838F5F8093D703E6
:10043000883010F01092D7039091D7038091C403B5
:10044000981719F488E08093D703559A7894822FEF
:10045000089588EB8AB908951AB808951F920F92EB
:100460000FB60F920BB60F9211248F939F93EF93B9
:10047000FF939CB18091D6038830A9F0E82FF0E07B
:10048000EB53FC4F90838F5F8093D603883010F03E
:100490001092D6039091D6038091D503981719F442
:1004A00088E08093D603FF91EF919F918F910F90F9
:1004B0000BBE0F900FBE0F901F9018951F920F92BA
:1004C0000FB60F920BB60F9211248F939F93EF9359
:1004D000FF938091C4039091D703891791F0E82F7F
:1004E000F0E0E353FC4FE081983011F48093D703A0
:1004F0008F5F8093C403883010F01092C403ECB96E
:1005000001C05598FF91EF919F918F910F900BBE75
:100510000F900FBE0F901F901895CF92DF92EF9221
:10052000FF920F93CF93DF93C0E0D0E000E084E12F
:10053000C82ED12C23C07E010894E11CF11C81E35C
:10054000602F0E944F088091C0039091C1038C0FCF
:100550009D1F65E070E00E9494159C012C9DC001D8
:100560002D9D900D3C9D900D1124845E9E4F0E9408
:10057000D10C8AE090E00E944F06E701065F80916F
:10058000C2039091C303C817D907ACF2DF91CF9192
:100590000F91FF90EF90DF90CF900895FC01809134
:1005A000C2039091C3032091C0033091C103820F15
:1005B000931F65E070E00E94941524E130E0AC01E7
:1005C000429FC001439F900D529F900D1124845E65
:1005D0009E4FBF010E94C0168091C2039091C30339
:1005E0008530910534F401969093C3038093C20340
:1005F00009C08091C0039091C10301969093C103FB
:100600008093C0030E948D0208951F93CF93DF93C0
:10061000F8941AE081E3612F0E944F0880E091E096
:100620000E94D10C165F1C33A9F7CCE1D1E0CE01BA
:100630006EE071E00E94C016649681E0C038D80771
:10064000B1F77894DF91CF911F9108950E943B05F7
:100650000E94100880E060E00E944F0881E36CE394
:100660004CE850E00E9451090895EF92FF920F93D9
:100670001F93DF93CF93CDB7DEB764970FB6F8948F
:10068000DEBF0FBECDBF19821A821B821C82FE0103
:10069000359680E1DF011D928A95E9F70E94BA0E36
:1006A000EDB7FEB738970FB6F894FEBF0FBEEDBF9B
:1006B0000DB71EB70F5F1F4F7E010894E11CF11CA0
:1006C000F282E1828FE091E0D80113969C938E93A1
:1006D0001297609190047091910480E090E00E94E4
:1006E000EC0F29EB3CEF47E85CE30E947A102CEE1C
:1006F00031E548E95FE30E94870FF8016483758361
:10070000868397830E94FE168DB79EB708960FB614
:10071000F8949EBF0FBE8DBF81E360E00E944F083A
:10072000C7010E94D10C64960FB6F894DEBF0FBECD
:10073000CDBFCF91DF911F910F91FF90EF90089562
:100740000E94C20E78940E9476060E94270F0E9493
:1007500099050E94CE0E0E943F0E0E94DF140E9457
:1007600026030E94D80185E085BD87B7806487BFD6
:100770000895CF92DF92FF920F931F93DF93CF9351
:10078000CDB7DEB72E970FB6F894DEBF0FBECDBF44
:100790000E94A00319821A821B821C82FE013596D8
:1007A0008AE0DF011D928A95E9F700E010E06E0112
:1007B0000894C11CD11C0E94BF01F82E882309F1A6
:1007C000BDE08B1719F00D30110594F08AE090E030
:1007D0000E94CA018DE090E00E94CA010C0D1D1D0F
:1007E000F8011082C6010E94CE0200E010E009C0AC
:1007F00090E00E94CA01F601E00FF11FF0820F5F46
:100800001F4F84E690E00E944F060E943503D3CF2D
:100810001F930E94F10C80915204909153048050D8
:10082000974430F082E067E00E94D60E11E005C0E8
:1008300081E067E00E94D60E10E080915404909110
:1008400055048050974430F082E066E00E94D60E56
:1008500011E004C081E066E00E94D60E809156044B
:10086000909157048050974450F082E065E00E94D8
:10087000D60E82E064E00E94D60E11E008C081E04E
:1008800065E00E94D60E81E064E00E94D60E809161
:100890005804909159048050974430F082E063E00E
:1008A0000E94D60E11E004C081E063E00E94D60EE3
:1008B00080915A0490915B048050974428F082E024
:1008C00062E00E94D60E06C081E062E00E94D60E71
:1008D000112319F00E948D0D06C08EE090E06EE0AD
:1008E00070E00E94A90D1F9108951F920F920FB6FC
:1008F0000F920BB60F9211242F933F934F935F9358
:100900006F937F938F939F93AF93BF93EF93FF93D7
:100910000E940804FF91EF91BF91AF919F918F9139
:100920007F916F915F914F913F912F910F900BBEEF
:100930000F900FBE0F901F90189590916500282F73
:1009400030E080E0A9014170507020FF81E09E7F7F
:10095000982B90936500809165004115510511F425
:1009600090E001C092E08D7F892B8093650080919B
:10097000650021FD02C090E001C098E0877F892BCF
:1009800080936500809165008F7E809365008FEF76
:100990008ABB6BBB85E0982F9A95F1F79091650023
:1009A000946090936500982F9A95F1F79091650067
:1009B0009B7F909365008A95F1F71BBA1ABA089548
:1009C00090916500282F30E080E0A90141705070BF
:1009D00020FF81E09E7F982B9093650080916500B9
:1009E0004115510511F490E001C092E08D7F892BF3
:1009F000809365008091650021FD02C090E001C0F8
:100A000098E0877F892B80936500809165008061E5
:100A1000809365001ABA25E0822F8A95F1F78091BC
:100A2000650084608093650085E18A95F1F789B35C
:100A3000909165009B7F90936500922F9A95F1F7B6
:100A400008951F93CF93DF939091D803992371F06A
:100A5000182F1170CFEFDFEF812F0E94E004219754
:100A600087FD02C081E003C02097B1F780E0DF91ED
:100A7000CF911F9108958FEF8093D80380916400E8
:100A8000886080936400809164008061809364003A
:100A90008091640084608093640080916400816030
:100AA0008093640080916400826080936400B89AAF
:100AB0001ABA80916500877F8093650080916500F8
:100AC0008F7E80936500809165008B7F80936500A9
:100AD000809165008E7F80936500809165008D7F99
:100AE00080936500C098979B07C0979880EA9FE025
:100AF0000197F1F7979A04C080EA9FE00197F1F718
:100B0000C09A80E00E942105882351F081E00E9474
:100B10002105882311F082E001C081E08093D80391
:100B20008091D8038F3F11F41092D8038091D8039D
:100B300008951092E2031092E1031092DE031092E6
:100B4000DD031092E3031092E4031092E503109288
:100B5000E6031092DA031092D9031092DC0310928C
:100B6000DB038FEF93E09093E0038093DF03C5985E
:100B7000C698BD9ABE9ABF9AC79A1DBC1CBC8AEA89
:100B80008FBD82E18EBD80E094E097BD86BD87B7C2
:100B9000846087BF08951F920F920FB60F921124A1
:100BA0002F933F934F938F939F93AF93BF938091D6
:100BB000E1039091E2039C01285E3F4F3093E203F2
:100BC0002093E10343E0283E340778F0805D9340B2
:100BD0009093E2038093E1038091DD039091DE0323
:100BE00001969093DE038093DD038091DD03909165
:100BF000DE039C012F5F3F4F3093DE032093DD0324
:100C000043E0283E3407C8F0875E93409093DE03AC
:100C10008093DD038091E3039091E403A091E503C9
:100C2000B091E6030196A11DB11D8093E30390935B
:100C3000E403A093E503B093E6038091D903909178
:100C4000DA0323E08F3F920710F080E094E09BBD31
:100C50008ABD8091DB039091DC0343E08F3F9407D2
:100C600010F080E094E099BD88BD8091DF03909101
:100C7000E00323E08F3F920710F080E094E0909330
:100C8000790080937800BF91AF919F918F914F91A0
:100C90003F912F910F900FBE0F901F90189520EA53
:100CA0003FE004C0F9013197F1F701970097D1F7C0
:100CB00008951092230480930404982F9F5F9093CB
:100CC000060496E990932404F89403C078940000F5
:100CD000F894B09BFBCF90EC9DB98FB996E998271B
:100CE00090932204779A789480E00895B898C098F9
:100CF000BB9AC39A80E00E94590608951F920F92F2
:100D00000FB60F920BB60F9211242F933F934F9370
:100D10005F936F937F938F939F93AF93BF93EF9363
:100D2000FF939FB1209124042927209324048091CC
:100D300023048823B1F4909302049C3130F0109284
:100D400004041092020491E009C0492F50E0209160
:100D5000060430E042175307FCF09F5F90930604AF
:100D60001BC0482F50E06091020470E064177507C3
:100D70002CF04A5F5B4FFA0190830EC04150504007
:100D80004617570749F4222339F0909103049F5FD7
:100D9000909303041092020490910404891750F474
:100DA000E82FF0E0E951FC4F20812FB99091220407
:100DB000922711C0891731F4909122049FB91092A3
:100DC00022040BC090910604891758F49FEF9FB935
:100DD000909122049095909322048F5F8093230436
:100DE00011C0B898C0981DB8B898C09880910504F3
:100DF0008F5F809305047894809102040E94640EB2
:100E00000E945906FF91EF91BF91AF919F918F91F1
:100E10007F916F915F914F913F912F910F900BBEFA
:100E20000F900FBE0F901F90189580912804089581
:100E3000809131040895809325040895982F90524D
:100E4000903608F080E8805290E0FC01EE0FFF1F22
:100E5000E80FF91FEE0FFF1FE058FE4F90818091C1
:100E60002704882309F49FE180E020E090FD8F5F54
:100E70002F5F253011F09695F9CF08951F93CF93EA
:100E8000DF93EC0110E005C021960E941E078F5FE2
:100E9000180F88818823C1F7812FDF91CF911F918F
:100EA00008951F93CF93DF93EC0110E007C02196C4
:100EB000F90184910E941E078F5F180F9E01FE01A9
:100EC00094919923A1F7812FDF91CF911F910895DC
:100ED000809327040895809127040895863130F483
:100EE000683020F4609326048093320408950F93B1
:100EF0001F93DF93CF930F92CDB7DEB7182F6854AF
:100F0000883018F580E069830E94210580E06981BE
:100F10000E949D0480E00E942105612F660F660FEC
:100F2000660F605C80E00E949D0409E214E082E0AC
:100F30000E94210582E0F80161918F010E949D04C9
:100F4000F4E001331F0799F723C0185081E069834B
:100F50000E94210581E069810E949D0481E00E9438
:100F60002105612F660F660F660F605C81E00E94AD
:100F70009D0409E214E083E00E94210583E0F8016A
:100F800061918F010E949D04F4E001331F0799F7DE
:100F90000F90CF91DF911F910F910895FF920F93C2
:100FA0001F93F82E18EB80E00E94210581E00E943B
:100FB000210580E0612F0E949D0481E0612F0E9445
:100FC0009D0400E082E00E94210583E00E9421054B
:100FD00082E06F2D0E949D0483E06F2D0E949D048E
:100FE0000F5F003479F71F5F103CE9F680E00E9444
:100FF000210581E00E94210580E068EB0E949D04AC
:1010000081E068EB0E949D041F910F91FF9008956D
:1010100080E00E94CE0710922604109232040895B8
:1010200080E00E94210580E06FE30E949D0480E043
:101030000E94210580E060EC0E949D0480E00E94F7
:10104000210580E060E40E949D0480E00E9421056B
:1010500080E068EB0E949D0481E00E94210581E010
:101060006FE30E949D0481E00E94210581E060EC15
:101070000E949D0481E00E94210581E060E40E94BD
:101080009D0481E00E94210581E068EB0E949D049F
:1010900080E00E94CE0781E08093250408950F939D
:1010A0001F93182F062F809328046093310480E04B
:1010B0000E94210581E00E9421050695069506956E
:1010C000085480E0602F0E949D0481E0602F0E9400
:1010D0009D0480E00E94210581E00E9421051134D9
:1010E00038F080E060E40E949D0481E0612F07C039
:1010F000612F605C80E00E949D0481E060E40E94BA
:101100009D041F910F910895EF92FF920F931F93EB
:10111000CF93DF9319EB47C00830E8F480E00E94DA
:10112000210580E0612F0E949D0480E00E9421053E
:101130006F2D605C80E00E949D0482E00E94E004CC
:10114000C9E2D4E082E00E94E004899384E0C133E4
:10115000D807C1F71BC081E00E94210581E0612F03
:101160000E949D0481E00E94210581E06F2D0E9474
:101170009D0483E00E94E004C9E2D4E083E00E9481
:10118000E004899384E0C133D807C1F7802F6E2D26
:101190000E9477070F5F88E0F80E003109F0BCCF9E
:1011A0001F5F103C31F0FF2400E037E4E32EE10E36
:1011B000B3CFE9E2F4E0119284E0E133F807D9F724
:1011C00010E0812F67E00E9477071F5F1031C9F799
:1011D00080912604882319F0815080932604DF91A2
:1011E000CF911F910F91FF90EF900895EF92FF9292
:1011F0000F931F93E82E162F8091280487FD39C086
:1012000000E0803408F001E0802F0E94210542E0D8
:10121000F42EF00E8F2D0E94E0048F2D0E94E0042A
:101220009091250492FF02C0E0949B7FE1229923D4
:1012300019F41E2D182B08C0913021F41095182395
:101240001E2902C01E2D1827802F0E9421056091A3
:1012500028046064802F0E949D04802F0E94210535
:101260008F2D612F0E949D04809128048F5F8093B1
:1012700028041F910F91FF90EF90089590913104F1
:10128000977061E070E002C0660F771F9A95E2F7F1
:10129000882311F0862F02C0862F60E00E94F60896
:1012A00008952F923F924F925F926F927F928F920A
:1012B0009F92AF92BF92CF92DF92EF92FF920F93E5
:1012C0001F93DF93CF9300D000D000D0CDB7DEB70F
:1012D000082F162F5A83498360902804E090310428
:1012E0008E2D87702FEF30E0F22E01C0FF0C8A9513
:1012F000EAF7802F90E0019768E070E00E94941573
:101300006F5FA62EBB24C50173E0880F991F7A95E5
:10131000E1F744245524481A590ACC2468E0762E73
:101320005FEF852E912CBC82AB8271C08E2D8770B1
:10133000D72CD81A1D1548F48D2D811B940102C09D
:10134000359527958A95E2F7F2228D2D8C0D90E048
:101350008A9D10018B9D300C9A9D300C112480E0E9
:1013600090E09E838D8343C04D815E8147705070B5
:101370004115510571F5E695E695E695C1018E0F8B
:10138000911DFC01A981BA81EA0FFB1FE40DF51D37
:1013900020E030E06D817E819491A9E2B4E08C91EF
:1013A00086958C9390FF02C080688C93119684E0A0
:1013B000A133B80711F09695F2CF2F5F3F4F283039
:1013C000310529F0AB81BC81EA0FFB1FE5CF7E839D
:1013D0006D83475D5B4FFA0180818F216F2D0E94E5
:1013E000F6082D813E812F5F3F4F3E832D83ED8197
:1013F000E01708F4B9CF1D1508F4D12E1D19ED0C16
:10140000CD0C862D6E2D0E944F08FF24FA941123D7
:1014100009F08CCF26960FB6F894DEBF0FBECDBF75
:10142000CF91DF911F910F91FF90EF90DF90CF90C0
:10143000BF90AF909F908F907F906F905F904F90F4
:101440003F902F9008952F923F924F925F926F920C
:101450007F928F929F92AF92BF92CF92DF92EF9244
:10146000FF920F931F93DF93CF9300D000D000D053
:10147000CDB7DEB7082F162F5A8349836090280412
:10148000E09031048E2D87702FEF30E0F22E01C0F6
:10149000FF0C8A95EAF7802F90E0019768E070E0F2
:1014A0000E9494156F5FA62EBB24C501A3E0880F90
:1014B000991FAA95E1F744245524481A590ACC24C7
:1014C000F8E07F2EEFEF8E2E912CBC82AB8271C0A4
:1014D0008E2D8770D72CD81A1D1548F48D2D811BA1
:1014E000940102C0359527958A95E2F7F2228D2D59
:1014F0008C0D90E08A9D10018B9D300C9A9D300CD4
:10150000112480E090E09E838D8343C04D815E81F5
:10151000477050704115510571F5E695E695E695D1
:10152000C1018E0F911DFC01A981BA81EA0FFB1F39
:10153000E40DF51D20E030E06D817E819081A9E20F
:10154000B4E08C9186958C9390FF02C080688C9358
:10155000119684E0A133B80711F09695F2CF2F5F72
:101560003F4F2830310529F0AB81BC81EA0FFB1FCA
:10157000E5CF7E836D83475D5B4FFA0180818F21CC
:101580006F2D0E94F6082D813E812F5F3F4F3E83D5
:101590002D83ED81E01708F4B9CF1D1508F4D12E85
:1015A0001D19ED0CCD0C862D6E2D0E944F08FF24C9
:1015B000FA94112309F08CCF26960FB6F894DEBF6B
:1015C0000FBECDBFCF91DF911F910F91FF90EF9094
:1015D000DF90CF90BF90AF909F908F907F906F9053
:1015E0005F904F903F902F900895AF92BF92CF920F
:1015F000DF92EF92FF920F931F93CF93DF93A82E6A
:10160000162FB0902804F09031048F2D87702FEFA3
:1016100030E0022F01C0000F8A95EAF7B8E0CB2E28
:10162000CFEFD0E022C08F2D8770EC2CE81A1E156A
:1016300048F48E2D811B9E0102C0359527958A9511
:10164000E2F70223DA2C05C0802F602F0E94F608F3
:10165000DA94DD20C9F71E1508F4E12E1E19FE0CE0
:101660008B2D6F2D0E944F080FEF1123E1F6DF91B4
:10167000CF911F910F91FF90EF90DF90CF90BF908F
:10168000AF900895682F81E00E94F50A08950F93A6
:101690001F93182F80913104877021E030E0022FD2
:1016A00001C0000F8A95EAF705C0802F602F0E94C5
:1016B000F60811501123C9F71F910F9108959F92B9
:1016C000AF92BF92CF92DF92EF92FF920F931F9350
:1016D000082F162FF0902804E09031048F1561F444
:1016E000E61618F4862F8E1904C00E944F088E2D1E
:1016F000811B0E94420B5EC0DE2C6E1559F4F81659
:1017000010F48F1904C00E944F088F2D801B0E9477
:10171000470B50C08F1528F4AF2CA81A99249A941F
:1017200009C0F81618F09924AA2404C0A82EAF18EE
:10173000992493941E1528F4BE2CB11ACC24CA9473
:1017400009C0E11618F0CC24BB2404C0B12EBE1889
:10175000CC24C39481E00E943E09BA14B0F4EA2C70
:10176000E694E194F90CEB0C1E1414F4EA18DC0C6A
:101770008F2D6D2D0E944F0881E00E943E09F90CCB
:101780008F2D8919801779F715C0DB2CD694D19449
:10179000EC0CDA0C1D1414F4DB18F90C8F2D6E2DE3
:1017A0000E944F0881E00E943E09EC0C8E2D8C199E
:1017B000811779F7802F612F0E944F081F910F9199
:1017C000FF90EF90DF90CF90BF90AF909F900895E3
:1017D0008F929F92AF92BF92CF92DF92EF92FF9241
:1017E0000F931F93CF93DF93062F982F905290362D
:1017F00008F080E8805296E0899FE0011124C058EB
:10180000DE4F188180912704882309F41FE1E02E20
:10181000FF24E7FCF0948FEF90E06C010E2C02C0E7
:10182000CC0CDD1C0A94E2F7AA24BB24AE18BF0836
:101830000A2C02C0959587950A94E2F7D82E85E088
:10184000882E912C8C0E9D1E10FF16C0898107FDDD
:1018500009C090E00E2C02C0880F991F0A94E2F78D
:101860006C2D08C090E00A2C02C0959587950A94CB
:10187000E2F76D2D0E94F6082196C815D90511F0E2
:101880001695E2CF07FD03C080E06C2D02C080E01A
:101890006D2D0E94F608DF91CF911F910F91FF905F
:1018A000EF90DF90CF90BF90AF909F908F90089572
:1018B000FF920F931F93082FF0902804109131048A
:1018C0001770612F0E94E80B112391F06091310491
:1018D000685F8F2D0E944F08612F6850802F0E94F3
:1018E000E80B609131046850809128040E944F08F1
:1018F0001F910F91FF9008951F93CF93DF93EC01F9
:101900001092270436C01A3069F410923204809184
:1019100026048F5F80932604883059F581E00E9469
:10192000840827C01D3029F180913204853160F090
:1019300010923204809126048F5F809326048830B1
:1019400019F481E00E94840890913204892F880F55
:10195000890F60912604660F660F660F880F0E943C
:101960004F08812F0E94580C809132048F5F809322
:1019700032041991112339F6DF91CF911F91089507
:10198000CF93DF93EC0105C02196F90184910E9469
:10199000580C9E01FE0194919923B1F7DF91CF91EC
:1019A0000895CF93DF93EC0103C021960E94580C59
:1019B00088818823D1F7DF91CF91089590E0282F77
:1019C00030E0F90183E0EE0FFF1F8A95E1F7E21B9B
:1019D000F30BE75CFB4F80818F3F09F091E0892F8B
:1019E0000895F8949091710480E0E1E7F4E0229189
:1019F000820F911D9093530480935204938180E051
:101A00002281820F911D90935504809354049581F7
:101A100080E02481820F911D909357048093560497
:101A2000978180E02681820F911D909359048093C5
:101A30005804918580E02085820F911D90935B046E
:101A400080935A047894F89420917A048091350414
:101A500090913604820F911D30917B0420E0820F1B
:101A6000931F90934F0480934E0420917C048091A7
:101A7000330490913404820F911D30917D0420E055
:101A8000820F931F909367048093660490917F0464
:101A900080E020917E04820F911D90938F048093AB
:101AA0008E049091810480E020918004820F911D2A
:101AB00090936504809364049091830480E0209166
:101AC0008204820F911D9093380480933704909183
:101AD000850480E020918404820F911D90936F040F
:101AE00080936E047894F8949091880480E020911B
:101AF0008704820F911D909351048093500490911C
:101B00008A0480E020918904820F911D90938C04B7
:101B100080938B04789481E00895F89481E0809319
:101B2000390478940895F8948AE08093390478947D
:101B300081E00895F89425E02093390480933A04D5
:101B400090933B0460933C0470933D04789481E04F
:101B50000895F89422E02093390480933A049093F6
:101B60003B0460933C0470933D04789481E00895B5
:101B70002091350430913604FC01E21BF30B9F01E8
:101B80008091330490913404681B790BF89483E0BE
:101B900080933904E0933A0430933B0460933C040F
:101BA00070933D0440933E0450933F04789481E049
:101BB0000895F89424E02093390480933A04909394
:101BC0003B0460933C0470933D0440933E04509367
:101BD0003F04789481E0089578949091470420E13F
:101BE00037E22150304011F09F3FD9F7F89496E04A
:101BF00090934704809348046093490440934A04B7
:101C0000789481E0089581E00895F89430917D04FE
:101C100020E040917C04F901E40FF11DAF01309107
:101C20007B0420E0E0917A042E0F311DFC01E21BC1
:101C3000F30BF0933604E09335049B01241B350B22
:101C4000309334042093330490934F0480934E04D4
:101C50007093670460936604789481E008957894A3
:101C60002091400480E197E2019711F02F3FE1F7C6
:101C7000F89488E080934004789481E00895789403
:101C80002091400480E197E2019711F02F3FE1F7A6
:101C9000F89487E080934004789481E008957894E4
:101CA0004091400420E137E22150304011F04F3F95
:101CB000D9F7F89429E0209340048093410490934D
:101CC0004204789481E0089590918D049F5F9093F1
:101CD0008D048B3141F4A0E7B4E0E7E0F4E001903B
:101CE0000D928150E1F78FEF8093F5038093EE031F
:101CF0008093E703809139048F3F11F480E00DC099
:101D0000A7EEB3E0E9E3F4E087E001900D928150A3
:101D1000E1F78FEF8093390487E0909140049F3F73
:101D200079F0E82FF0E0E951FC4FA0E4B4E097E04F
:101D30000D9001929150E1F79FEF90934004895FDD
:101D4000909147049F3F81F0E82FF0E0E951FC4F6C
:101D5000A7E4B4E087E00D9001928150E1F78FEFA6
:101D60008093470485E10895882311F487E008955E
:101D700085E1089587E00E94640F90939104809319
:101D8000900408958F9A97988AE090E00E944F06F9
:101D9000979A84E690E00E944F060895BF9AC79AEA
:101DA000BD9ABE9A8FEF82B984BB0895482F80FFF9
:101DB0000BC095B321E030E0062E02C0220F331F86
:101DC0000A94E2F7922B0CC085B321E030E0062E96
:101DD00002C0220F331F0A94E2F7922F90959823A6
:101DE00095BB41FF0AC083B121E030E002C0220F61
:101DF000331F6A95E2F7822B0AC023B181E090E09D
:101E000002C0880F991F6A95E2F78095822383B9F3
:101E100008959093E0038093DF0308958091DF039A
:101E20009091E00308959093DA038093D903089585
:101E30008091D9039091DA0308959093DC03809305
:101E4000DB0308958091DB039091DC030895BC9A35
:101E5000089545E322C0C498282F392F0AC0615045
:101E60007040542F5A95F1F76115710529F02150F2
:101E700030402115310599F7C49A282F392F07C012
:101E80006150704021503040542F5A95F1F7611540
:101E9000710519F02115310599F761157105D9F60C
:101EA0000895E1E6F0E0908121E030E002C0220FE9
:101EB000331F8A95E2F7209592239083E2E6F0E0C3
:101EC000808182238083089590E497B997B18770C9
:101ED000892B87B987EC86B901C000003699FDCF00
:101EE00084B195B1392F20E0280F311D80919204E3
:101EF00090919304820F931F909393048093920484
:101F0000C9010895809192049091930408955058C6
:101F1000BB27AA270ED0B4C0A5D030F0AAD020F09D
:101F200031F49F3F11F41EF49AC00EF4E095E7FBE4
:101F300090C0E92FB6D080F3BA1762077307840701
:101F4000950718F071F49EF5CEC00EF4E0950B2EB7
:101F5000BA2FA02D0B01B90190010C01CA01A001FB
:101F60001124FF27591B99F0593F50F4503E68F156
:101F70001A16F040A22F232F342F4427585FF3CF97
:101F8000469537952795A795F0405395C9F77EF468
:101F90001F16BA0B620B730B840BBAF09150A1F0B1
:101FA000FF0FBB1F661F771F881FC2F70EC0BA0F37
:101FB000621F731F841F48F4879577956795B795BF
:101FC000F7959E3F08F0B3CF9395880F08F09927B7
:101FD000EE0F979587950895E89409C097FB3EF416
:101FE00090958095709561957F4F8F4F9F4F992366
:101FF000A9F0F92F96E9BB279395F69587957795E4
:102000006795B795F111F8CFFAF4BB0F11F460FFA3
:102010001BC06F5F7F4F8F4F9F4F16C0882311F0FB
:1020200096E911C0772321F09EE8872F762F05C00F
:10203000662371F096E8862F70E060E02AF09A95AA
:10204000660F771F881FDAF7880F9695879597F99F
:10205000089597F99F6780E870E060E008959FEF2A
:1020600080EC089500240A9416161706180609062F
:10207000089500240A9412161306140605060895FE
:10208000092E0394000C11F4882352F0BB0F40F486
:10209000BF2B11F460FF04C06F5F7F4F8F4F9F4FC6
:1020A000089557FD9058440F551F59F05F3F71F048
:1020B0004795880F97FB991F61F09F3F79F08795AF
:1020C0000895121613061406551FF2CF4695F1DF38
:1020D00008C0161617061806991FF1CF86957105C8
:1020E000610508940895E894BB2766277727CB01FC
:1020F00097F908950BD0C4CFB5DF28F0BADF18F0F8
:10210000952309F0A6CFABCF1124EECFCADFA0F301
:10211000959FD1F3950F50E0551F629FF001729F7C
:10212000BB27F00DB11D639FAA27F00DB11DAA1F9B
:10213000649F6627B00DA11D661F829F2227B00DE8
:10214000A11D621F739FB00DA11D621F839FA00D73
:10215000611D221F749F3327A00D611D231F849FC3
:10216000600D211D822F762F6A2F11249F5750401A
:102170008AF0E1F088234AF0EE0FFF1FBB1F661FB5
:10218000771F881F91505040A9F79E3F510570F06E
:1021900060CFAACF5F3FECF3983EDCF3869577954E
:1021A0006795B795F795E7959F5FC1F7FE2B880F69
:1021B000911D9695879597F908952F923F924F928A
:1021C0005F926F927F928F929F92AF92BF92CF92C7
:1021D000DF92EF92FF920F931F93DF93CF93CDB7D0
:1021E000DEB761970FB6F894DEBF0FBECDBF3C01DE
:1021F0007F876E876A01FC0117821682838181FDC9
:1022000003C06FEF7FEF71C39E012F5F3F4F398B8C
:10221000288BF3012381EE85FF8523FD859123FF24
:102220008191FF87EE87882309F45CC3853251F4DE
:10223000EE85FF8523FD859123FF8191FF87EE8742
:10224000853229F490E0B3010E94D216E2CF982F94
:1022500010E0882499241032B0F49B3269F09C324B
:1022600028F4903251F0933271F40BC09D3239F062
:10227000903349F4116028C01260146025C01860C2
:1022800023C0106121C017FD2AC0892F80538A30D6
:1022900078F416FF06C0FAE09F9E902C1124980E49
:1022A00013C03AE0839E802C1124880E10620CC06B
:1022B0009E3221F416FD16C3106406C09C3611F43C
:1022C000106802C0983659F4EE85FF8523FD95917C
:1022D00023FF9191FF87EE87992309F0BCCF892FC7
:1022E0008554833020F4812F8061905E07C0892F50
:1022F0008556833008F0A1C1812F8F7E86FD02C0F4
:1023000076E0972E6FE3F62EF822953619F4F0E476
:10231000FF2A07C0963619F420E8F22A02C091106D
:102320009A94F7FE0BC03BE3391520F427E05CE3F9
:10233000B52E0EC0B92CB39427E00AC047E049156A
:1023400028F427E0BB2447E0942E02C0292DBB24AB
:10235000C60104969D878C87F60160817181828118
:102360009381AE014F5F5F4F0B2D0E94DD156C0115
:102370000981202E332400FF04C003FD02C01DE2AA
:1023800009C0F1FE02C01BE205C0F2FC02C010E071
:1023900001C010E2C1018C709070892BB9F111233A
:1023A00011F483E001C084E0881510F088240AC08D
:1023B000881AF3FC07C080E290E0B3010E94D216B5
:1023C0008A94C9F7112329F0812F90E0B3010E946C
:1023D000D21623FE03C009E312E00EC00DE312E0A3
:1023E0000BC0E114F10409F0805290E0B3010E94A7
:1023F000D2160F5F1F4F05C0EF2CFF24F0E1EF2234
:10240000FF24F8018491882361F714C1F7FE12C0FC
:10241000BC0C24FE04C08A81813309F4BA941B14D5
:102420001CF0BB24B3942DC0F8E0FB1550F538E048
:10243000B32E27C0F6FC25C0892D90E08C159D0594
:102440004CF02CEFC2162FEFD20624F030E8F32A1E
:1024500001C09A94992049F0E2E0F0E0EC0FFD1FF2
:10246000E90DF11D80818033A1F3F7FE0AC0B92C7C
:10247000B394892D90E0C816D90614F0992401C0B0
:102480009C18F7FC03C025E030E009C01C141D04B3
:102490001CF021E030E003C096012F5F3F4F112375
:1024A00011F02F5F3F4F992029F0892D90E0019680
:1024B000280F391F882D90E02817390714F0882439
:1024C00001C0821A4F2C5524C20189709070892B4B
:1024D00039F008C080E290E0B3010E94D2168A94DD
:1024E0008820C1F7112329F0812F90E0B3010E94C9
:1024F000D21643FE07C008C080E390E0B3010E94FB
:10250000D2168A948820C1F7F7FE46C08601D7FE0E
:1025100002C000E010E076010894E11CF11CE01A12
:10252000F10A41E050E04C0F5D1FE40EF51E26015C
:102530004B185108892D90E0AA24BB24A81AB90A87
:102540005FEF0F3F150729F48EE290E0B3010E9480
:10255000D216C016D10634F0401651061CF4F7010D
:10256000808101C080E3015010400894E11CF11CFF
:102570000A151B052CF090E0B3010E94D216E0CFA3
:102580000C151D0539F49A81963318F4953311F41E
:1025900024FE81E390E04BC08A81813309F00F7EF5
:1025A00090E0B3010E94D2169920A1F08EE290E053
:1025B000B3010E94D21612E0E1E0F0E0EC0FFD1F43
:1025C000E10FF11D1F5F808190E0B3010E94D216E0
:1025D0009A9491F744FC03C085E690E002C085E43C
:1025E00090E0B3010E94D216D7FC05C0C114D104FB
:1025F00041F404FF06C0D094C194D108D3948DE275
:1026000001C08BE290E0B3010E94D21680E305C0C6
:102610008F5F26EF3FEFC20ED31E3AE0C316D10400
:10262000BCF790E0B3010E94D216C601C096B30178
:102630000E94D216CC84DD8452C1933631F0933798
:1026400099F0933509F059C023C0F6018081898340
:102650005E010894A11CB11C22E030E0C20ED31E22
:1026600021E0E22EF12C12C0F601A080B18016FD0F
:1026700003C06FEF7FEF02C0692D70E022E030E011
:10268000C20ED31EC5010E94C7167C011F7713C05E
:10269000F601A080B18016FD03C06FEF7FEF02C08E
:1026A000692D70E022E030E0C20ED31EC5010E9409
:1026B000B5167C01106813FF07C01BC080E290E0D4
:1026C000B3010E94D2168A94882D90E0E816F9068C
:1026D000A8F30FC0F50117FD859117FF81915F01E8
:1026E00090E0B3010E94D21681108A940894E10808
:1026F000F108E114F10471F7F2C0943611F0993643
:1027000089F517FF08C0F60120813181428153818C
:1027100084E090E00AC0F601808191819C01442709
:1027200037FD4095542F82E090E0C80ED91E9FE6F9
:10273000F92EF12257FF09C050954095309521950B
:102740003F4F4F4F5F4F90E8F92ACA01B901AE01E0
:102750004F5F5F4F2AE030E00E942F17E82EE88994
:10276000EE1A41C0953721F41F7E2AE030E01CC0EC
:10277000197F9F3661F0903720F4983509F0B2C088
:102780000FC0903739F0983709F0ACC004C028E08A
:1027900030E00AC0106114FD146020E130E004C094
:1027A00014FD166020E132E017FF08C0F6016081D9
:1027B00071818281938144E050E008C0F6018081FC
:1027C0009181BC0180E090E042E050E0C40ED51E53
:1027D000AE014F5F5F4F0E942F17E82E5889E51A10
:1027E0008FE7F82EF122F6FE0BC08EEFF822E914E7
:1027F00038F4F4FE07C0F2FC05C09FEEF92202C0D7
:102800001E2D01C0192DF4FE0DC0FE01EE0DF11DAF
:102810008081803319F4E9EEFE2208C01F5FF2FECA
:1028200005C003C08F2D867809F01F5F0F2DF3FCC4
:1028300014C0F0FE0FC0181510F09E2C0BC09E2C7B
:10284000980C911A182D06C080E290E0B3010E9406
:10285000D2161F5F1815C0F304C0181510F4811AA2
:1028600001C0882404FF0FC080E390E0B3010E9400
:10287000D21602FF1DC001FD03C088E790E00EC024
:1028800088E590E00BC0802F867891F001FF02C0B0
:102890008BE201C080E2F7FC8DE290E0B3010E9480
:1028A000D21606C080E390E0B3010E94D2169A943B
:1028B000E914C0F3EA94E1E0F0E0EC0FFD1FEE0D47
:1028C000F11D808190E0B3010E94D216EE2091F7B5
:1028D00006C080E290E0B3010E94D2168A9488205C
:1028E000C1F797CCF30166817781CB0161960FB672
:1028F000F894DEBF0FBECDBFCF91DF911F910F9136
:10290000FF90EF90DF90CF90BF90AF909F908F900F
:102910007F906F905F904F903F902F900895F89424
:102920008091A804882311F481E105C0809174008E
:1029300084FF05C082E18093A80480E015C08091E7
:10294000740085FF07C01092740084E080937400C7
:1029500088E1F1CF1092A8048091AB048093A90480
:1029600085EA8093740081E07894089580E197E28D
:1029700035E00DC02091740020FD06C02091740048
:1029800024FD02C081E00895232F2A95F1F70197D5
:102990002FEF8F3F920771F7F8941092740084E044
:1029A000809374008091A804803118F483E18093AF
:1029B000A804789480E008958091A8040895E4E73D
:1029C000F0E0108288E4809370008FEF80937300B2
:1029D00084E0808381E08093A80408951F920F9281
:1029E0000FB60F920BB60F9211242F933F938F9334
:1029F0009F93EF93FF9380917100887F8093AA0447
:102A0000883251F1893288F4803121F1813138F4F2
:102A1000882309F471C0883009F073C01BC0883165
:102A2000D9F0803209F06DC067C0803409F442C02B
:102A3000813438F4803309F45FC0883309F061C011
:102A400056C0803559F1883509F442C0883409F000
:102A500058C052C01092AC049091AC048091A9046B
:102A6000981768F48091AC04E82FF0E0EC56FB4F27
:102A700090818F5F8093AC049093730027C0809106
:102A8000AD04882369F18091AD048093A9048091FD
:102A9000940481608093940485EA26C08091AC04FC
:102AA00090917300E82FF0E0EC56FB4F90838F5F1E
:102AB0008093AC048091AC042091A90490E001962D
:102AC00030E08217930714F485EC0EC085E80CC043
:102AD000E091AC0480917300F0E0EC56FB4F8083F2
:102AE00082E08093A80484E98093740010C084E895
:102AF0008093740085E109C084E98093740086E1C5
:102B000004C084E88093740087E18093A804FF9157
:102B1000EF919F918F913F912F910F900BBE0F904E
:102B20000FBE0F901F90189597FB092E07260AD00D
:102B300077FD04D02ED006D000201AF47095619550
:102B40007F4F0895F6F7909581959F4F0895A1E2E4
:102B50001A2EAA1BBB1BFD010DC0AA1FBB1FEE1F17
:102B6000FF1FA217B307E407F50720F0A21BB30B62
:102B7000E40BF50B661F771F881F991F1A9469F7DE
:102B800060957095809590959B01AC01BD01CF013A
:102B90000895AA1BBB1B51E107C0AA1FBB1FA617A4
:102BA000B70710F0A61BB70B881F991F5A95A9F7F6
:102BB00080959095BC01CD010895283008F027E05C
:102BC0003327DA01990F311D87FD91600096610569
:102BD000710539F432602E5F3D9330E32A95E1F7B9
:102BE00008959F3F30F080387105610509F03C5F22
:102BF0003C5F3D93913008F08068911DDF93CF9347
:102C00001F930F93FF92EF92192F987F9695E92FBC
:102C100096959695E90FFF27E556FD4F992733279F
:102C2000EE24FF24A701E70105900894079428F4F7
:102C3000360FE71EF81E491F511D660F771F881FAC
:102C4000991F0694A1F70590079428F4E70EF81E43
:102C5000491F561FC11D770F881F991F661F0694B5
:102C6000A1F70590079428F4F80E491F561FC71FB7
:102C7000D11D880F991F661F771F0694A1F7059035
:102C8000079420F4490F561FC71FD81F990F661FBE
:102C9000771F881F0694A9F784911095177041F04B
:102CA000D695C79557954795F794E7941A95C1F728
:102CB000E1E4F2E068941590159135916591959154
:102CC00005907FE27395E118F10A430B560BC90B8F
:102CD000D009C0F7E10CF11E431F561FC91FD01DBC
:102CE0007EF4703311F48A95E6CFE894015030F009
:102CF000080F0AF40027021708F4202F2395022F4B
:102D00007A3328F079E37D932A95E9F710C07D9313
:102D10002A9589F606949795679537951795179490
:102D2000E118F10A430B560BC90BD00998F0239513
:102D30007E9173957A3308F070E37C932013B8F793
:102D40007E9170617D9330F0839571E37D9370E3A4
:102D50002A95E1F71124EF90FF900F911F91CF91E9
:102D6000DF91992787FD90950895FC0105906150AA
:102D700070400110D8F7809590958E0F9F1F089591
:102D8000FB01DC0101900D920020E1F70895FC01A8
:102D90006150704001900110D8F7809590958E0F8A
:102DA0009F1F08950F931F93CF93DF938C01EB0127
:102DB0008B8181FF1BC082FF0DC02E813F818C81E2
:102DC0009D812817390764F4E881F9810193F9831B
:102DD000E88306C0E885F985802F0995892B31F4B1
:102DE0008E819F8101969F838E8302C00FEF1FEF1C
:102DF000C801DF91CF911F910F9108950F931F93F9
:102E0000DF93CF93CDB7DEB72E970FB6F894DEBF22
:102E10000FBECDBF0D891E8986E08C831A8309837E
:102E20008FEF9FE79E838D839E01275E3F4FCE01EC
:102E300001966F89788DA9010E94DD102F81388558
:102E4000020F131FF80110822E960FB6F894DEBF02
:102E50000FBECDBFCF91DF911F910F910895FA0161
:102E6000AA27283051F1203181F1E8946F936E7FC9
:102E70006E5F7F4F8F4F9F4FAF4FB1E03ED0B4E0BA
:102E80003CD0670F781F891F9A1FA11D680F791FFB
:102E90008A1F911DA11D6A0F711D811D911DA11D0C
:102EA00020D009F468943F912AE0269F112430191C
:102EB000305D3193DEF6CF010895462F4770405DB7
:102EC0004193B3E00FD0C9F7F6CF462F4F70405D66
:102ED0004A3318F0495D31FD4052419302D0A9F7C1
:102EE000EACFB4E0A6959795879577956795BA95BB
:102EF000C9F700976105710508959B01AC010A2E81
:102F000006945795479537952795BA95C9F7620F57
:0E2F1000731F841F951FA01D0895F894FFCF16
:102F1E0020202020202020202020202020000056AD
:102F2E0043433A2025322E31662056000000000021
:102F3E000000000000000000000000000000000083
:102F4E000000000000000000000000000000000073
:102F5E000000000000000000000000000000000063
:102F6E000000000000000000000000000000000053
:102F7E000000000000000000000000000000000043
:102F8E000000000000000000000000000000000033
:102F9E000300000000000400005F00000E000700A8
:102FAE0007001F147F147F141F242A7F2A121F2349
:102FBE00130864621F3649552250060005030000AF
:102FCE000E001C2241000E0041221C001F14083E60
:102FDE0008141F08083E08080600A06000000F082D
:102FEE00080808080600606000000E00601C030060
:102FFE001F3E5149453E0E00427F40001F42615127
:10300E0049461D2141454B311F1814127F101D27B3
:10301E0045454539173C4A4949301E01710905039A
:10302E001D36494949361D064949291E06003636C0
:10303E0000000600AC6C00000F08142241000F14B3
:10304E00141414141E00412214081F020151090603
:10305E001F324979413E1F7C1211127C177F49495C
:10306E004936173E414141221F7F4141221C177FA5
:10307E0049494941177F09090901173E4149497AD2
:10308E00177F0808087F0E00417F41001F20404136
:10309E003F011F7F08142241177F404040401F7F91
:1030AE00020C027F1F7F0408107F173E4141413EF4
:1030BE00177F09090906173E414141BE1D7F0919B7
:1030CE0029461746494949311F01017F0101173F22
:1030DE004040403F1F1F2040201F1F3F4038403FB1
:1030EE001F63140814631F07087008071F615149F6
:1030FE0045430E007F4141000E00031C60000E0090
:10310E0041417F000E04020102041F404040404036
:10311E000C0000030400172054545478177F4844C1
:10312E0044381738444444201D384444487F1738E7
:10313E005454541817087E0901021718A4A4A47831
:10314E00177F080404780E00447D40000D408084F3
:10315E007D000F7F102844000E00417F40001F7C31
:10316E0004780478177C08040478173844444438EB
:10317E0017FC242424181718242424FC177C080474
:10318E00040817485454542017043F4440201D3C53
:10319E004040207C1F1C2040201C1F3C4030403CE7
:1031AE001F4428102844171CA0A0A07C1F44645460
:1031BE004C440E00083641000400007F00000E0053
:1031CE00413608001F02010204021FAA55AA55AA81
:00000001FF
