:100000000C949E010C94BD010C94BD010C94BD0197
:100010000C94BD010C94BD010C94BD010C94BD0168
:100020000C94BD010C94BD010C94CD020C94BD0147
:100030000C94BD010C94BD010C9437040C94BD01CB
:100040000C94BD010C94EA040C94BD010C94BD0108
:100050000C94BD010C94BD010C94BD010C94BD0128
:100060000C94BD010C94BD010C94BD010C94BD0118
:100070000C94BD010C94BD010C94BD010C94BD0108
:100080000C94BD010C94BD010C94BD010000000056
:100090000000000000000000000000000000000060
:1000A0000000000000000000008056010002000077
:1000B000FEFFFF030300C0FFFFFFBF0100E00F00D2
:1000C000C4FF0100E0030000F00300E07F0000E057
:1000D0000300C0FCFFFFFF0300C081FFFFBF010062
:1000E00080030000DF010000030080FB0000000728
:1000F00000C07F0000000E00C03F0000000C00E0C8
:100100003F0000001C00F80F0000003800DC0E006B
:1001100000007000FC07000000E000FE030000008B
:10012000C080FF01000000C0C1FF0000000080E3AC
:100130003C0000000000E73F0000000000E60F0068
:1001400000000000EE070000000000DC07000000D7
:100150000000B8030000000000F8010000000000EB
:10016000F0010000000000F0000000000000F000BE
:100170000000000000F0000000000000F00000009F
:10018000000000F0000000000000F000000000008F
:100190000070000000000000E0000000000000F01F
:1001A000000000000000F0000000000000700000EF
:1001B00000000000E00000000000007000000000EF
:1001C000000070000000000000700000000000004F
:1001D00060000000000000700000000000007000DF
:1001E000000000000060000000000000700000003F
:1001F000000080FF0700000000F0FF3F000000004B
:1002000070F87C0000000038FCE100000000F00104
:10021000F800000000E0FF7F0000000000FF0F007A
:1002200000000000000000000000000000000000CE
:1002300031363300322E3131006E616E00696E66E8
:100240000000407A10F35A00A0724E18090010A561
:10025000D4E80000E87648170000E40B54020000E0
:10026000CA9A3B000000E1F5050000809698000066
:100270000040420F000000A086010000001027008F
:10028000000000E803000000006400000000000A15
:1002900000000000000100000000002C76D888DC7F
:1002A000674F0823DFC1DFAE59E1B1B796E5E3E45C
:1002B00053C63AE651997696E8E6C28426EB898CD5
:1002C0009B62ED407C6FFCEFBC9C9F40F2BAA56F37
:1002D000A5F490055A2AF75C936B6CF9676DC11B06
:1002E000FCE0E40D47FEF520E6B500D0ED902E03CE
:1002F00000943577050080841E080000204E0A0017
:100300000000C80C333333330F986E12831141EF62
:100310008D2114893BE65516CFFEE6DB18D1844BC0
:10032000381BF77C1D901DA4BBE424203284725E30
:10033000228100C9F124ECA1E53D270011241FBE54
:10034000CFEFD0E1DEBFCDBF13E0A0E0B1E0EAE93E
:10035000F9E200E00BBF02C007900D92A636B1078C
:10036000D9F714E0A6E6B3E001C01D92A232B107AE
:10037000E1F70E9470020C94CB140C9400000F93D0
:100380001F938C0181E36AE00E94BB06C8010E94B2
:100390003D0B1F910F9108951F93F8941AE081E38C
:1003A000612F0E94BB0680E091E00E943D0B165F2A
:1003B0001C33A9F778941F9108950E94A7030E9407
:1003C0007C0680E060E00E94BB0681E36CE34CE8C1
:1003D00050E00E94BD070895EF92FF920F931F9384
:1003E000DF93CF93CDB7DEB764970FB6F894DEBF37
:1003F0000FBECDBF19821A821B821C82FE01359668
:1004000080E1DF011D928A95E9F70E94260DEDB784
:10041000FEB738970FB6F894FEBF0FBEEDBF0DB70D
:100420001EB70F5F1F4F7E010894E11CF11CF28282
:10043000E1828EE091E0D80113969C938E931297FF
:1004400060911E0470911F0480E090E00E94580E9D
:1004500029EB3CEF47E85CE30E94E60E2CEE31E529
:1004600048E95FE30E94F30DF80164837583868396
:1004700097830E943C148DB79EB708960FB6F894E8
:100480009EBF0FBE8DBF81E360E00E94BB06C70127
:100490000E943D0B64960FB6F894DEBF0FBECDBF31
:1004A000CF91DF911F910F91FF90EF9008950E94DF
:1004B0002E0D78940E94E2040E94DD010E94930DAB
:1004C0000E9405040E943A0D0E94AB0C82E390E06A
:1004D0000E94890D85E085BD87B7806487BF089538
:1004E0000E9457020E94CC0184E690E00E94BB0467
:1004F0008BE191E00E94BF0188EE93E00E94BB0473
:10050000F1CF0E945D0B8091E0039091E103805058
:10051000974410F082E001C081E067E00E94420D44
:100520008091E2039091E3038050974410F082E0C1
:1005300001C081E066E00E94420D8091E403909149
:10054000E5038050974430F082E065E00E94420D60
:1005500082E005C081E065E00E94420D81E064E038
:100560000E94420D8091E6039091E70380509744EA
:1005700010F082E001C081E063E00E94420D8091B2
:10058000E8039091E9038050974410F082E001C0A5
:1005900081E062E00E94420D08951F920F920FB613
:1005A0000F920BB60F9211242F933F934F935F93AB
:1005B0006F937F938F939F93AF93BF93EF93FF932B
:1005C00080912401909125010196909325018093BB
:1005D000240101978F3F910539F034F00E94EC011E
:1005E00010922501109224010E948102FF91EF9147
:1005F000BF91AF919F918F917F916F915F914F913B
:100600003F912F910F900BBE0F900FBE0F901F9038
:10061000189590916500282F30E080E0A901417085
:10062000507020FF81E09E7F982B90936500809111
:1006300065004115510511F490E001C092E08D7FF5
:10064000892B809365008091650021FD02C090E0B8
:1006500001C098E0877F892B8093650080916500B9
:100660008F7E809365008FEF8ABB6BBB85E0982FF0
:100670009A95F1F790916500946090936500982F9A
:100680009A95F1F7909165009B7F909365008A950C
:10069000F1F71BBA1ABA089590916500282F30E03F
:1006A00080E0A9014170507020FF81E09E7F982B6F
:1006B00090936500809165004115510511F490E01B
:1006C00001C092E08D7F892B809365008091650049
:1006D00021FD02C090E001C098E0877F892B8093C4
:1006E0006500809165008061809365001ABA25E0FD
:1006F000822F8A95F1F78091650084608093650070
:1007000085E18A95F1F789B3909165009B7F90937D
:100710006500922F9A95F1F708951F93CF93DF9379
:1007200090916603992371F0182F1170CFEFDFEFCE
:10073000812F0E944C03219787FD02C081E003C0F6
:100740002097B1F780E0DF91CF911F9108958FEF4F
:100750008093660380916400886080936400809138
:100760006400806180936400809164008460809361
:1007700064008091640081608093640080916400D3
:10078000826080936400B89A1ABA80916500877F6E
:1007900080936500809165008F7E809365008091D5
:1007A00065008B7F80936500809165008E7F8093CC
:1007B0006500809165008D7F80936500C098979B50
:1007C00007C0979880EA9FE00197F1F7979A04C0D5
:1007D00080EA9FE00197F1F7C09A80E00E948D03C4
:1007E000882351F081E00E948D03882311F082E07C
:1007F00001C081E080936603809166038F3F11F40E
:10080000109266038091660308951092700310920F
:100810006F0310926C0310926B031092710310928D
:100820007203109273031092740310926803109273
:10083000670310926A03109269038FEF93E090931D
:100840006E0380936D03C598C698BD9ABE9ABF9AF1
:10085000C79A1DBC1CBC8AEA8FBD82E18EBD80E0B8
:1008600094E097BD86BD87B7846087BF08951F92C7
:100870000F920FB60F9211242F933F934F938F93A4
:100880009F93AF93BF9380916F03909170039C01EE
:10089000285E3F4F3093700320936F0343E0283E60
:1008A000340778F0805D93409093700380936F03DA
:1008B00080916B0390916C03019690936C038093ED
:1008C0006B0380916B0390916C039C012F5F3F4FF2
:1008D00030936C0320936B0343E0283E3407C8F049
:1008E000875E934090936C0380936B0380917103B8
:1008F00090917203A0917303B09174030196A11DAE
:10090000B11D8093710390937203A0937303B0930E
:100910007403809167039091680323E08F3F9207EF
:1009200010F080E094E09BBD8ABD809169039091B6
:100930006A0343E08F3F940710F080E094E099BD94
:1009400088BD80916D0390916E0323E08F3F9207E5
:1009500010F080E094E09093790080937800BF914C
:10096000AF919F918F914F913F912F910F900FBE1B
:100970000F901F90189520EA3FE004C0F9013197CD
:10098000F1F701970097D1F708951092B103809382
:100990009203982F9F5F9093940396E99093B203EC
:1009A000F89403C078940000F894B09BFBCF90ECCF
:1009B0009DB98FB996E998279093B003779A789468
:1009C00080E00895B898C098BB9AC39A80E00E94CE
:1009D000C50408951F920F920FB60F920BB60F9297
:1009E00011242F933F934F935F936F937F938F9334
:1009F0009F93AF93BF93EF93FF939FB12091B20367
:100A000029272093B2038091B1038823B1F49093F6
:100A100090039C3130F0109292031092900391E079
:100A200009C0492F50E02091940330E0421753074A
:100A3000FCF09F5F909394031BC0482F50E060919F
:100A4000900370E0641775072CF04C565C4FFA0168
:100A500090830EC0415050404617570749F4222357
:100A600039F0909191039F5F9093910310929003BE
:100A700090919203891750F4E82FF0E0EB58FC4F67
:100A800020812FB99091B003922711C0891731F4BA
:100A90009091B0039FB91092B0030BC09091940352
:100AA000891758F49FEF9FB99091B0039095909358
:100AB000B0038F5F8093B10311C0B898C0981DB880
:100AC000B898C098809193038F5F80939303789434
:100AD000809190030E94D00C0E94C504FF91EF9179
:100AE000BF91AF919F918F917F916F915F914F9146
:100AF0003F912F910F900BBE0F900FBE0F901F9044
:100B000018958091B60308958091BF03089580934E
:100B1000B3030895982F9052903608F080E88052E1
:100B200090E0FC01EE0FFF1FE80FF91FEE0FFF1F13
:100B3000EA5DFE4F90818091B503882309F49FE11F
:100B400080E020E090FD8F5F2F5F253011F09695BB
:100B5000F9CF08951F93CF93DF93EC0110E005C008
:100B600021960E948A058F5F180F88818823C1F71C
:100B7000812FDF91CF911F9108951F93CF93DF9322
:100B8000EC0110E007C02196F90184910E948A05CA
:100B90008F5F180F9E01FE0194919923A1F7812F79
:100BA000DF91CF911F9108958093B50308958091AF
:100BB000B5030895863130F4683020F46093B403AF
:100BC0008093C00308950F931F93DF93CF930F92E9
:100BD000CDB7DEB7182F6854883018F580E06983E8
:100BE0000E948D0380E069810E94090380E00E94D9
:100BF0008D03612F660F660F660F605C80E00E94B8
:100C0000090307EB13E082E00E948D0382E0F80104
:100C100061918F010E940903F3E00F3B1F0799F7D1
:100C200023C0185081E069830E948D0381E06981AF
:100C30000E94090381E00E948D03612F660F660FF9
:100C4000660F605C81E00E94090307EB13E083E01C
:100C50000E948D0383E0F80161918F010E940903D6
:100C6000F3E00F3B1F0799F70F90CF91DF911F9192
:100C70000F910895FF920F931F93F82E18EB80E0C9
:100C80000E948D0381E00E948D0380E0612F0E940D
:100C9000090381E0612F0E94090300E082E00E94C5
:100CA0008D0383E00E948D0382E06F2D0E94090373
:100CB00083E06F2D0E9409030F5F003479F71F5FF7
:100CC000103CE9F680E00E948D0381E00E948D03D4
:100CD00080E068EB0E94090381E068EB0E94090351
:100CE0001F910F91FF90089580E00E943A061092A4
:100CF000B4031092C003089580E00E948D0380E049
:100D00006FE30E94090380E00E948D0380E060ECA5
:100D10000E94090380E00E948D0380E060E40E944D
:100D2000090380E00E948D0380E068EB0E940903C4
:100D300081E00E948D0381E06FE30E94090381E05E
:100D40000E948D0381E060EC0E94090381E00E9413
:100D50008D0381E060E40E94090381E00E948D031D
:100D600081E068EB0E94090380E00E943A0681E07E
:100D70008093B30308950F931F93182F062F80932A
:100D8000B6036093BF0380E00E948D0381E00E9460
:100D90008D03069506950695085480E0602F0E9405
:100DA000090381E0602F0E94090380E00E948D0307
:100DB00081E00E948D03113438F080E060E40E94ED
:100DC000090381E0612F07C0612F605C80E00E9411
:100DD000090381E060E40E9409031F910F910895C7
:100DE000EF92FF920F931F93CF93DF9319EB47C0BE
:100DF0000830E8F480E00E948D0380E0612F0E94BB
:100E0000090380E00E948D036F2D605C80E00E94EA
:100E1000090382E00E944C03C7EBD3E082E00E940A
:100E20004C03899383E0CF3BD807C1F71BC081E017
:100E30000E948D0381E0612F0E94090381E00E94DE
:100E40008D0381E06F2D0E94090383E00E944C0313
:100E5000C7EBD3E083E00E944C03899383E0CF3B50
:100E6000D807C1F7802F6E2D0E94E3050F5F88E041
:100E7000F80E003109F0BCCF1F5F103C31F0FF24A9
:100E800000E037E4E32EE10EB3CFE7EBF3E011929D
:100E900083E0EF3BF807D9F710E0812F67E00E946D
:100EA000E3051F5F1031C9F78091B403882319F05F
:100EB00081508093B403DF91CF911F910F91FF90E8
:100EC000EF900895EF92FF920F931F93E82E162F45
:100ED0008091B60387FD39C000E0803408F001E05E
:100EE000802F0E948D0342E0F42EF00E8F2D0E9481
:100EF0004C038F2D0E944C039091B30392FF02C0CC
:100F0000E0949B7FE122992319F41E2D182B08C031
:100F1000913021F4109518231E2902C01E2D182788
:100F2000802F0E948D036091B6036064802F0E9421
:100F30000903802F0E948D038F2D612F0E940903CA
:100F40008091B6038F5F8093B6031F910F91FF903E
:100F5000EF9008959091BF03977061E070E002C038
:100F6000660F771F9A95E2F7882311F0862F02C04B
:100F7000862F60E00E94620708952F923F924F9261
:100F80005F926F927F928F929F92AF92BF92CF9219
:100F9000DF92EF92FF920F931F93DF93CF9300D0D6
:100FA00000D000D0CDB7DEB7082F162F5A83498363
:100FB0006090B603E090BF038E2D87702FEF30E076
:100FC000F22E01C0FF0C8A95EAF7802F90E001977E
:100FD00068E070E00E94FB126F5FA62EBB24C50183
:100FE00073E0880F991F7A95E1F744245524481A35
:100FF000590ACC2468E0762E5FEF852E912CBC82B6
:10100000AB8271C08E2D8770D72CD81A1D1548F46D
:101010008D2D811B940102C0359527958A95E2F7A5
:10102000F2228D2D8C0D90E08A9D10018B9D300C4D
:101030009A9D300C112480E090E09E838D8343C004
:101040004D815E81477050704115510571F5E695EF
:10105000E695E695C1018E0F911DFC01A981BA812B
:10106000EA0FFB1FE40DF51D20E030E06D817E816D
:101070009491A7EBB3E08C9186958C9390FF02C07E
:1010800080688C93119683E0AF3BB80711F096957A
:10109000F2CF2F5F3F4F2830310529F0AB81BC8163
:1010A000EA0FFB1FE5CF7E836D8349545C4FFA0145
:1010B00080818F216F2D0E9462072D813E812F5FDD
:1010C0003F4F3E832D83ED81E01708F4B9CF1D1506
:1010D00008F4D12E1D19ED0CCD0C862D6E2D0E941D
:1010E000BB06FF24FA94112309F08CCF26960FB685
:1010F000F894DEBF0FBECDBFCF91DF911F910F914E
:10110000FF90EF90DF90CF90BF90AF909F908F9027
:101110007F906F905F904F903F902F9008952F9207
:101120003F924F925F926F927F928F929F92AF9277
:10113000BF92CF92DF92EF92FF920F931F93DF93B4
:10114000CF9300D000D000D0CDB7DEB7082F162F38
:101150005A8349836090B603E090BF038E2D877059
:101160002FEF30E0F22E01C0FF0C8A95EAF7802FB6
:1011700090E0019768E070E00E94FB126F5FA62E7E
:10118000BB24C501A3E0880F991FAA95E1F7442469
:101190005524481A590ACC24F8E07F2EEFEF8E2E02
:1011A000912CBC82AB8271C08E2D8770D72CD81A3F
:1011B0001D1548F48D2D811B940102C0359527958E
:1011C0008A95E2F7F2228D2D8C0D90E08A9D100118
:1011D0008B9D300C9A9D300C112480E090E09E8312
:1011E0008D8343C04D815E8147705070411551051C
:1011F00071F5E695E695E695C1018E0F911DFC010E
:10120000A981BA81EA0FFB1FE40DF51D20E030E053
:101210006D817E819081A7EBB3E08C9186958C9354
:1012200090FF02C080688C93119683E0AF3BB807B3
:1012300011F09695F2CF2F5F3F4F2830310529F0FE
:10124000AB81BC81EA0FFB1FE5CF7E836D834954E0
:101250005C4FFA0180818F216F2D0E9462072D81E2
:101260003E812F5F3F4F3E832D83ED81E01708F4D1
:10127000B9CF1D1508F4D12E1D19ED0CCD0C862DFE
:101280006E2D0E94BB06FF24FA94112309F08CCF27
:1012900026960FB6F894DEBF0FBECDBFCF91DF917B
:1012A0001F910F91FF90EF90DF90CF90BF90AF9084
:1012B0009F908F907F906F905F904F903F902F9076
:1012C0000895AF92BF92CF92DF92EF92FF920F9369
:1012D0001F93CF93DF93A82E162FB090B603F090F4
:1012E000BF038F2D87702FEF30E0022F01C0000F5A
:1012F0008A95EAF7B8E0CB2ECFEFD0E022C08F2D51
:101300008770EC2CE81A1E1548F48E2D811B9E0167
:1013100002C0359527958A95E2F70223DA2C05C09D
:10132000802F602F0E946207DA94DD20C9F71E1516
:1013300008F4E12E1E19FE0C8B2D6F2D0E94BB06AA
:101340000FEF1123E1F6DF91CF911F910F91FF90E5
:10135000EF90DF90CF90BF90AF900895682F81E01D
:101360000E94610908950F931F93182F8091BF0366
:10137000877021E030E0022F01C0000F8A95EAF764
:1013800005C0802F602F0E94620711501123C9F7FA
:101390001F910F9108959F92AF92BF92CF92DF92CB
:1013A000EF92FF920F931F93082F162FF090B60322
:1013B000E090BF038F1561F4E61618F4862F8E199E
:1013C00004C00E94BB068E2D811B0E94AE095EC028
:1013D000DE2C6E1559F4F81610F48F1904C00E9413
:1013E000BB068F2D801B0E94B30950C08F1528F4B7
:1013F000AF2CA81A99249A9409C0F81618F09924C9
:10140000AA2404C0A82EAF18992493941E1528F47A
:10141000BE2CB11ACC24CA9409C0E11618F0CC2411
:10142000BB2404C0B12EBE18CC24C39481E00E941A
:10143000AA07BA14B0F4EA2CE694E194F90CEB0C88
:101440001E1414F4EA18DC0C8F2D6D2D0E94BB06BF
:1014500081E00E94AA07F90C8F2D8919801779F76E
:1014600015C0DB2CD694D194EC0CDA0C1D1414F4BA
:10147000DB18F90C8F2D6E2D0E94BB0681E00E94B7
:10148000AA07EC0C8E2D8C19811779F7802F612F0C
:101490000E94BB061F910F91FF90EF90DF90CF90BD
:1014A000BF90AF909F9008958F929F92AF92BF92FE
:1014B000CF92DF92EF92FF920F931F93CF93DF9320
:1014C000062F982F9052903608F080E8805296E0D0
:1014D000899FE0011124CA5DDE4F18818091B50318
:1014E000882309F41FE1E02EFF24E7FCF0948FEF3E
:1014F00090E06C010E2C02C0CC0CDD1C0A94E2F7CB
:10150000AA24BB24AE18BF080A2C02C09595879563
:101510000A94E2F7D82E85E0882E912C8C0E9D1E21
:1015200010FF16C0898107FD09C090E00E2C02C093
:10153000880F991F0A94E2F76C2D08C090E00A2CDE
:1015400002C0959587950A94E2F76D2D0E94620777
:101550002196C815D90511F01695E2CF07FD03C0F5
:1015600080E06C2D02C080E06D2D0E946207DF914B
:10157000CF911F910F91FF90EF90DF90CF90BF9090
:10158000AF909F908F900895FF920F931F93082F15
:10159000F090B6031091BF031770612F0E94540A98
:1015A000112391F06091BF03685F8F2D0E94BB06ED
:1015B000612F6850802F0E94540A6091BF036850C9
:1015C0008091B6030E94BB061F910F91FF90089572
:1015D0001F93CF93DF93EC011092B50336C01A30FE
:1015E00069F41092C0038091B4038F5F8093B403B9
:1015F000883059F581E00E94F00627C01D3029F19E
:101600008091C003853160F01092C0038091B403D3
:101610008F5F8093B403883019F481E00E94F00654
:101620009091C003892F880F890F6091B403660FD2
:10163000660F660F880F0E94BB06812F0E94C40AA6
:101640008091C0038F5F8093C0031991112339F6F5
:10165000DF91CF911F910895CF93DF93EC0105C0E7
:101660002196F90184910E94C40A9E01FE01949181
:101670009923B1F7DF91CF910895CF93DF93EC01D8
:1016800003C021960E94C40A88818823D1F7DF9184
:10169000CF91089590E0282F30E0F90183E0EE0F1C
:1016A000FF1F8A95E1F7E21BF30BE953FC4F8081A2
:1016B0008F3F09F091E0892F0895F8949091FF03EE
:1016C00080E0EFEFF3E02291820F911D9093E10310
:1016D0008093E003938180E02281820F911D90939B
:1016E000E3038093E203958180E02481820F911DC2
:1016F0009093E5038093E403978180E02681820F35
:10170000911D9093E7038093E603918580E0208507
:10171000820F911D9093E9038093E8037894F894E5
:10172000209108048091C3039091C403820F911DFE
:101730003091090420E0820F931F9093DD03809382
:10174000DC0320910A048091C1039091C203820FAF
:10175000911D30910B0420E0820F931F9093F503AD
:101760008093F40390910D0480E020910C04820F8B
:10177000911D90931D0480931C0490910F0480E0B0
:1017800020910E04820F911D9093F3038093F20336
:101790009091110480E020911004820F911D90938C
:1017A000C6038093C5039091130480E02091120436
:1017B000820F911D9093FD038093FC037894F8941D
:1017C0009091160480E020911504820F911D909352
:1017D000DF038093DE039091180480E020911704CA
:1017E000820F911D90931A0480931904789481E0DC
:1017F0000895F89481E08093C70378940895F8944D
:101800008AE08093C703789481E00895F89425E0F6
:101810002093C7038093C8039093C9036093CA03BE
:101820007093CB03789481E00895F89422E020939C
:10183000C7038093C8039093C9036093CA0370934E
:10184000CB03789481E008952091C3033091C403C1
:10185000FC01E21BF30B9F018091C1039091C20335
:10186000681B790BF89483E08093C703E093C80367
:101870003093C9036093CA037093CB034093CC03A6
:101880005093CD03789481E00895F89424E0209358
:10189000C7038093C8039093C9036093CA037093EE
:1018A000CB034093CC035093CD03789481E008950B
:1018B00078949091D50320E137E22150304011F027
:1018C0009F3FD9F7F89496E09093D5038093D60381
:1018D0006093D7034093D803789481E0089581E022
:1018E0000895F89430910B0420E040910A04F90126
:1018F000E40FF11DAF013091090420E0E0910804EC
:101900002E0F311DFC01E21BF30BF093C403E09397
:10191000C3039B01241B350B3093C2032093C103E7
:101920009093DD038093DC037093F5036093F403DD
:10193000789481E0089578942091CE0380E197E235
:10194000019711F02F3FE1F7F89488E08093CE03E0
:10195000789481E0089578942091CE0380E197E215
:10196000019711F02F3FE1F7F89487E08093CE03C1
:10197000789481E0089578944091CE0320E137E295
:101980002150304011F04F3FD9F7F89429E02093CF
:10199000CE038093CF039093D003789481E0089591
:1019A00090911B049F5F90931B048B3141F4AEEF29
:1019B000B3E0E5E9F3E001900D928150E1F78FEF9C
:1019C0008093830380937C03809375038091C70386
:1019D0008F3F11F480E00DC0A5E7B3E0E7ECF3E042
:1019E00087E001900D928150E1F78FEF8093C7035C
:1019F00087E09091CE039F3F79F0E82FF0E0EB581D
:101A0000FC4FAEECB3E097E00D9001929150E1F7FE
:101A10009FEF9093CE03895F9091D5039F3F81F014
:101A2000E82FF0E0EB58FC4FA5EDB3E087E00D9018
:101A300001928150E1F78FEF8093D50385E10895FE
:101A4000882311F487E0089585E1089587E00E94D6
:101A5000D00D90931F0480931E0408958F9A979839
:101A60008AE090E00E94BB04979A84E690E00E948E
:101A7000BB040895BF9AC79ABD9ABE9A8FEF82B9E8
:101A800084BB0895482F80FF0BC095B321E030E060
:101A9000062E02C0220F331F0A94E2F7922B0CC0CD
:101AA00085B321E030E0062E02C0220F331F0A94D6
:101AB000E2F7922F9095982395BB41FF0AC083B11E
:101AC00021E030E002C0220F331F6A95E2F7822B3B
:101AD0000AC023B181E090E002C0880F991F6A9587
:101AE000E2F78095822383B9089590936E038093E3
:101AF0006D03089580916D0390916E030895909306
:101B00006803809367030895809167039091680349
:101B1000089590936A0380936903089580916903FF
:101B200090916A030895BC9A089545E322C0C49831
:101B3000282F392F0AC061507040542F5A95F1F761
:101B40006115710529F0215030402115310599F7B3
:101B5000C49A282F392F07C061507040215030405F
:101B6000542F5A95F1F76115710519F021153105BA
:101B700099F761157105D9F60895E1E6F0E09081D5
:101B800021E030E002C0220F331F8A95E2F7209552
:101B900092239083E2E6F0E080818223808308959F
:101BA00090E497B997B18770892B87B987EC86B98C
:101BB00001C000003699FDCF84B195B1392F20E0E6
:101BC000280F311D8091200490912104820F931FD2
:101BD0009093210480932004C901089580912004EA
:101BE0009091210408955058BB27AA270ED0B4C065
:101BF000A5D030F0AAD020F031F49F3F11F41EF4AC
:101C00009AC00EF4E095E7FB90C0E92FB6D080F3C0
:101C1000BA17620773078407950718F071F49EF5E9
:101C2000CEC00EF4E0950B2EBA2FA02D0B01B901FA
:101C300090010C01CA01A0011124FF27591B99F042
:101C4000593F50F4503E68F11A16F040A22F232F4E
:101C5000342F4427585FF3CF469537952795A7959E
:101C6000F0405395C9F77EF41F16BA0B620B730B45
:101C7000840BBAF09150A1F0FF0FBB1F661F771FB6
:101C8000881FC2F70EC0BA0F621F731F841F48F46B
:101C9000879577956795B795F7959E3F08F0B3CFF1
:101CA0009395880F08F09927EE0F979587950895DB
:101CB000E89409C097FB3EF49095809570956195E6
:101CC0007F4F8F4F9F4F9923A9F0F92F96E9BB279C
:101CD0009395F695879577956795B795F111F8CF18
:101CE000FAF4BB0F11F460FF1BC06F5F7F4F8F4F83
:101CF0009F4F16C0882311F096E911C0772321F079
:101D00009EE8872F762F05C0662371F096E8862F10
:101D100070E060E02AF09A95660F771F881FDAF767
:101D2000880F9695879597F9089597F99F6780E8AA
:101D300070E060E008959FEF80EC089500240A941D
:101D40001616170618060906089500240A94121696
:101D50001306140605060895092E0394000C11F4C9
:101D6000882352F0BB0F40F4BF2B11F460FF04C076
:101D70006F5F7F4F8F4F9F4F089557FD9058440FCF
:101D8000551F59F05F3F71F04795880F97FB991FDA
:101D900061F09F3F79F08795089512161306140697
:101DA000551FF2CF4695F1DF08C016161706180624
:101DB000991FF1CF86957105610508940895E894FF
:101DC000BB2766277727CB0197F908950BD0C4CF9F
:101DD000B5DF28F0BADF18F0952309F0A6CFABCF16
:101DE0001124EECFCADFA0F3959FD1F3950F50E0F9
:101DF000551F629FF001729FBB27F00DB11D639FBD
:101E0000AA27F00DB11DAA1F649F6627B00DA11D62
:101E1000661F829F2227B00DA11D621F739FB00D08
:101E2000A11D621F839FA00D611D221F749F332778
:101E3000A00D611D231F849F600D211D822F762F11
:101E40006A2F11249F5750408AF0E1F088234AF00E
:101E5000EE0FFF1FBB1F661F771F881F915050405A
:101E6000A9F79E3F510570F060CFAACF5F3FECF31A
:101E7000983EDCF3869577956795B795F795E79546
:101E80009F5FC1F7FE2B880F911D9695879597F957
:101E900008952F923F924F925F926F927F928F920E
:101EA0009F92AF92BF92CF92DF92EF92FF920F93E9
:101EB0001F93DF93CF93CDB7DEB761970FB6F8943A
:101EC000DEBF0FBECDBF3C017F876E876A01FC017C
:101ED00017821682838181FD03C06FEF7FEF71C38C
:101EE0009E012F5F3F4F398B288BF3012381EE85B5
:101EF000FF8523FD859123FF8191FF87EE8788234E
:101F000009F45CC3853251F4EE85FF8523FD85918C
:101F100023FF8191FF87EE87853229F490E0B3019A
:101F20000E941014E2CF982F10E0882499241032D8
:101F3000B0F49B3269F09C3228F4903251F0933225
:101F400071F40BC09D3239F0903349F4116028C010
:101F50001260146025C0186023C0106121C017FDF5
:101F60002AC0892F80538A3078F416FF06C0FAE021
:101F70009F9E902C1124980E13C03AE0839E802CD3
:101F80001124880E10620CC09E3221F416FD16C377
:101F9000106406C09C3611F4106802C0983659F4DB
:101FA000EE85FF8523FD959123FF9191FF87EE87B5
:101FB000992309F0BCCF892F8554833020F4812FD9
:101FC0008061905E07C0892F8556833008F0A1C1DB
:101FD000812F8F7E86FD02C076E0972E6FE3F62E6E
:101FE000F822953619F4F0E4FF2A07C0963619F462
:101FF00020E8F22A02C091109A94F7FE0BC03BE34E
:10200000391520F427E05CE3B52E0EC0B92CB3944B
:1020100027E00AC047E0491528F427E0BB2447E041
:10202000942E02C0292DBB24C60104969D878C875F
:10203000F6016081718182819381AE014F5F5F4FB4
:102040000B2D0E9422136C010981202E332400FFE6
:1020500004C003FD02C01DE209C0F1FE02C01BE284
:1020600005C0F2FC02C010E001C010E2C1018C709A
:102070009070892BB9F1112311F483E001C084E041
:10208000881510F088240AC0881AF3FC07C080E283
:1020900090E0B3010E9410148A94C9F7112329F02B
:1020A000812F90E0B3010E94101423FE03C009E3C6
:1020B00012E00EC00DE312E00BC0E114F10409F0D0
:1020C000805290E0B3010E9410140F5F1F4F05C0B3
:1020D000EF2CFF24F0E1EF22FF24F8018491882304
:1020E00061F714C1F7FE12C0BC0C24FE04C08A8143
:1020F000813309F4BA941B141CF0BB24B3942DC093
:10210000F8E0FB1550F538E0B32E27C0F6FC25C0EB
:10211000892D90E08C159D054CF02CEFC2162FEF09
:10212000D20624F030E8F32A01C09A94992049F0AD
:10213000E2E0F0E0EC0FFD1FE90DF11D808180333E
:10214000A1F3F7FE0AC0B92CB394892D90E0C8160C
:10215000D90614F0992401C09C18F7FC03C025E0AF
:1021600030E009C01C141D041CF021E030E003C065
:1021700096012F5F3F4F112311F02F5F3F4F9920A2
:1021800029F0892D90E00196280F391F882D90E0C5
:102190002817390714F0882401C0821A4F2C5524BF
:1021A000C20189709070892B39F008C080E290E0FC
:1021B000B3010E9410148A948820C1F7112329F0DA
:1021C000812F90E0B3010E94101443FE07C008C0A5
:1021D00080E390E0B3010E9410148A948820C1F734
:1021E000F7FE46C08601D7FE02C000E010E076018F
:1021F0000894E11CF11CE01AF10A41E050E04C0F98
:102200005D1FE40EF51E26014B185108892D90E044
:10221000AA24BB24A81AB90A5FEF0F3F150729F4B7
:102220008EE290E0B3010E941014C016D10634F083
:10223000401651061CF4F701808101C080E3015073
:1022400010400894E11CF11C0A151B052CF090E0CD
:10225000B3010E941014E0CF0C151D0539F49A81CA
:10226000963318F4953311F424FE81E390E04BC0CB
:102270008A81813309F00F7E90E0B3010E9410142F
:102280009920A1F08EE290E0B3010E94101412E0B8
:10229000E1E0F0E0EC0FFD1FE10FF11D1F5F808119
:1022A00090E0B3010E9410149A9491F744FC03C08B
:1022B00085E690E002C085E490E0B3010E9410142E
:1022C000D7FC05C0C114D10441F404FF06C0D0946A
:1022D000C194D108D3948DE201C08BE290E0B301A8
:1022E0000E94101480E305C08F5F26EF3FEFC20EFF
:1022F000D31E3AE0C316D104BCF790E0B3010E94AC
:102300001014C601C096B3010E941014CC84DD8461
:1023100052C1933631F0933799F0933509F059C093
:1023200023C0F601808189835E010894A11CB11C41
:1023300022E030E0C20ED31E21E0E22EF12C12C0CA
:10234000F601A080B18016FD03C06FEF7FEF02C0E1
:10235000692D70E022E030E0C20ED31EC5010E945C
:1023600005147C011F7713C0F601A080B18016FD13
:1023700003C06FEF7FEF02C0692D70E022E030E014
:10238000C20ED31EC5010E94FA137C01106813FF10
:1023900007C01BC080E290E0B3010E9410148A9431
:1023A000882D90E0E816F906A8F30FC0F50117FD97
:1023B000859117FF81915F0190E0B3010E94101495
:1023C00081108A940894E108F108E114F10471F78E
:1023D000F2C0943611F0993689F517FF08C0F6015E
:1023E000208131814281538184E090E00AC0F6016E
:1023F000808191819C01442737FD4095542F82E0D4
:1024000090E0C80ED91E9FE6F92EF12257FF09C0B1
:1024100050954095309521953F4F4F4F5F4F90E835
:10242000F92ACA01B901AE014F5F5F4F2AE030E0DF
:102430000E946D14E82EE889EE1A41C0953721F408
:102440001F7E2AE030E01CC0197F9F3661F0903774
:1024500020F4983509F0B2C00FC0903739F09837A2
:1024600009F0ACC004C028E030E00AC0106114FDDF
:10247000146020E130E004C014FD166020E132E079
:1024800017FF08C0F601608171818281938144E069
:1024900050E008C0F60180819181BC0180E090E0AD
:1024A00042E050E0C40ED51EAE014F5F5F4F0E9468
:1024B0006D14E82E5889E51A8FE7F82EF122F6FE02
:1024C0000BC08EEFF822E91438F4F4FE07C0F2FCDA
:1024D00005C09FEEF92202C01E2D01C0192DF4FE89
:1024E0000DC0FE01EE0DF11D8081803319F4E9EE7F
:1024F000FE2208C01F5FF2FE05C003C08F2D867844
:1025000009F01F5F0F2DF3FC14C0F0FE0FC018156B
:1025100010F09E2C0BC09E2C980C911A182D06C002
:1025200080E290E0B3010E9410141F5F1815C0F301
:1025300004C0181510F4811A01C0882404FF0FC0CC
:1025400080E390E0B3010E94101402FF1DC001FD62
:1025500003C088E790E00EC088E590E00BC0802FB4
:10256000867891F001FF02C08BE201C080E2F7FCA7
:102570008DE290E0B3010E94101406C080E390E069
:10258000B3010E9410149A94E914C0F3EA94E1E0B4
:10259000F0E0EC0FFD1FEE0DF11D808190E0B30126
:1025A0000E941014EE2091F706C080E290E0B30183
:1025B0000E9410148A948820C1F797CCF301668199
:1025C0007781CB0161960FB6F894DEBF0FBECDBF09
:1025D000CF91DF911F910F91FF90EF90DF90CF90FF
:1025E000BF90AF909F908F907F906F905F904F9033
:1025F0003F902F90089597FB092E07260AD077FD6C
:1026000004D00CD006D000201AF4709561957F4F4D
:102610000895F6F7909581959F4F0895AA1BBB1BCF
:1026200051E107C0AA1FBB1FA617B70710F0A61BD2
:10263000B70B881F991F5A95A9F780959095BC01F3
:10264000CD010895283008F027E03327DA01990FEB
:10265000311D87FD916000966105710539F4326086
:102660002E5F3D9330E32A95E1F708959F3F30F0C8
:1026700080387105610509F03C5F3C5F3D93913006
:1026800008F08068911DDF93CF931F930F93FF9203
:10269000EF92192F987F9695E92F96959695E90FC9
:1026A000FF27E556FD4F99273327EE24FF24A70186
:1026B000E70105900894079428F4360FE71EF81EEA
:1026C000491F511D660F771F881F991F0694A1F798
:1026D0000590079428F4E70EF81E491F561FC11DE8
:1026E000770F881F991F661F0694A1F7059007941E
:1026F00028F4F80E491F561FC71FD11D880F991FB8
:10270000661F771F0694A1F70590079420F4490FE0
:10271000561FC71FD81F990F661F771F881F069463
:10272000A9F784911095177041F0D695C7955795E4
:102730004795F794E7941A95C1F7E1E4F2E06894BD
:102740001590159135916591959105907FE273955E
:10275000E118F10A430B560BC90BD009C0F7E10C85
:10276000F11E431F561FC91FD01D7EF4703311F494
:102770008A95E6CFE894015030F0080F0AF400275C
:10278000021708F4202F2395022F7A3328F079E3DB
:102790007D932A95E9F710C07D932A9589F60694D2
:1027A00097956795379517951794E118F10A430B9C
:1027B000560BC90BD00998F023957E9173957A3307
:1027C00008F070E37C932013B8F77E9170617D93DD
:1027D00030F0839571E37D9370E32A95E1F711243E
:1027E000EF90FF900F911F91CF91DF91992787FD77
:1027F00090950895FC010590615070400110D8F744
:10280000809590958E0F9F1F0895FC016150704038
:1028100001900110D8F7809590958E0F9F1F089515
:102820000F931F93CF93DF938C01EB018B8181FF7B
:102830001BC082FF0DC02E813F818C819D81281796
:10284000390764F4E881F9810193F983E88306C0CC
:10285000E885F985802F0995892B31F48E819F8138
:1028600001969F838E8302C00FEF1FEFC801DF9197
:10287000CF911F910F9108950F931F93DF93CF93E3
:10288000CDB7DEB72E970FB6F894DEBF0FBECDBF23
:102890000D891E8986E08C831A8309838FEF9FE759
:1028A0009E838D839E01275E3F4FCE0101966F89E7
:1028B000788DA9010E94490F2F813885020F131FBF
:1028C000F80110822E960FB6F894DEBF0FBECDBF72
:1028D000CF91DF911F910F910895FA01AA27283017
:1028E00051F1203181F1E8946F936E7F6E5F7F4FDD
:1028F0008F4F9F4FAF4FB1E03ED0B4E03CD0670F59
:10290000781F891F9A1FA11D680F791F8A1F911DAB
:10291000A11D6A0F711D811D911DA11D20D009F4FB
:1029200068943F912AE0269F11243019305D31933D
:10293000DEF6CF010895462F4770405D4193B3E026
:102940000FD0C9F7F6CF462F4F70405D4A3318F0CD
:10295000495D31FD4052419302D0A9F7EACFB4E07E
:10296000A6959795879577956795BA95C9F7009736
:102970006105710508959B01AC010A2E06945795D7
:10298000479537952795BA95C9F7620F731F841F2E
:0A299000951FA01D0895F894FFCFD5
:10299A0020202020202020202020202020005643F4
:1029AA00433A2025322E31662056004D61727469F1
:1029BA006E69210000010300000000000400005FAE
:1029CA0000000E00070007001F147F147F141F2445
:1029DA002A7F2A121F23130864621F364955225080
:1029EA000600050300000E001C2241000E004122D1
:1029FA001C001F14083E08141F08083E0808060099
:102A0A00A06000000F0808080808060060600000BF
:102A1A000E00601C03001F3E5149453E0E00427FD6
:102A2A0040001F42615149461D2141454B311F1843
:102A3A0014127F101D2745454539173C4A4949302C
:102A4A001E01710905031D36494949361D064949C2
:102A5A00291E0600363600000600AC6C00000F087E
:102A6A00142241000F14141414141E0041221408D5
:102A7A001F02015109061F324979413E1F7C12117A
:102A8A00127C177F49494936173E414141221F7F2F
:102A9A004141221C177F49494941177F0909090108
:102AAA00173E4149497A177F0808087F0E00417F7F
:102ABA0041001F2040413F011F7F08142241177F18
:102ACA00404040401F7F020C027F1F7F0408107F96
:102ADA00173E4141413E177F09090906173E414108
:102AEA0041BE1D7F091929461746494949311F0127
:102AFA00017F0101173F4040403F1F1F2040201F18
:102B0A001F3F4038403F1F63140814631F070870B3
:102B1A0008071F61514945430E007F4141000E00DD
:102B2A00031C60000E0041417F000E0402010204F2
:102B3A001F40404040400C0000030400172054543A
:102B4A005478177F484444381738444444201D3881
:102B5A004444487F17385454541817087E09010210
:102B6A001718A4A4A478177F080404780E00447DDB
:102B7A0040000D4080847D000F7F102844000E0025
:102B8A00417F40001F7C04780478177C080404788D
:102B9A0017384444443817FC2424241817182424CA
:102BAA0024FC177C080404081748545454201704BA
:102BBA003F4440201D3C4040207C1F1C2040201CDC
:102BCA001F3C4030403C1F4428102844171CA0A03A
:102BDA00A07C1F4464544C440E0008364100040093
:102BEA00007F00000E00413608001F0201020402A5
:062BFA001FAA55AA55AA0E
:00000001FF
