:100000000C949E010C94BD010C94BD010C94BD0197
:100010000C94BD010C94BD010C94BD010C94BD0168
:100020000C94BD010C94BD010C949C030C94BD0177
:100030000C94BD010C94BD010C9428130C94BD01CB
:100040000C94BD010C94230A0C9401030C94D2026D
:100050000C94BD010C94BD010C94BD010C94BD0128
:100060000C94BD010C94BD010C94BD010C94BD0118
:100070000C94BD010C94BD010C94BD010C94BD0108
:100080000C94BD010C9471190C94BD01000000008A
:100090000000000000000000000000000000000060
:1000A0000000000000000000008056010002000077
:1000B000FEFFFF030300C0FFFFFFBF0100E00F00D2
:1000C000C4FF0100E0030000F00300E07F0000E057
:1000D0000300C0FCFFFFFF0300C081FFFFBF010062
:1000E00080030000DF010000030080FB0000000728
:1000F00000C07F0000000E00C03F0000000C00E0C8
:100100003F0000001C00F80F0000003800DC0E006B
:1001100000007000FC07000000E000FE030000008B
:10012000C080FF01000000C0C1FF0000000080E3AC
:100130003C0000000000E73F0000000000E60F0068
:1001400000000000EE070000000000DC07000000D7
:100150000000B8030000000000F8010000000000EB
:10016000F0010000000000F0000000000000F000BE
:100170000000000000F0000000000000F00000009F
:10018000000000F0000000000000F000000000008F
:100190000070000000000000E0000000000000F01F
:1001A000000000000000F0000000000000700000EF
:1001B00000000000E00000000000007000000000EF
:1001C000000070000000000000700000000000004F
:1001D00060000000000000700000000000007000DF
:1001E000000000000060000000000000700000003F
:1001F000000080FF0700000000F0FF3F000000004B
:1002000070F87C0000000038FCE100000000F00104
:10021000F800000000E0FF7F0000000000FF0F007A
:1002200000000000000000000000000000000000CE
:1002300031363300322E3131006E616E00696E66E8
:100240000000407A10F35A00A0724E18090010A561
:10025000D4E80000E87648170000E40B54020000E0
:10026000CA9A3B000000E1F5050000809698000066
:100270000040420F000000A086010000001027008F
:10028000000000E803000000006400000000000A15
:1002900000000000000100000000002C76D888DC7F
:1002A000674F0823DFC1DFAE59E1B1B796E5E3E45C
:1002B00053C63AE651997696E8E6C28426EB898CD5
:1002C0009B62ED407C6FFCEFBC9C9F40F2BAA56F37
:1002D000A5F490055A2AF75C936B6CF9676DC11B06
:1002E000FCE0E40D47FEF520E6B500D0ED902E03CE
:1002F00000943577050080841E080000204E0A0017
:100300000000C80C333333330F986E12831141EF62
:100310008D2114893BE65516CFFEE6DB18D1844BC0
:10032000381BF77C1D901DA4BBE424203284725E30
:10033000228100C9F124ECA1E53D270011241FBE54
:10034000CFEFD0E1DEBFCDBF14E0A0E0B1E0E8E444
:10035000FBE300E00BBF02C007900D92A638B10787
:10036000D9F717E0A6E8B4E001C01D92A53EB10799
:10037000E1F70E9463040C94A21D0C94000080918C
:100380008704882311F010928704089590914806FD
:1003900080914906981711F480E008950E94970211
:1003A00008959091480680914906981721F10E947E
:1003B000C601982F883621F481E08093860404C01A
:1003C000809186048823C1F080918804E82FF0E0B2
:1003D000ED5BFA4F90838F5F80938804843061F4E3
:1003E0001092880410928604963131F4809144056D
:1003F000809387040895FFCF0895982F80914A062F
:10040000883C41F0892F0E94B00282E090E00E9477
:10041000F4090895FFCFEF92FF920F931F93CF93AC
:10042000DF93182F062F7A0188E60E94FD01812FA5
:100430000E94FD01802F0E94FD01C0E0D0E010E08D
:1004400007C0F701EC0FFD1F80810E94FD0121967E
:10045000C017D107B4F386E10E94FD01DF91CF916F
:100460001F910F91FF90EF900895DF93CF930F921C
:10047000CDB7DEB7898385E061E0AE014F5F5F4FA6
:100480000E940B020F90CF91DF91089560E040E051
:1004900050E00E940B020895982FAB0184E0692F71
:1004A0000E940B020895DF93CF9300D000D00F92EB
:1004B000CDB7DEB7DC01FE0131969E012A5F3F4FCA
:1004C00011968C91119781931296E217F307C1F759
:1004D00083E065E0AE014F5F5F4F0E940B020F901B
:1004E0000F900F900F900F90CF91DF9108950E9481
:1004F00081020E94CD02089580E895E20E94770271
:1005000008959C0140E050E084E0220F331F441F17
:10051000551F8A95D1F760E074E284EF90E00E9465
:10052000A11B215030403093900029B90895F894D0
:1005300090914806E92FF0E0E25BFA4FE08180916C
:100540004906823311F490934906892F8F5F809377
:100550004806823310F01092480678948E2F089542
:10056000282FF89480914A06E82FF0E0E058FA4FDF
:1005700020838F5F80934A06883C10F010924A06D1
:1005800090914A0680914D05981719F488EC809354
:100590004A06559A7894822F089588EB8AB908956F
:1005A0001AB808951F920F920FB60F920BB60F92C2
:1005B00011248F939F93EF93FF9380914D0590911A
:1005C0004A06891791F0E82FF0E0E058FA4FE081F1
:1005D000983C11F480934A068F5F80934D05883CC8
:1005E00010F010924D05ECB901C05598FF91EF91B4
:1005F0009F918F910F900BBE0F900FBE0F901F9089
:1006000018951F920F920FB60F920BB60F921124EE
:100610002F933F934F935F936F937F938F939F930A
:10062000AF93BF93EF93FF939CB1809149068233C0
:10063000A9F0E82FF0E0E25BFA4F90838F5F8093A0
:100640004906823310F01092490690914906809134
:100650004806981719F482E3809349060E94D10155
:10066000FF91EF91BF91AF919F918F917F916F918A
:100670005F914F913F912F910F900BBE0F900FBE46
:100680000F901F9018950E946B1B08950F931F9356
:10069000082F10E0812F90E00E946B1B112319F4AA
:1006A0008CE291E002C084E690E00E94F4090E948E
:1006B00096100E941D1B282F812F602F0E94821BE5
:1006C000E82FF0E0E757FB4F2083100F143B10F3A7
:1006D0008AE590E00E946B1B89E894E01F910F91DE
:1006E000089524EB30E0281B310937FD04C080E079
:1006F00090E00E946B1B0E9496100E941D1B80E0E0
:1007000008950E94671278940E941B0A0E947C023E
:100710000E946B070E94CC120E94E4110E94621991
:100720000E94731285E085BD87B7806487BF8AE524
:1007300090E00E94430308951F920F920FB60F920C
:100740000BB60F9211242F933F934F935F936F93A8
:100750007F938F939F93AF93BF93EF93FF930E94E9
:10076000400880913D0590913E05019690933E058D
:1007700080933D0501978837910544F110923E051D
:1007800010923D050E945F126091F5067091F60689
:1007900080E090E00E944B1429EB3CEF47E85CE3DB
:1007A0000E94FD142CEE31E548E95FE30E94E2135C
:1007B00020E030E048E051E40E944714181634F07D
:1007C00088EB9BE064E670E00E94E904FF91EF9102
:1007D000BF91AF919F918F917F916F915F914F9159
:1007E0003F912F910F900BBE0F900FBE0F901F9057
:1007F0001895EF92FF920F93DF93CF93CDB7DEB7AB
:1008000064970FB6F894DEBF0FBECDBF84E10E949F
:10081000D2080E94E507082F19821A821B821C82C7
:10082000FE01359680E1DF011D928A95E9F700D03F
:1008300000D000D0EDB7FEB731967E010894E11CE0
:10084000F11CADB7BEB71296FC92EE92119780E004
:1008500091E093838283048315820E94131D8DB7D8
:100860009EB706960FB6F8949EBF0FBE8DBFC70108
:100870000E9413070330A1F00430B9F00530B9F439
:1008800086EF9FEF66EF7FEF4AE050E00E947E1117
:1008900088EE93E00E94F4090E94E507833019F482
:1008A0000E949A0804C0843059F70E94B6086496E2
:1008B0000FB6F894DEBF0FBECDBFCF91DF910F9181
:1008C000FF90EF9008950F931F930E9481030E9461
:1008D00032110E94BF01182F0E947A07113029F4AB
:1008E0008CE091E00E9413070CC0849B02C000E0E2
:1008F00031C08CE091E00E94130784EF91E00E94E8
:10090000F40901E027C00E94BF01182F0E947A0756
:10091000123051F489E191E00E94130784EF91E0D5
:100920000E94F40900E014C0849909C089E191E0B3
:100930000E94130784EF91E00E94F40900E0143054
:1009400039F482E00E944603BC018BE50E944C0210
:100950000E94F9030130B9F2143041F482E00E94A0
:100960004603BC018BE50E944C02B3CF1630B9F4AC
:100970000E94BF01182F873009F4A9CF84E10E949B
:10098000D208082F143009F0A2CF82E00E9446035B
:10099000BC018BE50E944C02013051F39ACF1C3010
:1009A00019F40E94C40895CF1B3019F40E94B608B0
:1009B00090CF1D3019F40E949A088BCF1E3019F485
:1009C0000E94A80886CF1A3009F083CF0E948C08B5
:1009D00080CF0F931F938B019C01442737FD4095D7
:1009E000542F60E573EC80E090E00E94C31B84E626
:1009F00090E0089FB001099F700D189F700D1124A1
:100A0000A5E323C0C498FB0106C031978A2F8A95BD
:100A1000F1F7309741F0A901C901861B970B8E0FA2
:100A20009F1F892B91F7C49ABF014E1B5F0B05C016
:100A3000615070408A2F8A95F1F76115710529F090
:100A4000CA01860F971F892B99F761157105D1F699
:100A500081E090E01F910F910895EF92FF920F9324
:100A60001F93DF93CF93CDB7DEB765970FB6F8949A
:100A7000DEBF0FBECDBF7C0119821A821B821C8291
:100A8000FE01359681E1DF011D928A95E9F780E04C
:100A90000E94730B00D000D000D0EDB7FEB73196A6
:100AA0008E010F5F1F4FADB7BEB712961C930E930A
:100AB000119784E291E093838283D70111968C9100
:100AC000848315820E94131D8DB79EB706960FB6BC
:100AD000F8949EBF0FBE8DBF80E060E00E94F40BD3
:100AE000C8010E94761065960FB6F894DEBF0FBE5F
:100AF000CDBFCF91DF911F910F91FF90EF9008959F
:100B0000CF92DF92EF92FF920F931F93DF93CF93D9
:100B1000CDB7DEB765970FB6F894DEBF0FBECDBF79
:100B2000F82EE62ED42EC22E19821A821B821C8227
:100B3000FE01359681E1DF011D928A95E9F780E09B
:100B40000E94730B8DB79EB708970FB6F8949EBF9F
:100B50000FBE8DBFEDB7FEB731968E010F5F1F4FF1
:100B6000ADB7BEB712961C930E9311978FE291E02A
:100B7000938382838091B3069091B4069583848396
:100B80008091CB069091CC06978386830E94131D9B
:100B90008DB79EB708960FB6F8949EBF0FBE8DBF57
:100BA00080E060E00E94F40BC8010E947610ADB7AF
:100BB000BEB718970FB6F894BEBF0FBEADBFEDB766
:100BC000FEB7319612961C930E93119784E491E030
:100BD000938382838091F3069091F40695838483B6
:100BE0008091C9069091CA06978386830E94131D3F
:100BF0008DB79EB708960FB6F8949EBF0FBE8DBFF7
:100C000080E06AE00E94F40BC8010E947610ADB744
:100C1000BEB71E970FB6F894BEBF0FBEADBFEDB7FF
:100C2000FEB7319612961C930E93119789E591E0C9
:100C300093838283A7EBB6E08091B8068483158204
:100C400013968C9113978683178215968C9115971E
:100C50008087118617968C9117978287138619962D
:100C60008C91848715860E94131D8DB79EB70E96B2
:100C70000FB6F8949EBF0FBE8DBF80E064E10E9466
:100C8000F40BC8010E94761000D000D000D0EDB760
:100C9000FEB73196ADB7BEB712961C930E9311975F
:100CA0008DE691E093838283F48215820E94131D66
:100CB0008DB79EB706960FB6F8949EBF0FBE8DBF38
:100CC00080E06EE10E94F40BC8010E94761000D013
:100CD00000D000D0EDB7FEB73196ADB7BEB71296D3
:100CE0001C930E93119789E791E093838283E482AA
:100CF00015820E94131D8DB79EB706960FB6F89405
:100D00009EBF0FBE8DBF80E068E20E94F40BC80159
:100D10000E947610ADB7BEB718970FB6F894BEBF55
:100D20000FBEADBFEDB7FEB7319612961C930E9372
:100D3000119785E891E093838283D4821582C682DD
:100D400017820E94131D8DB79EB708960FB6F894B0
:100D50009EBF0FBE8DBF80E062E30E94F40BC8010E
:100D60000E94761084E690E00E94F40965960FB622
:100D7000F894DEBF0FBECDBFCF91DF911F910F91D1
:100D8000FF90EF90DF90CF900895AF92BF92DF92E7
:100D9000EF92FF920F931F93CF93DF93C0E0D0E0C9
:100DA000DD2484E1A82EB12C2BC07E010894E11C27
:100DB000F11C81E36D2D0E94F40B8BE991E00E9400
:100DC000761080913F05909140058C0F9D1F65E046
:100DD00070E00E948E1B8C0181E36D2D0E94F40B4C
:100DE0000A9DC0010B9D900D1A9D900D11248E51EE
:100DF0009E4F0E9476108AE090E00E94F409E7017D
:100E00008AE0D80E8091410590914205C817D90714
:100E100064F2DF91CF911F910F91FF90EF90DF90DF
:100E2000BF90AF900895FC018091410590914205DB
:100E300020913F0530914005820F931F65E070E0DF
:100E40000E948E1B24E130E0AC01429FC001439F11
:100E5000900D529F900D11248E519E4FBF010E9404
:100E6000D51C80914105909142058530910534F45F
:100E70000196909342058093410509C080913F05FA
:100E80009091400501969093400580933F050E9404
:100E9000C50608951F93CF93DF93F8941AE081E37A
:100EA000612F0E94F40B82EB91E00E947610165F96
:100EB0001C33A9F7C2EED1E0CE0160EC71E00E94D4
:100EC000D51C649682E0C634D807B1F77894DF91D8
:100ED000CF911F9108950E9496090E94B50B80E062
:100EE00060E00E94F40B81E36CE34CE850E00E9468
:100EF000F60C0895EF92FF920F931F93DF93CF9319
:100F0000CDB7DEB764970FB6F894DEBF0FBECDBF86
:100F100019821A821B821C82FE01359680E1DF0154
:100F20001D928A95E9F70E945F12EDB7FEB73897D8
:100F30000FB6F894FEBF0FBEEDBF0DB71EB70F5F23
:100F40001F4F7E010894E11CF11CF282E18285EDC5
:100F500091E0D80113969C938E9312976091F506B9
:100F60007091F60680E090E00E944B1429EB3CEF74
:100F700047E85CE30E94FD142CEE31E548E95FE3AD
:100F80000E94E213F80164837583868397830E942D
:100F9000131D8DB79EB708960FB6F8949EBF0FBE6F
:100FA0008DBF81E360E00E94F40BC7010E947610C0
:100FB00064960FB6F894DEBF0FBECDBFCF91DF9120
:100FC0001F910F91FF90EF9008950E94961020912D
:100FD000B9063091BA0646E42030340780F4809197
:100FE000BB069091BC068050964448F48091BD06A3
:100FF0009091BE068050964410F481E0089580914F
:10100000B7069091B8068050964428F42050364494
:1010100010F483E008958091BF069091C00680503F
:10102000964448F48091BD069091BE068050964447
:1010300010F484E0089585E0089588EB9BE00E9419
:10104000F40980E090E060E070E00E94AA110E9444
:10105000961087EB96E00E94530208950E94961026
:101060008091B3069091B4061816190614F40E94E4
:10107000350280E090E060E070E00E94AA110895DF
:101080000E9496108091B7069091B80680509744C0
:1010900010F082E001C081E067E00E947B12809145
:1010A000B9069091BA068050974410F082E001C0D2
:1010B00081E066E00E947B128091BB069091BC06A5
:1010C0008050974430F082E065E00E947B1282E01D
:1010D00005C081E065E00E947B1281E064E00E942F
:1010E0007B128091BD069091BE068050974410F00F
:1010F00082E001C081E063E00E947B128091BF0624
:101100009091C0068050974410F082E001C081E0C9
:1011100062E00E947B12089585E390E06BEC7FEF24
:101120004AE050E00E947E118AE00E9446020E943E
:101130001D0808958DE090E063EF7FEF4AE050E0F6
:101140000E947E118DE00E9446020E941D080895B3
:101150008BE190E065EE7FEF4AE050E00E947E1167
:101160008EE00E9446020E941D08089583EF9FEFC3
:101170006DE070E04AE050E00E947E118BE00E943A
:1011800046020E941D08089585EE9FEF6BE170E016
:101190004AE050E00E947E118CE00E9446020E94CC
:1011A0001D0808951F93182F0E94961080E090E06C
:1011B00060E070E00E94AA110E94E507813041F4CE
:1011C000812F90E0612F70E00E944E1111E003C06A
:1011D0000E94321112E084E690E00E94F4090E941D
:1011E0002E0887EB96E00E945302812F1F910895ED
:1011F00090916500282F30E080E0A9014170507087
:1012000020FF81E09E7F982B909365008091650080
:101210004115510511F490E001C092E08D7F892BBA
:10122000809365008091650021FD02C090E001C0BF
:1012300098E0877F892B80936500809165008F7E81
:10124000809365008FEF8ABB6BBB85E0982F9A95E2
:10125000F1F790916500946090936500982F9A95AE
:10126000F1F7909165009B7F909365008A95F1F767
:101270001BBA1ABA089590916500282F30E080E0DB
:10128000A9014170507020FF81E09E7F982B9093C0
:101290006500809165004115510511F490E001C091
:1012A00092E08D7F892B809365008091650021FD00
:1012B00002C090E001C098E0877F892B8093650091
:1012C000809165008061809365001ABA25E0822FC5
:1012D0008A95F1F78091650084608093650085E1CF
:1012E0008A95F1F789B3909165009B7F9093650093
:1012F000922F9A95F1F708951F93CF93DF939091D2
:101300004B06992371F0182F1170CFEFDFEF812F6B
:101310000E943B09219787FD02C081E003C020970E
:10132000B1F780E0DF91CF911F9108958FEF809307
:101330004B06809164008860809364008091640013
:101340008061809364008091640084608093640075
:101350008091640081608093640080916400826069
:1013600080936400B89A1ABA80916500877F809351
:101370006500809165008F7E809365008091650097
:101380008B7F80936500809165008E7F80936500E0
:10139000809165008D7F80936500C098979B07C002
:1013A000979880EA9FE00197F1F7979A04C080EA46
:1013B0009FE00197F1F7C09A80E00E947C098823A2
:1013C00051F081E00E947C09882311F082E001C085
:1013D00081E080934B0680914B068F3F11F4109271
:1013E0004B0680914B06089520EA3FE004C0F901C6
:1013F0003197F1F701970097D1F708951092880679
:1014000080936906982F9F5F90936B0696E990935F
:101410008906F89403C078940000F894B09BFBCF41
:1014200090EC9DB98FB996E9982790938706779AA3
:10143000789480E00895B898C098BB9AC39A80E0E9
:101440000E94FE0908951F920F920FB60F920BB6DD
:101450000F9211242F933F934F935F936F937F933A
:101460008F939F93AF93BF93EF93FF939FB120917F
:101470008906292720938906809188068823B1F45C
:10148000909367069C3130F01092690610926706BF
:1014900091E009C0492F50E020916B0630E04217DF
:1014A0005307FCF09F5F90936B061BC0482F50E0E2
:1014B0006091670670E0641775072CF04559594F25
:1014C000FA0190830EC0415050404617570749F427
:1014D000222339F0909168069F5F909368061092DE
:1014E000670690916906891750F4E82FF0E0E45BF5
:1014F000F94F20812FB990918706922711C0891743
:1015000031F4909187069FB9109287060BC0909195
:101510006B06891758F49FEF9FB9909187069095B5
:10152000909387068F5F8093880611C0B898C09803
:101530001DB8B898C09880916A068F5F80936A063C
:101540007894809167060E9409120E94FE09FF911B
:10155000EF91BF91AF919F918F917F916F915F912B
:101560004F913F912F910F900BBE0F900FBE0F9098
:101570001F90189580918D06089580919606089584
:1015800080938A060895982F9052903608F080E84C
:10159000805290E0FC01EE0FFF1FE80FF91FEE0FE5
:1015A000FF1FEA5BFD4F908180918C06882309F430
:1015B0009FE180E020E090FD8F5F2F5F253011F0EC
:1015C0009695F9CF08951F93CF93DF93EC0110E028
:1015D00005C021960E94C30A8F5F180F8881882357
:1015E000C1F7812FDF91CF911F9108951F93CF9362
:1015F000DF93EC0110E007C02196F90184910E946D
:10160000C30A8F5F180F9E01FE0194919923A1F7E1
:10161000812FDF91CF911F91089580938C060895BB
:1016200080918C060895863130F4683020F4609300
:101630008B068093970608950F931F93DF93CF93A4
:101640000F92CDB7DEB7182F6854883018F580E0B8
:1016500069830E947C0980E069810E94F80880E02B
:101660000E947C09612F660F660F660F605C80E048
:101670000E94F8080EE816E082E00E947C0982E0F1
:10168000F80161918F010E94F808F6E006391F0702
:1016900099F723C0185081E069830E947C0981E09A
:1016A00069810E94F80881E00E947C09612F660F21
:1016B000660F660F605C81E00E94F8080EE816E095
:1016C00083E00E947C0983E0F80161918F010E9410
:1016D000F808F6E006391F0799F70F90CF91DF91D0
:1016E0001F910F910895FF920F931F93F82E18EBFF
:1016F00080E00E947C0981E00E947C0980E0612FEB
:101700000E94F80881E0612F0E94F80800E082E062
:101710000E947C0983E00E947C0982E06F2D0E9478
:10172000F80883E06F2D0E94F8080F5F003479F706
:101730001F5F103CE9F680E00E947C0981E00E9476
:101740007C0980E068EB0E94F80881E068EB0E9469
:10175000F8081F910F91FF90089580E00E94730B8D
:1017600010928B0610929706089580E00E947C09E3
:1017700080E06FE30E94F80880E00E947C0980E02E
:1017800060EC0E94F80880E00E947C0980E060E440
:101790000E94F80880E00E947C0980E068EB0E94CB
:1017A000F80881E00E947C0981E06FE30E94F8085C
:1017B00081E00E947C0981E060EC0E94F80881E0F1
:1017C0000E947C0981E060E40E94F80881E00E94A8
:1017D0007C0981E068EB0E94F80880E00E94730BAE
:1017E00081E080938A0608950F931F93182F062F88
:1017F00080938D066093960680E00E947C0981E0CC
:101800000E947C09069506950695085480E0602F95
:101810000E94F80881E0602F0E94F80880E00E9492
:101820007C0981E00E947C09113438F080E060E49A
:101830000E94F80881E0612F07C0612F605C80E0A2
:101840000E94F80881E060E40E94F8081F910F915F
:101850000895EF92FF920F931F93CF93DF9319EBAD
:1018600047C00830E8F480E00E947C0980E0612FE6
:101870000E94F80880E00E947C096F2D605C80E087
:101880000E94F80882E00E943B09CEE8D6E082E0A0
:101890000E943B09899386E0C639D807C1F71BC06F
:1018A00081E00E947C0981E0612F0E94F80881E0BC
:1018B0000E947C0981E06F2D0E94F80883E00E945D
:1018C0003B09CEE8D6E083E00E943B09899386E09D
:1018D000C639D807C1F7802F6E2D0E941C0B0F5FF1
:1018E00088E0F80E003109F0BCCF1F5F103C31F0EA
:1018F000FF2400E037E4E32EE10EB3CFEEE8F6E09C
:10190000119286E0E639F807D9F710E0812F67E0F9
:101910000E941C0B1F5F1031C9F780918B06882332
:1019200019F0815080938B06DF91CF911F910F9119
:10193000FF90EF900895EF92FF920F931F93E82E80
:10194000162F80918D0687FD39C000E0803408F0A5
:1019500001E0802F0E947C0942E0F42EF00E8F2DD2
:101960000E943B098F2D0E943B0990918A0692FFAD
:1019700002C0E0949B7FE122992319F41E2D182BBD
:1019800008C0913021F4109518231E2902C01E2D85
:101990001827802F0E947C0960918D066064802F3B
:1019A0000E94F808802F0E947C098F2D612F0E94D1
:1019B000F80880918D068F5F80938D061F910F919F
:1019C000FF90EF90089590919606977061E070E017
:1019D00002C0660F771F9A95E2F7882311F0862FD1
:1019E00002C0862F60E00E949B0C08952F923F92C8
:1019F0004F925F926F927F928F929F92AF92BF921F
:101A0000CF92DF92EF92FF920F931F93DF93CF93CA
:101A100000D000D000D0CDB7DEB7082F162F5A83E4
:101A2000498360908D06E09096068E2D87702FEF8B
:101A300030E0F22E01C0FF0C8A95EAF7802F90E08B
:101A4000019768E070E00E948E1B6F5FA62EBB249A
:101A5000C50173E0880F991F7A95E1F74424552456
:101A6000481A590ACC2468E0762E5FEF852E912C17
:101A7000BC82AB8271C08E2D8770D72CD81A1D15F1
:101A800048F48D2D811B940102C0359527958A95C8
:101A9000E2F7F2228D2D8C0D90E08A9D10018B9D36
:101AA000300C9A9D300C112480E090E09E838D8351
:101AB00043C04D815E81477050704115510571F5ED
:101AC000E695E695E695C1018E0F911DFC01A98171
:101AD000BA81EA0FFB1FE40DF51D20E030E06D81B7
:101AE0007E819491AEE8B6E08C9186958C9390FFC0
:101AF00002C080688C93119686E0A639B80711F071
:101B00009695F2CF2F5F3F4F2830310529F0AB81FA
:101B1000BC81EA0FFB1FE5CF7E836D834257594F8F
:101B2000FA0180818F216F2D0E949B0C2D813E81B7
:101B30002F5F3F4F3E832D83ED81E01708F4B9CF2F
:101B40001D1508F4D12E1D19ED0CCD0C862D6E2D12
:101B50000E94F40BFF24FA94112309F08CCF2696EF
:101B60000FB6F894DEBF0FBECDBFCF91DF911F91AE
:101B70000F91FF90EF90DF90CF90BF90AF909F902C
:101B80008F907F906F905F904F903F902F9008952F
:101B90002F923F924F925F926F927F928F929F927D
:101BA000AF92BF92CF92DF92EF92FF920F931F936B
:101BB000DF93CF9300D000D000D0CDB7DEB7082F91
:101BC000162F5A83498360908D06E09096068E2DDD
:101BD00087702FEF30E0F22E01C0FF0C8A95EAF7F4
:101BE000802F90E0019768E070E00E948E1B6F5F8D
:101BF000A62EBB24C501A3E0880F991FAA95E1F783
:101C000044245524481A590ACC24F8E07F2EEFEFDB
:101C10008E2E912CBC82AB8271C08E2D8770D72CFA
:101C2000D81A1D1548F48D2D811B940102C03595DD
:101C300027958A95E2F7F2228D2D8C0D90E08A9DF2
:101C400010018B9D300C9A9D300C112480E090E0A7
:101C50009E838D8343C04D815E81477050704115D6
:101C6000510571F5E695E695E695C1018E0F911D3A
:101C7000FC01A981BA81EA0FFB1FE40DF51D20E0EC
:101C800030E06D817E819081AEE8B6E08C918695E2
:101C90008C9390FF02C080688C93119686E0A639E1
:101CA000B80711F09695F2CF2F5F3F4F28303105DE
:101CB00029F0AB81BC81EA0FFB1FE5CF7E836D83EA
:101CC0004257594FFA0180818F216F2D0E949B0C42
:101CD0002D813E812F5F3F4F3E832D83ED81E017A5
:101CE00008F4B9CF1D1508F4D12E1D19ED0CCD0C3B
:101CF000862D6E2D0E94F40BFF24FA94112309F017
:101D00008CCF26960FB6F894DEBF0FBECDBFCF9115
:101D1000DF911F910F91FF90EF90DF90CF90BF90D8
:101D2000AF909F908F907F906F905F904F903F907B
:101D30002F900895AF92BF92CF92DF92EF92FF92D1
:101D40000F931F93CF93DF93A82E162FB0908D067D
:101D5000F09096068F2D87702FEF30E0022F01C094
:101D6000000F8A95EAF7B8E0CB2ECFEFD0E022C083
:101D70008F2D8770EC2CE81A1E1548F48E2D811BD0
:101D80009E0102C0359527958A95E2F70223DA2C49
:101D900005C0802F602F0E949B0CDA94DD20C9F7CC
:101DA0001E1508F4E12E1E19FE0C8B2D6F2D0E94BE
:101DB000F40B0FEF1123E1F6DF91CF911F910F91FB
:101DC000FF90EF90DF90CF90BF90AF900895682F75
:101DD00081E00E949A0E08950F931F93182F80910F
:101DE0009606877021E030E0022F01C0000F8A952F
:101DF000EAF705C0802F602F0E949B0C1150112321
:101E0000C9F71F910F9108959F92AF92BF92CF9201
:101E1000DF92EF92FF920F931F93082F162FF090EF
:101E20008D06E09096068F1561F4E61618F4862F5D
:101E30008E1904C00E94F40B8E2D811B0E94E70EA8
:101E40005EC0DE2C6E1559F4F81610F48F1904C01C
:101E50000E94F40B8F2D801B0E94EC0E50C08F153A
:101E600028F4AF2CA81A99249A9409C0F81618F0EF
:101E70009924AA2404C0A82EAF18992493941E155F
:101E800028F4BE2CB11ACC24CA9409C0E11618F06B
:101E9000CC24BB2404C0B12EBE18CC24C39481E052
:101EA0000E94E30CBA14B0F4EA2CE694E194F90C25
:101EB000EB0C1E1414F4EA18DC0C8F2D6D2D0E940F
:101EC000F40B81E00E94E30CF90C8F2D8919801727
:101ED00079F715C0DB2CD694D194EC0CDA0C1D14D8
:101EE00014F4DB18F90C8F2D6E2D0E94F40B81E099
:101EF0000E94E30CEC0C8E2D8C19811779F7802F42
:101F0000612F0E94F40B1F910F91FF90EF90DF90D3
:101F1000CF90BF90AF909F9008958F929F92AF9275
:101F2000BF92CF92DF92EF92FF920F931F93CF93C6
:101F3000DF93062F982F9052903608F080E8805259
:101F400096E0899FE0011124CA5BDD4F18818091E2
:101F50008C06882309F41FE1E02EFF24E7FCF094AF
:101F60008FEF90E06C010E2C02C0CC0CDD1C0A94AB
:101F7000E2F7AA24BB24AE18BF080A2C02C095952C
:101F800087950A94E2F7D82E85E0882E912C8C0E46
:101F90009D1E10FF16C0898107FD09C090E00E2C20
:101FA00002C0880F991F0A94E2F76C2D08C090E0D8
:101FB0000A2C02C0959587950A94E2F76D2D0E9430
:101FC0009B0C2196C815D90511F01695E2CF07FD97
:101FD00003C080E06C2D02C080E06D2D0E949B0C40
:101FE000DF91CF911F910F91FF90EF90DF90CF90F5
:101FF000BF90AF909F908F900895FF920F931F9383
:10200000082FF0908D06109196061770612F0E9490
:102010008D0F112391F060919606685F8F2D0E94BD
:10202000F40B612F6850802F0E948D0F60919606EF
:10203000685080918D060E94F40B1F910F91FF90C4
:1020400008951F93CF93DF93EC0110928C0636C056
:102050001A3069F41092970680918B068F5F8093F7
:102060008B06883059F581E00E94290C27C01D306D
:1020700029F180919706853160F010929706809142
:102080008B068F5F80938B06883019F481E00E9465
:10209000290C90919706892F880F890F60918B06E4
:1020A000660F660F660F880F0E94F40B812F0E9447
:1020B000FD0F809197068F5F8093970619911123EA
:1020C00039F6DF91CF911F910895CF93DF93EC0103
:1020D00005C02196F90184910E94FD0F9E01FE0129
:1020E00094919923B1F7DF91CF910895CF93DF9326
:1020F000EC0103C021960E94FD0F88818823D1F74F
:10210000DF91CF91089590E0282F30E0F90183E02E
:10211000EE0FFF1F8A95E1F7E21BF30BE256F94F32
:1021200080818F3F09F091E0892F0895F894909174
:10213000D60680E0E6EDF6E02291820F911D9093A5
:10214000B8068093B706938180E02281820F911DAB
:102150009093BA068093B906958180E02481820F1E
:10216000911D9093BC068093BB06978180E02681E9
:10217000820F911D9093BE068093BD06918580E0ED
:102180002085820F911D9093C0068093BF0678949E
:10219000F8942091DF0680919A0690919B06820F19
:1021A000911D3091E00620E0820F931F9093B406BA
:1021B0008093B3062091E10680919806909199064C
:1021C000820F911D3091E20620E0820F931F9093C1
:1021D000CC068093CB069091E40680E02091E30644
:1021E000820F911D9093F4068093F3069091E6067A
:1021F00080E02091E506820F911D9093CA0680939E
:10220000C9069091E80680E02091E706820F911DB3
:1022100090939D0680939C069091EA0680E0209121
:10222000E906820F911D9093D4068093D30678948B
:10223000F8949091ED0680E02091EC06820F911DBC
:102240009093B6068093B5069091EF0680E02091BA
:10225000EE06820F911D9093F1068093F00678941C
:1022600081E00895F89481E080939E067894089523
:10227000F8948AE080939E06789481E00895F8941B
:1022800025E020939E0680939F069093A00660937E
:10229000A1067093A206789481E00895F89422E054
:1022A00020939E0680939F069093A0066093A106BC
:1022B0007093A206789481E0089520919A06309157
:1022C0009B06FC01E21BF30B9F0180919806909105
:1022D0009906681B790BF89483E080939E06E0933F
:1022E0009F063093A0066093A1067093A2064093C8
:1022F000A3065093A406789481E00895F89424E00E
:1023000020939E0680939F069093A0066093A1065B
:102310007093A2064093A3065093A406789481E09C
:10232000089578949091AC0620E137E22150304036
:1023300011F09F3FD9F7F89496E09093AC06809304
:10234000AD066093AE064093AF06789481E00895A1
:1023500081E00895F8943091E20620E04091E10692
:10236000F901E40FF11DAF013091E00620E0E091AA
:10237000DF062E0F311DFC01E21BF30BF0939B06D1
:10238000E0939A069B01241B350B3093990620930A
:1023900098069093B4068093B3067093CC0660932E
:1023A000CB06789481E0089578942091A50680E189
:1023B00097E2019711F02F3FE1F7F89488E08093BE
:1023C000A506789481E0089578942091A50680E18F
:1023D00097E2019711F02F3FE1F7F89487E080939F
:1023E000A506789481E0089578944091A50620E1AF
:1023F00037E22150304011F04F3FD9F7F89429E0EF
:102400002093A5068093A6069093A706789481E072
:1024100008959091F2069F5F9093F2068B3141F4FC
:10242000A5EDB6E0ECE6F6E001900D928150E1F703
:102430008FEF80935A068093530680934C068091C9
:102440009E068F3F11F480E00DC0ACE4B6E0EEE9EB
:10245000F6E087E001900D928150E1F78FEF8093D5
:102460009E0687E09091A5069F3F79F0E82FF0E067
:10247000E45BF94FA5EAB6E097E00D900192915028
:10248000E1F79FEF9093A506895F9091AC069F3F7F
:1024900081F0E82FF0E0E45BF94FACEAB6E087E0CA
:1024A0000D9001928150E1F78FEF8093AC0685E1AA
:1024B0000895882311F487E0089585E1089587E061
:1024C0000E94BF139093F6068093F50608958F9AA5
:1024D00097988AE090E00E94F409979A84E690E049
:1024E0000E94F4090895BF9AC79ABD9ABE9A8FEFC9
:1024F00082B984BB0895482F80FF0BC095B321E0BB
:1025000030E0062E02C0220F331F0A94E2F7922B0E
:102510000CC085B321E030E0062E02C0220F331F2D
:102520000A94E2F7922F9095982395BB41FF0AC039
:1025300083B121E030E002C0220F331F6A95E2F739
:10254000822B0AC023B181E090E002C0880F991F5E
:102550006A95E2F78095822383B908959093FE06E9
:102560008093FD0608958091FD069091FE060895E2
:102570009093F8068093F70608958091F70690915E
:10258000F80608959093FA068093F90608958091CD
:10259000F9069091FA060895BC9A089545E322C081
:1025A000C498282F392F0AC061507040542F5A9573
:1025B000F1F76115710529F02150304021153105E1
:1025C00099F7C49A282F392F07C0615070402150C5
:1025D0003040542F5A95F1F76115710519F0211506
:1025E000310599F761157105D9F608951092000724
:1025F0001092FF061092FC061092FB061092010743
:102600001092020710920307109204071092F80626
:102610001092F7061092FA061092F9068FEF93E0E7
:102620009093FE068093FD06C598C698BD9ABE9A03
:10263000BF9AC79A1DBC1CBC8AEA8FBD82E18EBDC1
:1026400080E094E097BD86BD87B7846087BF08951A
:102650001F920F920FB60F9211242F933F934F9317
:102660008F939F93AF93BF938091FF069091000744
:102670009C01285E3F4F309300072093FF0643E004
:10268000283E340778F0805D934090930007809354
:10269000FF068091FB069091FC0601969093FC0644
:1026A0008093FB068091FB069091FC069C012F5FB6
:1026B0003F4F3093FC062093FB0643E0283E34074F
:1026C000C8F0875E93409093FC068093FB06809150
:1026D000010790910207A0910307B09104070196AA
:1026E000A11DB11D8093010790930207A0930307DA
:1026F000B09304078091F7069091F80623E08F3F8E
:10270000920710F080E094E09BBD8ABD8091F906AD
:102710009091FA0643E08F3F940710F080E094E038
:1027200099BD88BD8091FD069091FE0623E08F3F04
:10273000920710F080E094E0909379008093780005
:10274000BF91AF919F918F914F913F912F910F909A
:102750000FBE0F901F901895E1E6F0E0908121E008
:1027600030E002C0220F331F8A95E2F720959223B2
:102770009083E2E6F0E0808182238083089590E4F4
:1027800097B997B18770892B87B987EC86B901C053
:1027900000003699FDCF84B195B1392F20E0280F84
:1027A000311D8091050790910607820F931F90932A
:1027B000060780930507C901089580910507909148
:1027C000060708955058BB27AA270ED0DCC0CDD0ED
:1027D00030F0D2D020F031F49F3F11F41EF4C2C08B
:1027E0000EF4E095E7FBB8C0E92FDED080F3BA170E
:1027F000620773078407950718F071F49EF5F6C019
:102800000EF4E0950B2EBA2FA02D0B01B90190010B
:102810000C01CA01A0011124FF27591B99F0593F4F
:1028200050F4503E68F11A16F040A22F232F342F97
:102830004427585FF3CF469537952795A795F040E5
:102840005395C9F77EF41F16BA0B620B730B840BFA
:10285000BAF09150A1F0FF0FBB1F661F771F881FB2
:10286000C2F70EC0BA0F621F731F841F48F487950A
:1028700077956795B795F7959E3F08F0B3CF9395F9
:10288000880F08F09927EE0F97958795089540D007
:1028900008F481E00895E89409C097FB3EF4909510
:1028A0008095709561957F4F8F4F9F4F9923A9F029
:1028B000F92F96E9BB279395F695879577956795B8
:1028C000B795F111F8CFFAF4BB0F11F460FF1BC0FC
:1028D0006F5F7F4F8F4F9F4F16C0882311F096E98F
:1028E00011C0772321F09EE8872F762F05C066233D
:1028F00071F096E8862F70E060E02AF09A95660FF6
:10290000771F881FDAF7880F9695879597F90895AE
:10291000990F0008550FAA0BE0E8FEEF16161706F0
:10292000E807F907C0F012161306E407F50798F058
:10293000621B730B840B950B39F40A2661F0232B71
:10294000242B252B21F408950A2609F4A140A695ED
:102950008FEF811D811D089597F99F6780E870E0D2
:1029600060E008959FEF80EC089500240A94161605
:10297000170618060906089500240A94121613066D
:10298000140605060895092E0394000C11F48823FB
:1029900052F0BB0F40F4BF2B11F460FF04C06F5F17
:1029A0007F4F8F4F9F4F089557FD9058440F551FED
:1029B00059F05F3F71F04795880F97FB991F61F0C1
:1029C0009F3F79F087950895121613061406551F38
:1029D000F2CF4695F1DF08C0161617061806991FA4
:1029E000F1CF86957105610508940895E894BB2799
:1029F00066277727CB0197F908950BD0C4CFB5DFB1
:102A000028F0BADF18F0952309F0A6CFABCF112438
:102A1000EECFCADFA0F3959FD1F3950F50E0551F7D
:102A2000629FF001729FBB27F00DB11D639FAA2723
:102A3000F00DB11DAA1F649F6627B00DA11D661F72
:102A4000829F2227B00DA11D621F739FB00DA11D93
:102A5000621F839FA00D611D221F749F3327A00D4D
:102A6000611D231F849F600D211D822F762F6A2FE9
:102A700011249F5750408AF0E1F088234AF0EE0F6E
:102A8000FF1FBB1F661F771F881F91505040A9F77B
:102A90009E3F510570F060CFAACF5F3FECF3983EA8
:102AA000DCF3869577956795B795F795E7959F5FE2
:102AB000C1F7FE2B880F911D9695879597F908957C
:102AC0002F923F924F925F926F927F928F929F923E
:102AD000AF92BF92CF92DF92EF92FF920F931F932C
:102AE000DF93CF93CDB7DEB761970FB6F894DEBF13
:102AF0000FBECDBF3C017F876E876A01FC01178244
:102B00001682838181FD03C06FEF7FEF71C39E0149
:102B10002F5F3F4F398B288BF3012381EE85FF8593
:102B200023FD859123FF8191FF87EE87882309F498
:102B30005CC3853251F4EE85FF8523FD859123FF2B
:102B40008191FF87EE87853229F490E0B3010E94DE
:102B5000E71CE2CF982F10E0882499241032B0F4BB
:102B60009B3269F09C3228F4903251F0933271F428
:102B70000BC09D3239F0903349F4116028C01260C7
:102B8000146025C0186023C0106121C017FD2AC041
:102B9000892F80538A3078F416FF06C0FAE09F9E92
:102BA000902C1124980E13C03AE0839E802C11249F
:102BB000880E10620CC09E3221F416FD16C31064FC
:102BC00006C09C3611F4106802C0983659F4EE85A0
:102BD000FF8523FD959123FF9191FF87EE87992330
:102BE00009F0BCCF892F8554833020F4812F806178
:102BF000905E07C0892F8556833008F0A1C1812FD0
:102C00008F7E86FD02C076E0972E6FE3F62EF822C7
:102C1000953619F4F0E4FF2A07C0963619F420E837
:102C2000F22A02C091109A94F7FE0BC03BE33915CB
:102C300020F427E05CE3B52E0EC0B92CB39427E056
:102C40000AC047E0491528F427E0BB2447E0942E4A
:102C500002C0292DBB24C60104969D878C87F601EE
:102C60006081718182819381AE014F5F5F4F0B2D37
:102C70000E94F21B6C010981202E332400FF04C046
:102C800003FD02C01DE209C0F1FE02C01BE205C047
:102C9000F2FC02C010E001C010E2C1018C70907023
:102CA000892BB9F1112311F483E001C084E0881568
:102CB00010F088240AC0881AF3FC07C080E290E074
:102CC000B3010E94E71C8A94C9F7112329F0812FD0
:102CD00090E0B3010E94E71C23FE03C009E312E069
:102CE0000EC00DE312E00BC0E114F10409F08052B4
:102CF00090E0B3010E94E71C0F5F1F4F05C0EF2C4F
:102D0000FF24F0E1EF22FF24F8018491882361F78A
:102D100014C1F7FE12C0BC0C24FE04C08A818133AA
:102D200009F4BA941B141CF0BB24B3942DC0F8E032
:102D3000FB1550F538E0B32E27C0F6FC25C0892DD1
:102D400090E08C159D054CF02CEFC2162FEFD206AB
:102D500024F030E8F32A01C09A94992049F0E2E087
:102D6000F0E0EC0FFD1FE90DF11D80818033A1F330
:102D7000F7FE0AC0B92CB394892D90E0C816D90685
:102D800014F0992401C09C18F7FC03C025E030E042
:102D900009C01C141D041CF021E030E003C09601A2
:102DA0002F5F3F4F112311F02F5F3F4F992029F0E4
:102DB000892D90E00196280F391F882D90E0281763
:102DC000390714F0882401C0821A4F2C5524C201FF
:102DD00089709070892B39F008C080E290E0B301CF
:102DE0000E94E71C8A948820C1F7112329F0812FC3
:102DF00090E0B3010E94E71C43FE07C008C080E3D7
:102E000090E0B3010E94E71C8A948820C1F7F7FE86
:102E100046C08601D7FE02C000E010E076010894AB
:102E2000E11CF11CE01AF10A41E050E04C0F5D1F7B
:102E3000E40EF51E26014B185108892D90E0AA24B6
:102E4000BB24A81AB90A5FEF0F3F150729F48EE2D9
:102E500090E0B3010E94E71CC016D10634F0401682
:102E600051061CF4F701808101C080E3015010403D
:102E70000894E11CF11C0A151B052CF090E0B3012D
:102E80000E94E71CE0CF0C151D0539F49A8196339A
:102E900018F4953311F424FE81E390E04BC08A814D
:102EA000813309F00F7E90E0B3010E94E71C992066
:102EB000A1F08EE290E0B3010E94E71C12E0E1E095
:102EC000F0E0EC0FFD1FE10FF11D1F5F808190E02E
:102ED000B3010E94E71C9A9491F744FC03C085E675
:102EE00090E002C085E490E0B3010E94E71CD7FCAB
:102EF00005C0C114D10441F404FF06C0D094C194AC
:102F0000D108D3948DE201C08BE290E0B3010E941E
:102F1000E71C80E305C08F5F26EF3FEFC20ED31E94
:102F20003AE0C316D104BCF790E0B3010E94E71C5D
:102F3000C601C096B3010E94E71CCC84DD8452C157
:102F4000933631F0933799F0933509F059C023C087
:102F5000F601808189835E010894A11CB11C22E0E6
:102F600030E0C20ED31E21E0E22EF12C12C0F60199
:102F7000A080B18016FD03C06FEF7FEF02C0692D06
:102F800070E022E030E0C20ED31EC5010E94DC1CBE
:102F90007C011F7713C0F601A080B18016FD03C02D
:102FA0006FEF7FEF02C0692D70E022E030E0C20ECB
:102FB000D31EC5010E94CA1C7C01106813FF07C004
:102FC0001BC080E290E0B3010E94E71C8A94882D28
:102FD00090E0E816F906A8F30FC0F50117FD8591FA
:102FE00017FF81915F0190E0B3010E94E71C8110FF
:102FF0008A940894E108F108E114F10471F7F2C031
:10300000943611F0993689F517FF08C0F601208132
:1030100031814281538184E090E00AC0F6018081D1
:1030200091819C01442737FD4095542F82E090E028
:10303000C80ED91E9FE6F92EF12257FF09C0509500
:103040004095309521953F4F4F4F5F4F90E8F92ABB
:10305000CA01B901AE014F5F5F4F2AE030E00E9424
:10306000441DE82EE889EE1A41C0953721F41F7EF1
:103070002AE030E01CC0197F9F3661F0903720F4C1
:10308000983509F0B2C00FC0903739F0983709F081
:10309000ACC004C028E030E00AC0106114FD146028
:1030A00020E130E004C014FD166020E132E017FF9B
:1030B00008C0F601608171818281938144E050E013
:1030C00008C0F60180819181BC0180E090E042E07F
:1030D00050E0C40ED51EAE014F5F5F4F0E94441DED
:1030E000E82E5889E51A8FE7F82EF122F6FE0BC07C
:1030F0008EEFF822E91438F4F4FE07C0F2FC05C0A4
:103100009FEEF92202C01E2D01C0192DF4FE0DC044
:10311000FE01EE0DF11D8081803319F4E9EEFE22EF
:1031200008C01F5FF2FE05C003C08F2D867809F02E
:103130001F5F0F2DF3FC14C0F0FE0FC0181510F028
:103140009E2C0BC09E2C980C911A182D06C080E264
:1031500090E0B3010E94E71C1F5F1815C0F304C084
:10316000181510F4811A01C0882404FF0FC080E3F1
:1031700090E0B3010E94E71C02FF1DC001FD03C0E7
:1031800088E790E00EC088E590E00BC0802F86783D
:1031900091F001FF02C08BE201C080E2F7FC8DE2FA
:1031A00090E0B3010E94E71C06C080E390E0B30109
:1031B0000E94E71C9A94E914C0F3EA94E1E0F0E07D
:1031C000EC0FFD1FEE0DF11D808190E0B3010E9418
:1031D000E71CEE2091F706C080E290E0B3010E9468
:1031E000E71C8A948820C1F797CCF3016681778128
:1031F000CB0161960FB6F894DEBF0FBECDBFCF9165
:10320000DF911F910F91FF90EF90DF90CF90BF90D3
:10321000AF909F908F907F906F905F904F903F9076
:103220002F900895F89480911B07882311F481E171
:1032300005C08091740084FF05C082E180931B0764
:1032400080E015C08091740085FF07C01092740063
:1032500084E08093740088E1F1CF10921B07809185
:103260001E0780931C0785EA8093740081E07894A0
:10327000089580E197E235E00DC02091740020FDB3
:1032800006C02091740024FD02C081E00895232F20
:103290002A95F1F701972FEF8F3F920771F7F89476
:1032A0001092740084E08093740080911B07803139
:1032B00018F483E180931B07789480E0089580914F
:1032C0001B070895E4E7F0E0108288E48093700023
:1032D0008FEF8093730084E0808381E080931B07ED
:1032E00008951F920F920FB60F920BB60F921124F2
:1032F0002F933F938F939F93EF93FF938091710050
:10330000887F80931D07883251F1893288F480319B
:1033100021F1813138F4882309F471C0883009F033
:1033200073C01BC08831D9F0803209F06DC067C00E
:10333000803409F442C0813438F4803309F45FC02A
:10334000883309F061C056C0803559F1883509F4D9
:1033500042C0883409F058C052C010921F079091A3
:103360001F0780911C07981768F480911F07E82FAA
:10337000F0E0E95FF84F90818F5F80931F07909393
:10338000730027C080912007882369F1809120076E
:1033900080931C078091070781608093070785EA67
:1033A00026C080911F0790917300E82FF0E0E95F3D
:1033B000F84F90838F5F80931F0780911F072091A4
:1033C0001C0790E0019630E08217930714F485EC17
:1033D0000EC085E80CC0E0911F0780917300F0E0FB
:1033E000E95FF84F808382E080931B0784E9809334
:1033F000740010C084E88093740085E109C084E9FA
:103400008093740086E104C084E88093740087E1AF
:1034100080931B07FF91EF919F918F913F912F9187
:103420000F900BBE0F900FBE0F901F901895089530
:1034300080931E07609320070E9412190E94391979
:10344000089584E58093070784E2809308078091BC
:10345000DF079091E0079093090780930A07809116
:10346000E1079091E20790930B0780930C078091FE
:1034700021079091220790930D0780930E0788E013
:1034800062E00E94181A089584E58093070783E29A
:103490008093080782E067E00E94181A909108075D
:1034A00080E020910907820F911D9093E00780939F
:1034B000DF0790910A0780E020910B07820F911D92
:1034C0009093E2078093E10790910C0780E02091B0
:1034D0000D07820F911D9093220780932107089575
:1034E00084E58093070782E2809308078091DD07D7
:1034F0009091DE079093090780930A078091230734
:103500009091240790930B0780930C078091E30719
:103510009091E40790930D0780930E0788E062E096
:103520000E94181A089584E58093070781E280932A
:10353000080782E067E00E94181A9091080780E06F
:1035400020910907820F911D9093DE078093DD077C
:1035500090910A0780E020910B07820F911D9093B4
:1035600024078093230790910C0780E020910D079A
:10357000820F911D9093E4078093E307089524E55B
:103580002093070720E22093080790930907809370
:103590000A0784E062E00E94181A089594E5909367
:1035A000070793E1909308078093090783E063E09E
:1035B0000E94181A3091080720E080910907280F0F
:1035C000311DC901089584E58093070782E1809346
:1035D000080782E062E00E94181A80910807809331
:1035E0002507089584E58093070781E18093080704
:1035F0008091DC078093090783E062E00E94181A3B
:10360000089584E58093070780E1809308078091FF
:1036100026078093090783E062E00E94181A089544
:1036200084E58093070786E08093080782E062E0E4
:103630000E94181A80910807089584E5809307076F
:1036400085E08093080782E062E00E94181A80916A
:103650000807089584E58093070784E080930807AE
:1036600082E062E00E94181A8091080708950F9383
:103670001F93182F062F84E58093070783E080931C
:1036800008071093090760930A0784E061E10E942C
:10369000181AE8E0F7E007C0A12FB0E0A95DB84F25
:1036A00081918C93100F153B20F487E0E831F807E7
:1036B00099F71F910F91089594E59093070792E071
:1036C000909308078093090760930A0784E062E0FB
:1036D0000E94181A089594E59093070791E090933B
:1036E00008078093090783E062E00E94181A089592
:1036F00084E5809307071092080782E062E00E9449
:10370000181A0895991B79E004C0991F961708F0BC
:10371000961B881F7A95C9F78095089597FB092E07
:1037200007260AD077FD04D049D006D000201AF42D
:10373000709561957F4F0895F6F7909581959F4F0D
:103740000895A1E21A2EAA1BBB1BFD010DC0AA1FE2
:10375000BB1FEE1FFF1FA217B307E407F50720F0FA
:10376000A21BB30BE40BF50B661F771F881F991F75
:103770001A9469F760957095809590959B01AC01BE
:10378000BD01CF01089597FB092E05260ED057FDE8
:1037900004D0D7DF0AD0001C38F4509540953095FE
:1037A00021953F4F4F4F5F4F0895F6F790958095C5
:1037B000709561957F4F8F4F9F4F0895AA1BBB1B3C
:1037C00051E107C0AA1FBB1FA617B70710F0A61B21
:1037D000B70B881F991F5A95A9F780959095BC0142
:1037E000CD010895283008F027E03327DA01990F3A
:1037F000311D87FD916000966105710539F43260D5
:103800002E5F3D9330E32A95E1F708959F3F30F016
:1038100080387105610509F03C5F3C5F3D93913054
:1038200008F08068911DDF93CF931F930F93FF9251
:10383000EF92192F987F9695E92F96959695E90F17
:10384000FF27E556FD4F99273327EE24FF24A701D4
:10385000E70105900894079428F4360FE71EF81E38
:10386000491F511D660F771F881F991F0694A1F7E6
:103870000590079428F4E70EF81E491F561FC11D36
:10388000770F881F991F661F0694A1F7059007946C
:1038900028F4F80E491F561FC71FD11D880F991F06
:1038A000661F771F0694A1F70590079420F4490F2F
:1038B000561FC71FD81F990F661F771F881F0694B2
:1038C000A9F784911095177041F0D695C795579533
:1038D0004795F794E7941A95C1F7E1E4F2E068940C
:1038E0001590159135916591959105907FE27395AD
:1038F000E118F10A430B560BC90BD009C0F7E10CD4
:10390000F11E431F561FC91FD01D7EF4703311F4E2
:103910008A95E6CFE894015030F0080F0AF40027AA
:10392000021708F4202F2395022F7A3328F079E329
:103930007D932A95E9F710C07D932A9589F6069420
:1039400097956795379517951794E118F10A430BEA
:10395000560BC90BD00998F023957E9173957A3355
:1039600008F070E37C932013B8F77E9170617D932B
:1039700030F0839571E37D9370E32A95E1F711248C
:10398000EF90FF900F911F91CF91DF91992787FDC5
:1039900090950895FC010590615070400110D8F792
:1039A000809590958E0F9F1F0895FB01DC0101907B
:1039B0000D920020E1F70895FC01615070400190E4
:1039C0000110D8F7809590958E0F9F1F08950F9343
:1039D0001F93CF93DF938C01EB018B8181FF1BC081
:1039E00082FF0DC02E813F818C819D812817390770
:1039F00064F4E881F9810193F983E88306C0E885DE
:103A0000F985802F0995892B31F48E819F8101964C
:103A10009F838E8302C00FEF1FEFC801DF91CF910C
:103A20001F910F9108950F931F93DF93CF93CDB7FD
:103A3000DEB72E970FB6F894DEBF0FBECDBF0D894F
:103A40001E8986E08C831A8309838FEF9FE79E830C
:103A50008D839E01275E3F4FCE0101966F89788D41
:103A6000A9010E9460152F813885020F131FF801EC
:103A700010822E960FB6F894DEBF0FBECDBFCF9149
:103A8000DF911F910F910895FA01AA27283051F173
:103A9000203181F1E8946F936E7F6E5F7F4F8F4F7F
:103AA0009F4FAF4FB1E03ED0B4E03CD0670F781FDE
:103AB000891F9A1FA11D680F791F8A1F911DA11DC3
:103AC0006A0F711D811D911DA11D20D009F46894FC
:103AD0003F912AE0269F11243019305D3193DEF6A4
:103AE000CF010895462F4770405D4193B3E00FD05A
:103AF000C9F7F6CF462F4F70405D4A3318F0495D45
:103B000031FD4052419302D0A9F7EACFB4E0A69527
:103B10009795879577956795BA95C9F70097610549
:103B2000710508959B01AC010A2E0694579547959F
:103B300037952795BA95C9F7620F731F841F951F94
:083B4000A01D0895F894FFCFC9
:103B480064726976653A203A202569002D3E204145
:103B580075746F6D6174696B002D3E204D616E75D3
:103B6800656C6C0074657374313A202533690054B0
:103B780069636B73206C3A202533692020723A20E0
:103B8800253369005370656564206C3A20253369D4
:103B98002020723A202533690025336920253369AE
:103BA8002025336920253369202533690073746122
:103BB8007475733A202531690062656C6567743ADB
:103BC800202533690057696E6B656C203A25336987
:103BD800204E44533A2025336920002020202020FD
:103BE80020202020202020202020202020202020CD
:103BF80020002020202020202020202020202000FD
:103C080020202020202020202020202020202020AC
:103C180020202020005643433A2025322E316620AA
:103C28005600000000000000000000000000000036
:103C3800000000000000000000000000000000007C
:103C4800000000000000000000000000000000006C
:103C5800000000000000000000000000000000005C
:103C6800000000000000000000000000000000004C
:103C7800000000000000000000000000000000003C
:103C88000000000000000300000000000400005FC6
:103C980000000E00070007001F147F147F141F2464
:103CA8002A7F2A121F23130864621F36495522509F
:103CB8000600050300000E001C2241000E004122F0
:103CC8001C001F14083E08141F08083E08080600B8
:103CD800A06000000F0808080808060060600000DF
:103CE8000E00601C03001F3E5149453E0E00427FF6
:103CF80040001F42615149461D2141454B311F1863
:103D080014127F101D2745454539173C4A4949304B
:103D18001E01710905031D36494949361D064949E1
:103D2800291E0600363600000600AC6C00000F089D
:103D3800142241000F14141414141E0041221408F4
:103D48001F02015109061F324979413E1F7C121199
:103D5800127C177F49494936173E414141221F7F4E
:103D68004141221C177F49494941177F0909090127
:103D7800173E4149497A177F0808087F0E00417F9E
:103D880041001F2040413F011F7F08142241177F37
:103D9800404040401F7F020C027F1F7F0408107FB5
:103DA800173E4141413E177F09090906173E414127
:103DB80041BE1D7F091929461746494949311F0146
:103DC800017F0101173F4040403F1F1F2040201F37
:103DD8001F3F4038403F1F63140814631F070870D3
:103DE80008071F61514945430E007F4141000E00FD
:103DF800031C60000E0041417F000E040201020412
:103E08001F40404040400C00000304001720545459
:103E18005478177F484444381738444444201D38A0
:103E28004444487F17385454541817087E0901022F
:103E38001718A4A4A478177F080404780E00447DFA
:103E480040000D4080847D000F7F102844000E0044
:103E5800417F40001F7C04780478177C08040478AC
:103E680017384444443817FC2424241817182424E9
:103E780024FC177C080404081748545454201704D9
:103E88003F4440201D3C4040207C1F1C2040201CFB
:103E98001F3C4030403C1F4428102844171CA0A059
:103EA800A07C1F4464544C440E00083641000400B2
:103EB800007F00000E00413608001F0201020402C4
:063EC8001FAA55AA55AA2D
:00000001FF
