:100000000C949E010C94BD010C94BD010C94BD0197
:100010000C94BD010C94BD010C94BD010C94BD0168
:100020000C94BD010C94BD010C940D050C94BD0104
:100030000C94BD010C94BD010C94E4110C94BD0111
:100040000C94BD010C94DF080C9401030C94D202B3
:100050000C94BD010C94BD010C94BD010C94BD0128
:100060000C94BD010C94BD010C94BD010C94BD0118
:100070000C94BD010C94BD010C94BD010C94BD0108
:100080000C94BD010C942D180C94BD0100000000CF
:100090000000000000000000000000000000000060
:1000A0000000000000000000008056010002000077
:1000B000FEFFFF030300C0FFFFFFBF0100E00F00D2
:1000C000C4FF0100E0030000F00300E07F0000E057
:1000D0000300C0FCFFFFFF0300C081FFFFBF010062
:1000E00080030000DF010000030080FB0000000728
:1000F00000C07F0000000E00C03F0000000C00E0C8
:100100003F0000001C00F80F0000003800DC0E006B
:1001100000007000FC07000000E000FE030000008B
:10012000C080FF01000000C0C1FF0000000080E3AC
:100130003C0000000000E73F0000000000E60F0068
:1001400000000000EE070000000000DC07000000D7
:100150000000B8030000000000F8010000000000EB
:10016000F0010000000000F0000000000000F000BE
:100170000000000000F0000000000000F00000009F
:10018000000000F0000000000000F000000000008F
:100190000070000000000000E0000000000000F01F
:1001A000000000000000F0000000000000700000EF
:1001B00000000000E00000000000007000000000EF
:1001C000000070000000000000700000000000004F
:1001D00060000000000000700000000000007000DF
:1001E000000000000060000000000000700000003F
:1001F000000080FF0700000000F0FF3F000000004B
:1002000070F87C0000000038FCE100000000F00104
:10021000F800000000E0FF7F0000000000FF0F007A
:1002200000000000000000000000000000000000CE
:1002300031363300322E3131006E616E00696E66E8
:100240000000407A10F35A00A0724E18090010A561
:10025000D4E80000E87648170000E40B54020000E0
:10026000CA9A3B000000E1F5050000809698000066
:100270000040420F000000A086010000001027008F
:10028000000000E803000000006400000000000A15
:1002900000000000000100000000002C76D888DC7F
:1002A000674F0823DFC1DFAE59E1B1B796E5E3E45C
:1002B00053C63AE651997696E8E6C28426EB898CD5
:1002C0009B62ED407C6FFCEFBC9C9F40F2BAA56F37
:1002D000A5F490055A2AF75C936B6CF9676DC11B06
:1002E000FCE0E40D47FEF520E6B500D0ED902E03CE
:1002F00000943577050080841E080000204E0A0017
:100300000000C80C333333330F986E12831141EF62
:100310008D2114893BE65516CFFEE6DB18D1844BC0
:10032000381BF77C1D901DA4BBE424203284725E30
:10033000228100C9F124ECA1E53D270011241FBE54
:10034000CFEFD0E1DEBFCDBF14E0A0E0B1E0E0EC44
:10035000F8E300E00BBF02C007900D92AC37B10785
:10036000D9F717E0ACE7B4E001C01D92AB3DB1078F
:10037000E1F70E9494040C945E1C0C9400008091A0
:100380007D04882311F010927D04089590913E061B
:1003900080913F06981711F480E008950E9497021B
:1003A000089590913E0680913F06981721F10E9492
:1003B000C601982F883621F481E080937C0404C024
:1003C00080917C048823C1F080917E04E82FF0E0C6
:1003D000E75CFA4F90838F5F80937E04843061F4F2
:1003E00010927E0410927C04963131F480913A058B
:1003F00080937D040895FFCF0895982F8091400643
:10040000883C41F0892F0E94B00282E090E00E9477
:10041000B0080895FFCFEF92FF920F931F93CF93F1
:10042000DF93182F062F7A0188E60E94FD01812FA5
:100430000E94FD01802F0E94FD01C0E0D0E010E08D
:1004400007C0F701EC0FFD1F80810E94FD0121967E
:10045000C017D107B4F386E10E94FD01DF91CF916F
:100460001F910F91FF90EF900895DF93CF930F921C
:10047000CDB7DEB7898385E061E0AE014F5F5F4FA6
:100480000E940B020F90CF91DF91089560E040E051
:1004900050E00E940B020895982FAB0184E0692F71
:1004A0000E940B020895DF93CF9300D000D00F92EB
:1004B000CDB7DEB7DC01FE0131969E012A5F3F4FCA
:1004C00011968C91119781931296E217F307C1F759
:1004D00083E065E0AE014F5F5F4F0E940B020F901B
:1004E0000F900F900F900F90CF91DF9108950E9481
:1004F00081020E94CD02089580E895E20E94770271
:1005000008959C0140E050E084E0220F331F441F17
:10051000551F8A95D1F760E074E284EF90E00E9465
:100520005D1A215030403093900029B90895F89415
:1005300090913E06E92FF0E0EC5BFA4FE08180916C
:100540003F06823311F490933F06892F8F5F80938B
:100550003E06823310F010923E0678948E2F089556
:10056000282FF89480914006E82FF0E0EA58FA4FDF
:1005700020838F5F80934006883C10F010924006E5
:100580009091400680914305981719F488EC809368
:100590004006559A7894822F089588EB8AB9089579
:1005A0001AB808951F920F920FB60F920BB60F92C2
:1005B00011248F939F93EF93FF9380914305909124
:1005C0004006891791F0E82FF0E0EA58FA4FE081F1
:1005D000983C11F4809340068F5F80934305883CDC
:1005E00010F010924305ECB901C05598FF91EF91BE
:1005F0009F918F910F900BBE0F900FBE0F901F9089
:1006000018951F920F920FB60F920BB60F921124EE
:100610002F933F934F935F936F937F938F939F930A
:10062000AF93BF93EF93FF939CB180913F068233CA
:10063000A9F0E82FF0E0EC5BFA4F90838F5F809396
:100640003F06823310F010923F0690913F06809152
:100650003E06981719F482E380933F060E94D10169
:10066000FF91EF91BF91AF919F918F917F916F918A
:100670005F914F913F912F910F900BBE0F900FBE46
:100680000F901F9018950F931F938B019C01442787
:1006900037FD4095542F60E573EC80E090E00E94B8
:1006A0007F1A84E690E0089FB001099F700D189FA3
:1006B000700D1124A5E323C0C498FB0106C0319737
:1006C0008A2F8A95F1F7309741F0A901C901861B5D
:1006D000970B8E0F9F1F892B91F7C49ABF014E1B5A
:1006E0005F0B05C0615070408A2F8A95F1F7611544
:1006F000710529F0CA01860F971F892B99F761159B
:100700007105D1F681E090E01F910F9108950E944C
:100710001E188AE590E00E94271A08950F931F93F0
:10072000082F10E0812F90E00E94271A112319F45E
:1007300084EF91E002C084E690E00E94B0080E943D
:10074000520F0E94D919282F812F602F0E943E1A24
:10075000E82FF0E0E158FB4F2083100F143B10F31B
:100760008AE590E00E9487038FE794E01F910F9144
:1007700008950E94520F8091AD069091AE06805070
:10078000974410F082E001C081E067E00E943711D9
:100790008091AF069091B0068050974410F082E0AF
:1007A00001C081E066E00E9437118091B10690910E
:1007B000B2068050974430F082E065E00E94371125
:1007C00082E005C081E065E00E94371181E064E0CD
:1007D0000E9437118091B3069091B40680509744DF
:1007E00010F082E001C081E063E00E943711809147
:1007F000B5069091B6068050974410F082E001C093
:1008000081E062E00E943711089584E10E9455065C
:100810000E94AB058330D9F0843019F40E9435066C
:1008200008958530F9F486EF9FEF66EF7FEF4AE099
:1008300050E00E943A108CED95E00E94B0080E94B2
:10084000AB050E948705882329F00E94EE0F0E94C5
:10085000150608950E949905882329F30E94EE0F3A
:100860000E94350608950E94231178940E943A0749
:1008700080E091E00E94DA0689E091E00E94DA06C9
:1008800088EE93E00E94B0080E94D7088FE091E0C4
:100890000E94DA0684EF91E00E94B0080E947C0278
:1008A0008DE191E00E94DA0684EF91E00E94B008A9
:1008B0000E9488118BE291E00E94DA0684EF91E0B9
:1008C0000E94B0080E94A01089E391E00E94DA061D
:1008D00084EF91E00E94B0080E94870387E491E0D2
:1008E0000E94DA0684EF91E00E94B0080E942F1166
:1008F00085E591E00E94DA0684EF91E00E94B0085D
:1009000085E085BD87B7806487BF83E691E00E945C
:10091000DA0681E791E00E94DA0688EE93E00E9411
:10092000B0080E94110708950F931F930E9433048B
:100930000E94BF01182F0E944907113029F489E74E
:1009400091E00E94DA060AC0849926C089E791E006
:100950000E94DA0684EF91E00E94B0080E94BF0175
:10096000182F0E944907123011F0849909C086E8B7
:1009700091E00E94DA0684EF91E00E94B0080CC07A
:10098000143039F482E00E948E03BC018BE50E9492
:100990004C020E940504E2CF0E94EE0F143041F495
:1009A00082E00E948E03BC018BE50E944C02C0CF06
:1009B0001630C9F40E94BF01182F873039F084E146
:1009C0000E945506082F143059F403C00E94EE0F00
:1009D000AFCF82E00E948E03BC018BE50E944C02E7
:1009E000013041F3A5CF1C3019F40E944506A0CF79
:1009F0001B3019F40E9435069BCF1D3019F40E945C
:100A0000150696CF1E3019F40E94250691CF1A3094
:100A100009F08ECF0E9405068BCF1F920F920FB662
:100A20000F920BB60F9211242F933F934F935F9326
:100A30006F937F938F939F93AF93BF93EF93FF93A6
:100A40000E94B903809133059091340501969093EB
:100A500034058093330501978837910544F110924E
:100A60003405109233050E941B116091EB067091C2
:100A7000EC0680E090E00E94071329EB3CEF47E88A
:100A80005CE30E94B9132CEE31E548E95FE30E9474
:100A90009E1220E030E048E051E40E940313181653
:100AA00034F088EB9BE064E670E00E944303FF9122
:100AB000EF91BF91AF919F918F917F916F915F91D6
:100AC0004F913F912F910F900BBE0F900FBE0F9043
:100AD0001F9018958091AF069091B0068050964473
:100AE00098F48091B1069091B2068050964460F4DB
:100AF00020E08091B3069091B4068050964408F0AF
:100B000021E081E0282701C020E0822F0895809114
:100B1000AD069091AE068050964448F48091AF06A1
:100B20009091B0068050964410F483E0089580E0E0
:100B300008958091B5069091B6068050964448F489
:100B40008091B3069091B4068050964410F484E0EE
:100B5000089580E008950E94520F2091AF063091D1
:100B6000B00646E42030340700F58091B10690913C
:100B7000B20680509644C8F48091B3069091B406B2
:100B80008050964490F481E0089520503644A0F4BB
:100B900083E008958091B3069091B4068050964406
:100BA00010F484E0089585E008958091AD06909159
:100BB000AE068050964448F38091B5069091B606F3
:100BC0008050964480F7E6CF0E94B00880E090E025
:100BD00060E070E00E9466100E94520F8DEA96E07D
:100BE0000E94530208950E94520F8091A90690918D
:100BF000AA061816190614F40E94350280E090E047
:100C000060E070E00E946610089585E390E06BEC70
:100C10007FEF4AE050E00E943A108AE00E944602CC
:100C200080EA9FE00E94E40508958DE090E063EF84
:100C30007FEF4AE050E00E943A108DE00E944602A9
:100C400080ED97E00E94E40508958BE190E065EE69
:100C50007FEF4AE050E00E943A108EE00E94460288
:100C600080ED97E00E94E405089583EF9FEF6DE02B
:100C700070E04AE050E00E943A108BE00E94460289
:100C800080ED97E00E94E405089585EE9FEF6BE10B
:100C900070E04AE050E00E943A108CE00E94460268
:100CA00080ED97E00E94E40508951F93182F0E949D
:100CB000520F80E090E060E070E00E94661080914A
:100CC000AF069091B0068050964410F58091B10621
:100CD0009091B20680509644D8F48091B3069091DA
:100CE000B40680509644A0F4812F90E0612F70E00C
:100CF0000E940A1011E084E690E00E94B0080E9471
:100D0000F30580E090E00E94E405812F1F91089593
:100D10000E94EE0F10E0EFCFAF92BF92DF92EF9202
:100D2000FF920F931F93CF93DF93C0E0D0E0DD24B9
:100D300084E1A82EB12C2BC07E010894E11CF11C8B
:100D400081E36D2D0E94B00A81E991E00E94320F8B
:100D500080913505909136058C0F9D1F65E070E000
:100D60000E944A1A8C0181E36D2D0E94B00A0A9DEF
:100D7000C0010B9D900D1A9D900D112488529E4F1D
:100D80000E94320F8AE090E00E94B008E7018AE0FA
:100D9000D80E8091370590913805C817D90764F2AD
:100DA000DF91CF911F910F91FF90EF90DF90BF9057
:100DB000AF900895FC0180913705909138052091FE
:100DC000350530913605820F931F65E070E00E9473
:100DD0004A1A24E130E0AC01429FC001439F900DCC
:100DE000529F900D112488529E4FBF010E94911B6B
:100DF00080913705909138058530910534F401963E
:100E0000909338058093370509C0809135059091FE
:100E10003605019690933605809335050E948C0621
:100E200008951F93CF93DF93F8941AE081E3612F25
:100E30000E94B00A88EA91E00E94320F165F1C33CC
:100E4000A9F7C8EDD1E0CE0166EB71E00E94911BDD
:100E5000649682E0CC33D807B1F710923605109231
:100E6000350510923805109237057894DF91CF91AF
:100E70001F9108950E9452080E94710A80E060E06C
:100E80000E94B00A81E36CE34CE850E00E94B20B90
:100E90000895EF92FF920F931F93DF93CF93CDB7F7
:100EA000DEB764970FB6F894DEBF0FBECDBF1982D0
:100EB0001A821B821C82FE01359680E1DF011D92A1
:100EC0008A95E9F70E941B11EDB7FEB738970FB668
:100ED000F894FEBF0FBEEDBF0DB71EB70F5F1F4FDB
:100EE0007E010894E11CF11CF282E1828BEC91E01E
:100EF000D80113969C938E9312976091EB06709194
:100F0000EC0680E090E00E94071329EB3CEF47E8F5
:100F10005CE30E94B9132CEE31E548E95FE30E94DF
:100F20009E12F80164837583868397830E94CF1B8A
:100F30008DB79EB708960FB6F8949EBF0FBE8DBFB3
:100F400081E360E00E94B00AC7010E94320F6496FC
:100F50000FB6F894DEBF0FBECDBFCF91DF911F91CA
:100F60000F91FF90EF90089590916500282F30E049
:100F700080E0A9014170507020FF81E09E7F982B96
:100F800090936500809165004115510511F490E042
:100F900001C092E08D7F892B809365008091650070
:100FA00021FD02C090E001C098E0877F892B8093EB
:100FB0006500809165008F7E809365008FEF8ABB0E
:100FC0006BBB85E0982F9A95F1F79091650094603E
:100FD00090936500982F9A95F1F7909165009B7F0B
:100FE000909365008A95F1F71BBA1ABA089590910B
:100FF0006500282F30E080E0A9014170507020FF8B
:1010000081E09E7F982B909365008091650041154B
:10101000510511F490E001C092E08D7F892B8093FF
:1010200065008091650021FD02C090E001C098E05C
:10103000877F892B80936500809165008061809314
:1010400065001ABA25E0822F8A95F1F78091650034
:1010500084608093650085E18A95F1F789B390916A
:1010600065009B7F90936500922F9A95F1F7089504
:101070001F93CF93DF9390914106992371F0182F1E
:101080001170CFEFDFEF812F0E94F707219787FDC7
:1010900002C081E003C02097B1F780E0DF91CF91DB
:1010A0001F9108958FEF80934106809164008860BE
:1010B00080936400809164008061809364008091DB
:1010C00064008460809364008091640081608093F8
:1010D000640080916400826080936400B89A1ABAB8
:1010E00080916500877F80936500809165008F7E89
:1010F00080936500809165008B7F8093650080916F
:1011000065008E7F80936500809165008D7F809360
:101110006500C098979B07C0979880EA9FE0019769
:10112000F1F7979A04C080EA9FE00197F1F7C09A1F
:1011300080E00E943808882351F081E00E9438083E
:10114000882311F082E001C081E080934106809104
:1011500041068F3F11F41092410680914106089597
:1011600020EA3FE004C0F9013197F1F701970097B9
:10117000D1F7089510927E0680935F06982F9F5FA7
:101180009093610696E990937F06F89403C0789453
:101190000000F894B09BFBCF90EC9DB98FB996E915
:1011A000982790937D06779A789480E00895B89870
:1011B000C098BB9AC39A80E00E94BA0808951F9213
:1011C0000F920FB60F920BB60F9211242F933F93ED
:1011D0004F935F936F937F938F939F93AF93BF933F
:1011E000EF93FF939FB120917F06292720937F06DD
:1011F00080917E068823B1F490935D069C3130F097
:1012000010925F0610925D0691E009C0492F50E0F0
:101210002091610630E042175307FCF09F5F9093E6
:1012200061061BC0482F50E060915D0670E06417B6
:1012300075072CF04F59594FFA0190830EC0415059
:1012400050404617570749F4222339F090915E0623
:101250009F5F90935E0610925D0690915F068917DE
:1012600050F4E82FF0E0EE5BF94F20812FB9909118
:101270007D06922711C0891731F490917D069FB9A0
:1012800010927D060BC090916106891758F49FEF6C
:101290009FB990917D06909590937D068F5F809386
:1012A0007E0611C0B898C0981DB8B898C0988091B3
:1012B00060068F5F80936006789480915D060E943F
:1012C000C5100E94BA08FF91EF91BF91AF919F9115
:1012D0008F917F916F915F914F913F912F910F90DF
:1012E0000BBE0F900FBE0F901F9018958091830634
:1012F000089580918C060895809380060895982F14
:101300009052903608F080E8805290E0FC01EE0F99
:10131000FF1FE80FF91FEE0FFF1FE45CFD4F9081E8
:1013200080918206882309F49FE180E020E090FD0F
:101330008F5F2F5F253011F09695F9CF08951F9399
:10134000CF93DF93EC0110E005C021960E947F0946
:101350008F5F180F88818823C1F7812FDF91CF918C
:101360001F9108951F93CF93DF93EC0110E007C006
:101370002196F90184910E947F098F5F180F9E01C9
:10138000FE0194919923A1F7812FDF91CF911F91B5
:10139000089580938206089580918206089586318B
:1013A00030F4683020F46093810680938D060895B0
:1013B0000F931F93DF93CF930F92CDB7DEB7182F04
:1013C0006854883018F580E069830E94380880E00E
:1013D00069810E94B40780E00E943808612F660F7F
:1013E000660F660F605C80E00E94B40704E816E0B8
:1013F00082E00E94380882E0F80161918F010E942A
:10140000B407F6E00C381F0799F723C0185081E0A5
:1014100069830E94380881E069810E94B40781E0F5
:101420000E943808612F660F660F660F605C81E0CE
:101430000E94B40704E816E083E00E94380883E0C5
:10144000F80161918F010E94B407F6E00C381F0784
:1014500099F70F90CF91DF911F910F910895FF920F
:101460000F931F93F82E18EB80E00E94380881E05C
:101470000E94380880E0612F0E94B40781E0612F4C
:101480000E94B40700E082E00E94380883E00E94D6
:10149000380882E06F2D0E94B40783E06F2D0E9410
:1014A000B4070F5F003479F71F5F103CE9F680E066
:1014B0000E94380881E00E94380880E068EB0E94B2
:1014C000B40781E068EB0E94B4071F910F91FF9071
:1014D000089580E00E942F0A1092810610928D06D6
:1014E000089580E00E94380880E06FE30E94B4070E
:1014F00080E00E94380880E060EC0E94B40780E041
:101500000E94380880E060E40E94B40780E00E94F6
:10151000380880E068EB0E94B40781E00E94380838
:1015200081E06FE30E94B40781E00E94380881E007
:1015300060EC0E94B40781E00E94380881E060E41A
:101540000E94B40781E00E94380881E068EB0E94A5
:10155000B40780E00E942F0A81E0809380060895FE
:101560000F931F93182F062F8093830660938C068A
:1015700080E00E94380881E00E94380806950695B0
:101580000695085480E0602F0E94B40781E0602F28
:101590000E94B40780E00E94380881E00E94380869
:1015A000113438F080E060E40E94B40781E0612FDC
:1015B00007C0612F605C80E00E94B40781E060E4B6
:1015C0000E94B4071F910F910895EF92FF920F931D
:1015D0001F93CF93DF9319EB47C00830E8F480E006
:1015E0000E94380880E0612F0E94B40780E00E94CA
:1015F00038086F2D605C80E00E94B40782E00E9492
:10160000F707C4E8D6E082E00E94F707899386E0F6
:10161000CC38D807C1F71BC081E00E94380881E0B0
:10162000612F0E94B40781E00E94380881E06F2D8D
:101630000E94B40783E00E94F707C4E8D6E083E085
:101640000E94F707899386E0CC38D807C1F7802F2E
:101650006E2D0E94D8090F5F88E0F80E003109F066
:10166000BCCF1F5F103C31F0FF2400E037E4E32ED5
:10167000E10EB3CFE4E8F6E0119286E0EC38F8072B
:10168000D9F710E0812F67E00E94D8091F5F103161
:10169000C9F780918106882319F0815080938106D3
:1016A000DF91CF911F910F91FF90EF900895EF92EE
:1016B000FF920F931F93E82E162F8091830687FDCC
:1016C00039C000E0803408F001E0802F0E94380823
:1016D00042E0F42EF00E8F2D0E94F7078F2D0E940E
:1016E000F7079091800692FF02C0E0949B7FE12271
:1016F000992319F41E2D182B08C0913021F4109550
:1017000018231E2902C01E2D1827802F0E9438087A
:10171000609183066064802F0E94B407802F0E942E
:1017200038088F2D612F0E94B407809183068F5F48
:10173000809383061F910F91FF90EF9008959091F1
:101740008C06977061E070E002C0660F771F9A9573
:10175000E2F7882311F0862F02C0862F60E00E94F6
:10176000570B08952F923F924F925F926F927F9204
:101770008F929F92AF92BF92CF92DF92EF92FF92A1
:101780000F931F93DF93CF9300D000D000D0CDB73D
:10179000DEB7082F162F5A83498360908306E090A6
:1017A0008C068E2D87702FEF30E0F22E01C0FF0CDB
:1017B0008A95EAF7802F90E0019768E070E00E9438
:1017C0004A1A6F5FA62EBB24C50173E0880F991FCC
:1017D0007A95E1F744245524481A590ACC2468E044
:1017E000762E5FEF852E912CBC82AB8271C08E2D40
:1017F0008770D72CD81A1D1548F48D2D811B9401A4
:1018000002C0359527958A95E2F7F2228D2D8C0D31
:1018100090E08A9D10018B9D300C9A9D300C112414
:1018200080E090E09E838D8343C04D815E81477050
:1018300050704115510571F5E695E695E695C101A3
:101840008E0F911DFC01A981BA81EA0FFB1FE40DE7
:10185000F51D20E030E06D817E819491A4E8B6E032
:101860008C9186958C9390FF02C080688C93119622
:1018700086E0AC38B80711F09695F2CF2F5F3F4F56
:101880002830310529F0AB81BC81EA0FFB1FE5CF81
:101890007E836D834C57594FFA0180818F216F2DC4
:1018A0000E94570B2D813E812F5F3F4F3E832D833A
:1018B000ED81E01708F4B9CF1D1508F4D12E1D19DC
:1018C000ED0CCD0C862D6E2D0E94B00AFF24FA94EB
:1018D000112309F08CCF26960FB6F894DEBF0FBE09
:1018E000CDBFCF91DF911F910F91FF90EF90DF90CF
:1018F000CF90BF90AF909F908F907F906F905F90B0
:101900004F903F902F9008952F923F924F925F9269
:101910006F927F928F929F92AF92BF92CF92DF92FF
:10192000EF92FF920F931F93DF93CF9300D000D0DD
:1019300000D0CDB7DEB7082F162F5A8349836090A9
:101940008306E0908C068E2D87702FEF30E0F22E0C
:1019500001C0FF0C8A95EAF7802F90E0019768E0BC
:1019600070E00E944A1A6F5FA62EBB24C501A3E057
:10197000880F991FAA95E1F744245524481A590A5B
:10198000CC24F8E07F2EEFEF8E2E912CBC82AB8220
:1019900071C08E2D8770D72CD81A1D1548F48D2D47
:1019A000811B940102C0359527958A95E2F7F222B2
:1019B0008D2D8C0D90E08A9D10018B9D300C9A9D91
:1019C000300C112480E090E09E838D8343C04D81D4
:1019D0005E81477050704115510571F5E695E695A9
:1019E000E695C1018E0F911DFC01A981BA81EA0F14
:1019F000FB1FE40DF51D20E030E06D817E819081BC
:101A0000A4E8B6E08C9186958C9390FF02C0806824
:101A10008C93119686E0AC38B80711F09695F2CF0A
:101A20002F5F3F4F2830310529F0AB81BC81EA0F91
:101A3000FB1FE5CF7E836D834C57594FFA018081A0
:101A40008F216F2D0E94570B2D813E812F5F3F4FBD
:101A50003E832D83ED81E01708F4B9CF1D1508F4FE
:101A6000D12E1D19ED0CCD0C862D6E2D0E94B00AC5
:101A7000FF24FA94112309F08CCF26960FB6F89420
:101A8000DEBF0FBECDBFCF91DF911F910F91FF90B1
:101A9000EF90DF90CF90BF90AF909F908F907F900E
:101AA0006F905F904F903F902F900895AF92BF92AC
:101AB000CF92DF92EF92FF920F931F93CF93DF931A
:101AC000A82E162FB0908306F0908C068F2D87706D
:101AD0002FEF30E0022F01C0000F8A95EAF7B8E03F
:101AE000CB2ECFEFD0E022C08F2D8770EC2CE81AE0
:101AF0001E1548F48E2D811B9E0102C03595279539
:101B00008A95E2F70223DA2C05C0802F602F0E940D
:101B1000570BDA94DD20C9F71E1508F4E12E1E19C3
:101B2000FE0C8B2D6F2D0E94B00A0FEF1123E1F6F2
:101B3000DF91CF911F910F91FF90EF90DF90CF90A9
:101B4000BF90AF900895682F81E00E94560D0895D0
:101B50000F931F93182F80918C06877021E030E03F
:101B6000022F01C0000F8A95EAF705C0802F602F71
:101B70000E94570B11501123C9F71F910F9108951F
:101B80009F92AF92BF92CF92DF92EF92FF920F930C
:101B90001F93082F162FF0908306E0908C068F1568
:101BA00061F4E61618F4862F8E1904C00E94B00A5C
:101BB0008E2D811B0E94A30D5EC0DE2C6E1559F484
:101BC000F81610F48F1904C00E94B00A8F2D801BE4
:101BD0000E94A80D50C08F1528F4AF2CA81A992484
:101BE0009A9409C0F81618F09924AA2404C0A82EC3
:101BF000AF18992493941E1528F4BE2CB11ACC2446
:101C0000CA9409C0E11618F0CC24BB2404C0B12E3C
:101C1000BE18CC24C39481E00E949F0BBA14B0F488
:101C2000EA2CE694E194F90CEB0C1E1414F4EA1877
:101C3000DC0C8F2D6D2D0E94B00A81E00E949F0B5D
:101C4000F90C8F2D8919801779F715C0DB2CD694E4
:101C5000D194EC0CDA0C1D1414F4DB18F90C8F2D54
:101C60006E2D0E94B00A81E00E949F0BEC0C8E2D1D
:101C70008C19811779F7802F612F0E94B00A1F916C
:101C80000F91FF90EF90DF90CF90BF90AF909F901B
:101C900008958F929F92AF92BF92CF92DF92EF9270
:101CA000FF920F931F93CF93DF93062F982F90529D
:101CB000903608F080E8805296E0899FE001112478
:101CC000C45CDD4F188180918206882309F41FE1EE
:101CD000E02EFF24E7FCF0948FEF90E06C010E2CD7
:101CE00002C0CC0CDD1C0A94E2F7AA24BB24AE1877
:101CF000BF080A2C02C0959587950A94E2F7D82E62
:101D000085E0882E912C8C0E9D1E10FF16C08981B7
:101D100007FD09C090E00E2C02C0880F991F0A949D
:101D2000E2F76C2D08C090E00A2C02C095958795CB
:101D30000A94E2F76D2D0E94570B2196C815D9051C
:101D400011F01695E2CF07FD03C080E06C2D02C0B4
:101D500080E06D2D0E94570BDF91CF911F910F9165
:101D6000FF90EF90DF90CF90BF90AF909F908F90BB
:101D70000895FF920F931F93082FF0908306109100
:101D80008C061770612F0E94490E112391F060910B
:101D90008C06685F8F2D0E94B00A612F6850802FDB
:101DA0000E94490E60918C066850809183060E94C3
:101DB000B00A1F910F91FF9008951F93CF93DF9367
:101DC000EC011092820636C01A3069F410928D062A
:101DD000809181068F5F80938106883059F581E07C
:101DE0000E94E50A27C01D3029F180918D068531BA
:101DF00060F010928D06809181068F5F809381063E
:101E0000883019F481E00E94E50A90918D06892FAF
:101E1000880F890F60918106660F660F660F880F25
:101E20000E94B00A812F0E94B90E80918D068F5FAB
:101E300080938D061991112339F6DF91CF911F916F
:101E40000895CF93DF93EC0105C02196F9018491A9
:101E50000E94B90E9E01FE0194919923B1F7DF9182
:101E6000CF910895CF93DF93EC0103C021960E9498
:101E7000B90E88818823D1F7DF91CF91089590E042
:101E8000282F30E0F90183E0EE0FFF1F8A95E1F77C
:101E9000E21BF30BEC56F94F80818F3F09F091E084
:101EA000892F0895F8949091CC0680E0ECECF6E050
:101EB0002291820F911D9093AE068093AD0693817F
:101EC00080E02281820F911D9093B0068093AF062F
:101ED000958180E02481820F911D9093B2068093BA
:101EE000B106978180E02681820F911D9093B40600
:101EF0008093B306918580E02085820F911D909399
:101F0000B6068093B5067894F8942091D506809112
:101F1000900690919106820F911D3091D60620E097
:101F2000820F931F9093AA068093A9062091D7064B
:101F300080918E0690918F06820F911D3091D80668
:101F400020E0820F931F9093C2068093C106909168
:101F5000DA0680E02091D906820F911D9093EA065F
:101F60008093E9069091DC0680E02091DB06820FE9
:101F7000911D9093C0068093BF069091DE0680E08D
:101F80002091DD06820F911D909393068093920617
:101F90009091E00680E02091DF06820F911D9093E2
:101FA000CA068093C9067894F8949091E30680E07D
:101FB0002091E206820F911D9093AC068093AB06B0
:101FC0009091E50680E02091E406820F911D9093A8
:101FD000E7068093E606789481E00895F89481E01E
:101FE0008093940678940895F8948AE080939406F8
:101FF000789481E00895F89425E0209394068093E6
:102000009506909396066093970670939806789439
:1020100081E00895F89422E0209394068093950639
:10202000909396066093970670939806789481E053
:1020300008952091900630919106FC01E21BF30B6C
:102040009F0180918E0690918F06681B790BF89402
:1020500083E080939406E093950630939606609310
:102060009706709398064093990650939A06789431
:1020700081E00895F89424E02093940680939506D7
:1020800090939606609397067093980640939906EE
:1020900050939A06789481E0089578949091A206DE
:1020A00020E137E22150304011F09F3FD9F7F894FA
:1020B00096E09093A2068093A3066093A4064093B3
:1020C000A506789481E0089581E00895F894309110
:1020D000D80620E04091D706F901E40FF11DAF01C9
:1020E0003091D60620E0E091D5062E0F311DFC017F
:1020F000E21BF30BF0939106E09390069B01241BE7
:10210000350B30938F0620938E069093AA0680930A
:10211000A9067093C2066093C106789481E0089581
:10212000789420919B0680E197E2019711F02F3F70
:10213000E1F7F89488E080939B06789481E0089515
:10214000789420919B0680E197E2019711F02F3F50
:10215000E1F7F89487E080939B06789481E00895F6
:10216000789440919B0620E137E22150304011F0F5
:102170004F3FD9F7F89429E020939B0680939C0663
:1021800090939D06789481E008959091E8069F5F72
:102190009093E8068B3141F4ABECB6E0E2E6F6E072
:1021A00001900D928150E1F78FEF8093500680935C
:1021B000490680934206809194068F3F11F480E097
:1021C0000DC0A2E4B6E0E4E9F6E087E001900D92EC
:1021D0008150E1F78FEF8093940687E090919B0602
:1021E0009F3F79F0E82FF0E0EE5BF94FABE9B6E006
:1021F00097E00D9001929150E1F79FEF90939B062D
:10220000895F9091A2069F3F81F0E82FF0E0EE5B9E
:10221000F94FA2EAB6E087E00D9001928150E1F714
:102220008FEF8093A20685E10895882311F487E05B
:10223000089585E1089587E00E947B129093EC0653
:102240008093EB0608958F9A97988AE090E00E9419
:10225000B008979A84E690E00E94B0080895BF9A6B
:10226000C79ABD9ABE9A8FEF82B984BB0895482F52
:1022700080FF0BC095B321E030E0062E02C0220F94
:10228000331F0A94E2F7922B0CC085B321E030E0B3
:10229000062E02C0220F331F0A94E2F7922F909568
:1022A000982395BB41FF0AC083B121E030E002C012
:1022B000220F331F6A95E2F7822B0AC023B181E017
:1022C00090E002C0880F991F6A95E2F780958223FB
:1022D00083B908959093F4068093F306089580914E
:1022E000F3069091F40608959093EE068093ED0620
:1022F00008958091ED069091EE0608959093F00672
:102300008093EF0608958091EF069091F00608956E
:10231000BC9A089545E322C0C498282F392F0AC0DB
:1023200061507040542F5A95F1F76115710529F0ED
:10233000215030402115310599F7C49A282F392FA3
:1023400007C06150704021503040542F5A95F1F72A
:102350006115710519F02115310599F761157105A0
:10236000D9F608951092F6061092F5061092F2062C
:102370001092F1061092F7061092F8061092F906E4
:102380001092FA061092EE061092ED061092F006E8
:102390001092EF068FEF93E09093F4068093F3068C
:1023A000C598C698BD9ABE9ABF9AC79A1DBC1CBC58
:1023B0008AEA8FBD82E18EBD80E094E097BD86BD44
:1023C00087B7846087BF08951F920F920FB60F9250
:1023D00011242F933F934F938F939F93AF93BF936A
:1023E0008091F5069091F6069C01285E3F4F309350
:1023F000F6062093F50643E0283E340778F0805D2A
:1024000093409093F6068093F5068091F1069091A3
:10241000F20601969093F2068093F1068091F10600
:102420009091F2069C012F5F3F4F3093F20620936C
:10243000F10643E0283E3407C8F0875E934090934E
:10244000F2068093F1068091F7069091F806A0912C
:10245000F906B091FA060196A11DB11D8093F70609
:102460009093F806A093F906B093FA068091ED06D2
:102470009091EE0623E08F3F920710F080E094E009
:102480009BBD8ABD8091EF069091F00643E08F3F9F
:10249000940710F080E094E099BD88BD8091F30628
:1024A0009091F40623E08F3F920710F080E094E0D3
:1024B0009093790080937800BF91AF919F918F9115
:1024C0004F913F912F910F900FBE0F901F90189535
:1024D000E1E6F0E0908121E030E002C0220F331FFE
:1024E0008A95E2F7209592239083E2E6F0E08081DE
:1024F00082238083089590E497B997B18770892BE0
:1025000087B987EC86B901C000003699FDCF84B148
:1025100095B1392F20E0280F311D8091FB06909155
:10252000FC06820F931F9093FC068093FB06C90163
:1025300008958091FB069091FC0608955058BB27A2
:10254000AA270ED0DCC0CDD030F0D2D020F031F4AC
:102550009F3F11F41EF4C2C00EF4E095E7FBB8C033
:10256000E92FDED080F3BA17620773078407950757
:1025700018F071F49EF5F6C00EF4E0950B2EBA2F0C
:10258000A02D0B01B90190010C01CA01A001112479
:10259000FF27591B99F0593F50F4503E68F11A1625
:1025A000F040A22F232F342F4427585FF3CF4695B6
:1025B00037952795A795F0405395C9F77EF41F16D8
:1025C000BA0B620B730B840BBAF09150A1F0FF0FA2
:1025D000BB1F661F771F881FC2F70EC0BA0F621F8E
:1025E000731F841F48F4879577956795B795F7957E
:1025F0009E3F08F0B3CF9395880F08F09927EE0F10
:1026000097958795089540D008F481E00895E8945F
:1026100009C097FB3EF490958095709561957F4F2A
:102620008F4F9F4F9923A9F0F92F96E9BB279395D8
:10263000F695879577956795B795F111F8CFFAF4E8
:10264000BB0F11F460FF1BC06F5F7F4F8F4F9F4F19
:1026500016C0882311F096E911C0772321F09EE877
:10266000872F762F05C0662371F096E8862F70E0DD
:1026700060E02AF09A95660F771F881FDAF7880FB7
:102680009695879597F90895990F0008550FAA0B0D
:10269000E0E8FEEF16161706E807F907C0F0121675
:1026A0001306E407F50798F0621B730B840B950B78
:1026B00039F40A2661F0232B242B252B21F40895CD
:1026C0000A2609F4A140A6958FEF811D811D08956A
:1026D00097F99F6780E870E060E008959FEF80ECD5
:1026E000089500240A941616170618060906089578
:1026F00000240A9412161306140605060895092EDE
:102700000394000C11F4882352F0BB0F40F4BF2B4C
:1027100011F460FF04C06F5F7F4F8F4F9F4F08958C
:1027200057FD9058440F551F59F05F3F71F0479582
:10273000880F97FB991F61F09F3F79F08795089567
:10274000121613061406551FF2CF4695F1DF08C086
:10275000161617061806991FF1CF869571056105A3
:1027600008940895E894BB2766277727CB0197F94B
:1027700008950BD0C4CFB5DF28F0BADF18F0952349
:1027800009F0A6CFABCF1124EECFCADFA0F3959FFF
:10279000D1F3950F50E0551F629FF001729FBB2748
:1027A000F00DB11D639FAA27F00DB11DAA1F649FF4
:1027B0006627B00DA11D661F829F2227B00DA11DA7
:1027C000621F739FB00DA11D621F839FA00D611D2D
:1027D000221F749F3327A00D611D231F849F600D4E
:1027E000211D822F762F6A2F11249F5750408AF087
:1027F000E1F088234AF0EE0FFF1FBB1F661F771F13
:10280000881F91505040A9F79E3F510570F060CF4E
:10281000AACF5F3FECF3983EDCF3869577956795FA
:10282000B795F795E7959F5FC1F7FE2B880F911D30
:102830009695879597F908952F923F924F925F92C0
:102840006F927F928F929F92AF92BF92CF92DF92C0
:10285000EF92FF920F931F93DF93CF93CDB7DEB725
:1028600061970FB6F894DEBF0FBECDBF3C017F87E6
:102870006E876A01FC0117821682838181FD03C085
:102880006FEF7FEF71C39E012F5F3F4F398B288B16
:10289000F3012381EE85FF8523FD859123FF81913F
:1028A000FF87EE87882309F45CC3853251F4EE85F7
:1028B000FF8523FD859123FF8191FF87EE87853278
:1028C00029F490E0B3010E94A31BE2CF982F10E0FF
:1028D000882499241032B0F49B3269F09C3228F499
:1028E000903251F0933271F40BC09D3239F0903335
:1028F00049F4116028C01260146025C0186023C01C
:10290000106121C017FD2AC0892F80538A3078F4C6
:1029100016FF06C0FAE09F9E902C1124980E13C05B
:102920003AE0839E802C1124880E10620CC09E32E7
:1029300021F416FD16C3106406C09C3611F410680D
:1029400002C0983659F4EE85FF8523FD959123FF4B
:102950009191FF87EE87992309F0BCCF892F855489
:10296000833020F4812F8061905E07C0892F8556C7
:10297000833008F0A1C1812F8F7E86FD02C076E0F2
:10298000972E6FE3F62EF822953619F4F0E4FF2A1D
:1029900007C0963619F420E8F22A02C091109A94E2
:1029A000F7FE0BC03BE3391520F427E05CE3B52EBE
:1029B0000EC0B92CB39427E00AC047E0491528F4AB
:1029C00027E0BB2447E0942E02C0292DBB24C6017A
:1029D00004969D878C87F601608171818281938145
:1029E000AE014F5F5F4F0B2D0E94AE1A6C01098143
:1029F000202E332400FF04C003FD02C01DE209C0E5
:102A0000F1FE02C01BE205C0F2FC02C010E001C0F2
:102A100010E2C1018C709070892BB9F1112311F46F
:102A200083E001C084E0881510F088240AC0881A69
:102A3000F3FC07C080E290E0B3010E94A31B8A94DC
:102A4000C9F7112329F0812F90E0B3010E94A31B45
:102A500023FE03C009E312E00EC00DE312E00BC039
:102A6000E114F10409F0805290E0B3010E94A31B2D
:102A70000F5F1F4F05C0EF2CFF24F0E1EF22FF2472
:102A8000F8018491882361F714C1F7FE12C0BC0CD1
:102A900024FE04C08A81813309F4BA941B141CF00B
:102AA000BB24B3942DC0F8E0FB1550F538E0B32EED
:102AB00027C0F6FC25C0892D90E08C159D054CF0B3
:102AC0002CEFC2162FEFD20624F030E8F32A01C013
:102AD0009A94992049F0E2E0F0E0EC0FFD1FE90D37
:102AE000F11D80818033A1F3F7FE0AC0B92CB394A5
:102AF000892D90E0C816D90614F0992401C09C18BD
:102B0000F7FC03C025E030E009C01C141D041CF0D4
:102B100021E030E003C096012F5F3F4F112311F0F9
:102B20002F5F3F4F992029F0892D90E00196280FC3
:102B3000391F882D90E02817390714F0882401C028
:102B4000821A4F2C5524C20189709070892B39F05C
:102B500008C080E290E0B3010E94A31B8A94882001
:102B6000C1F7112329F0812F90E0B3010E94A31B2C
:102B700043FE07C008C080E390E0B3010E94A31B9E
:102B80008A948820C1F7F7FE46C08601D7FE02C0AE
:102B900000E010E076010894E11CF11CE01AF10A53
:102BA00041E050E04C0F5D1FE40EF51E26014B186E
:102BB0005108892D90E0AA24BB24A81AB90A5FEF16
:102BC0000F3F150729F48EE290E0B3010E94A31B8A
:102BD000C016D10634F0401651061CF4F70180816E
:102BE00001C080E3015010400894E11CF11C0A155B
:102BF0001B052CF090E0B3010E94A31BE0CF0C1545
:102C00001D0539F49A81963318F4953311F424FE96
:102C100081E390E04BC08A81813309F00F7E90E020
:102C2000B3010E94A31B9920A1F08EE290E0B301B2
:102C30000E94A31B12E0E1E0F0E0EC0FFD1FE10FAA
:102C4000F11D1F5F808190E0B3010E94A31B9A9445
:102C500091F744FC03C085E690E002C085E490E073
:102C6000B3010E94A31BD7FC05C0C114D10441F4D9
:102C700004FF06C0D094C194D108D3948DE201C062
:102C80008BE290E0B3010E94A31B80E305C08F5F3D
:102C900026EF3FEFC20ED31E3AE0C316D104BCF7B5
:102CA00090E0B3010E94A31BC601C096B3010E942D
:102CB000A31BCC84DD8452C1933631F0933799F055
:102CC000933509F059C023C0F601808189835E01E4
:102CD0000894A11CB11C22E030E0C20ED31E21E0FA
:102CE000E22EF12C12C0F601A080B18016FD03C0C7
:102CF0006FEF7FEF02C0692D70E022E030E0C20E7E
:102D0000D31EC5010E94981B7C011F7713C0F601DA
:102D1000A080B18016FD03C06FEF7FEF02C0692D68
:102D200070E022E030E0C20ED31EC5010E94861B77
:102D30007C01106813FF07C01BC080E290E0B30164
:102D40000E94A31B8A94882D90E0E816F906A8F348
:102D50000FC0F50117FD859117FF81915F0190E08C
:102D6000B3010E94A31B81108A940894E108F10822
:102D7000E114F10471F7F2C0943611F0993689F537
:102D800017FF08C0F601208131814281538184E020
:102D900090E00AC0F601808191819C01442737FDB3
:102DA0004095542F82E090E0C80ED91E9FE6F92E80
:102DB000F12257FF09C050954095309521953F4F1E
:102DC0004F4F5F4F90E8F92ACA01B901AE014F5F3A
:102DD0005F4F2AE030E00E94001CE82EE889EE1ADE
:102DE00041C0953721F41F7E2AE030E01CC0197FD6
:102DF0009F3661F0903720F4983509F0B2C00FC0CB
:102E0000903739F0983709F0ACC004C028E030E0C2
:102E10000AC0106114FD146020E130E004C014FD0C
:102E2000166020E132E017FF08C0F6016081718171
:102E30008281938144E050E008C0F6018081918155
:102E4000BC0180E090E042E050E0C40ED51EAE012F
:102E50004F5F5F4F0E94001CE82E5889E51A8FE7EC
:102E6000F82EF122F6FE0BC08EEFF822E91438F4AA
:102E7000F4FE07C0F2FC05C09FEEF92202C01E2D31
:102E800001C0192DF4FE0DC0FE01EE0DF11D808173
:102E9000803319F4E9EEFE2208C01F5FF2FE05C080
:102EA00003C08F2D867809F01F5F0F2DF3FC14C02F
:102EB000F0FE0FC0181510F09E2C0BC09E2C980C25
:102EC000911A182D06C080E290E0B3010E94A31B66
:102ED0001F5F1815C0F304C0181510F4811A01C043
:102EE000882404FF0FC080E390E0B3010E94A31B7D
:102EF00002FF1DC001FD03C088E790E00EC088E519
:102F000090E00BC0802F867891F001FF02C08BE229
:102F100001C080E2F7FC8DE290E0B3010E94A31BA8
:102F200006C080E390E0B3010E94A31B9A94E914C9
:102F3000C0F3EA94E1E0F0E0EC0FFD1FEE0DF11DAF
:102F4000808190E0B3010E94A31BEE2091F706C0A0
:102F500080E290E0B3010E94A31B8A948820C1F70D
:102F600097CCF30166817781CB0161960FB6F89417
:102F7000DEBF0FBECDBFCF91DF911F910F91FF90AC
:102F8000EF90DF90CF90BF90AF909F908F907F9009
:102F90006F905F904F903F902F900895F89480919C
:102FA0001107882311F481E105C08091740084FF2A
:102FB00005C082E18093110780E015C08091740004
:102FC00085FF07C01092740084E08093740088E14C
:102FD000F1CF10921107809114078093120785EAB0
:102FE0008093740081E07894089580E197E235E061
:102FF0000DC02091740020FD06C02091740024FDB6
:1030000002C081E00895232F2A95F1F701972FEF51
:103010008F3F920771F7F8941092740084E08093C8
:10302000740080911107803118F483E180931107B7
:10303000789480E00895809111070895E4E7F0E026
:10304000108288E4809370008FEF8093730084E097
:10305000808381E08093110708951F920F920FB62D
:103060000F920BB60F9211242F933F938F939F9340
:10307000EF93FF9380917100887F809313078832CC
:1030800051F1893288F4803121F1813138F488237B
:1030900009F471C0883009F073C01BC08831D9F0C1
:1030A000803209F06DC067C0803409F442C08134B9
:1030B00038F4803309F45FC0883309F061C056C02A
:1030C000803559F1883509F442C0883409F058C078
:1030D00052C010921507909115078091120798170A
:1030E00068F480911507E82FF0E0E350F94F9081E4
:1030F0008F5F809315079093730027C08091160708
:10310000882369F180911607809312078091FD064C
:1031100081608093FD0685EA26C080911507909115
:103120007300E82FF0E0E350F94F90838F5F8093B6
:103130001507809115072091120790E0019630E065
:103140008217930714F485EC0EC085E80CC0E0915B
:10315000150780917300F0E0E350F94F808382E01F
:103160008093110784E98093740010C084E88093F1
:10317000740085E109C084E98093740086E104C08D
:1031800084E88093740087E180931107FF91EF91A9
:103190009F918F913F912F910F900BBE0F900FBE7B
:1031A0000F901F9018950895809314076093160749
:1031B0000E94CE170E94F517089584E58093FD06BE
:1031C00084E28093FE068091D5079091D607909374
:1031D000FF06809300078091D7079091D8079093BE
:1031E0000107809302078091170790911807909329
:1031F00003078093040788E062E00E94D4180895D2
:1032000084E58093FD0683E28093FE0682E067E01A
:103210000E94D4189091FE0680E02091FF06820F54
:10322000911D9093D6078093D5079091000780E079
:1032300020910107820F911D9093D8078093D707A3
:103240009091020780E020910307820F911D9093D7
:10325000180780931707089584E58093FD0682E29E
:103260008093FE068091D3079091D4079093FF0638
:10327000809300078091190790911A079093010796
:10328000809302078091D9079091DA079093030702
:103290008093040788E062E00E94D418089584E5D2
:1032A0008093FD0681E28093FE0682E067E00E9443
:1032B000D4189091FE0680E02091FF06820F911DA8
:1032C0009093D4078093D3079091000780E02091DA
:1032D0000107820F911D90931A078093190790910F
:1032E000020780E020910307820F911D9093DA0777
:1032F0008093D907089524E52093FD0620E22093CA
:10330000FE069093FF068093000784E062E00E942F
:10331000D418089594E59093FD0693E19093FE06EA
:103320008093FF0683E063E00E94D4183091FE068C
:1033300020E08091FF06280F311DC901089584E522
:103340008093FD0682E18093FE0682E062E00E94A7
:10335000D4188091FE0680931B07089584E580931E
:10336000FD0681E18093FE068091D2078093FF06DF
:1033700083E062E00E94D418089584E58093FD06FE
:1033800080E18093FE0680911C078093FF0683E016
:1033900062E00E94D418089584E58093FD0686E0DB
:1033A0008093FE0682E062E00E94D4188091FE06BF
:1033B000089584E58093FD0685E08093FE0682E013
:1033C00062E00E94D4188091FE06089584E58093FF
:1033D000FD0684E08093FE0682E062E00E94D4183D
:1033E0008091FE0608950F931F93182F062F84E5F2
:1033F0008093FD0683E08093FE061093FF066093A2
:10340000000784E061E10E94D418EEEFF6E007C007
:10341000A12FB0E0A35EB84F81918C93100F153BA4
:1034200020F487E0EE30F80799F71F910F91089587
:1034300094E59093FD0692E09093FE068093FF063C
:103440006093000784E062E00E94D418089594E538
:103450009093FD0691E09093FE068093FF0683E033
:1034600062E00E94D418089584E58093FD061092CE
:10347000FE0682E062E00E94D4180895991B79E06C
:1034800004C0991F961708F0961B881F7A95C9F7F4
:103490008095089597FB092E07260AD077FD04D062
:1034A00049D006D000201AF4709561957F4F089599
:1034B000F6F7909581959F4F0895A1E21A2EAA1BC9
:1034C000BB1BFD010DC0AA1FBB1FEE1FFF1FA217D4
:1034D000B307E407F50720F0A21BB30BE40BF50BD1
:1034E000661F771F881F991F1A9469F7609570955A
:1034F000809590959B01AC01BD01CF01089597FB8C
:10350000092E05260ED057FD04D0D7DF0AD0001CA7
:1035100038F450954095309521953F4F4F4F5F4F70
:103520000895F6F790958095709561957F4F8F4F30
:103530009F4F0895AA1BBB1B51E107C0AA1FBB1FC9
:10354000A617B70710F0A61BB70B881F991F5A952F
:10355000A9F780959095BC01CD010895283008F019
:1035600027E03327DA01990F311D87FD916000961E
:103570006105710539F432602E5F3D9330E32A9581
:10358000E1F708959F3F30F080387105610509F03B
:103590003C5F3C5F3D93913008F08068911DDF9364
:1035A000CF931F930F93FF92EF92192F987F9695C9
:1035B000E92F96959695E90FFF27E556FD4F992738
:1035C0003327EE24FF24A701E70105900894079410
:1035D00028F4360FE71EF81E491F511D660F771F8E
:1035E000881F991F0694A1F70590079428F4E70E09
:1035F000F81E491F561FC11D770F881F991F661F90
:103600000694A1F70590079428F4F80E491F561F59
:10361000C71FD11D880F991F661F771F0694A1F73A
:103620000590079420F4490F561FC71FD81F990F04
:10363000661F771F881F0694A9F78491109517704D
:1036400041F0D695C79557954795F794E7941A9505
:10365000C1F7E1E4F2E06894159015913591659118
:10366000959105907FE27395E118F10A430B560B93
:10367000C90BD009C0F7E10CF11E431F561FC91F2B
:10368000D01D7EF4703311F48A95E6CFE894015092
:1036900030F0080F0AF40027021708F4202F2395B2
:1036A000022F7A3328F079E37D932A95E9F710C049
:1036B0007D932A9589F60694979567953795179582
:1036C0001794E118F10A430B560BC90BD00998F077
:1036D00023957E9173957A3308F070E37C932013E1
:1036E000B8F77E9170617D9330F0839571E37D939F
:1036F00070E32A95E1F71124EF90FF900F911F914D
:10370000CF91DF91992787FD90950895FC01059051
:10371000615070400110D8F7809590958E0F9F1FD3
:103720000895FB01DC0101900D920020E1F708955E
:10373000FC016150704001900110D8F78095909580
:103740008E0F9F1F08950F931F93CF93DF938C01CC
:10375000EB018B8181FF1BC082FF0DC02E813F8159
:103760008C819D812817390764F4E881F9810193E0
:10377000F983E88306C0E885F985802F0995892BB0
:1037800031F48E819F8101969F838E8302C00FEF5B
:103790001FEFC801DF91CF911F910F9108950F93F3
:1037A0001F93DF93CF93CDB7DEB72E970FB6F89464
:1037B000DEBF0FBECDBF0D891E8986E08C831A83C4
:1037C00009838FEF9FE79E838D839E01275E3F4F86
:1037D000CE0101966F89788DA9010E941C142F815A
:1037E0003885020F131FF80110822E960FB6F89439
:1037F000DEBF0FBECDBFCF91DF911F910F91089516
:10380000FA01AA27283051F1203181F1E8946F9311
:103810006E7F6E5F7F4F8F4F9F4FAF4FB1E03ED0B7
:10382000B4E03CD0670F781F891F9A1FA11D680F55
:10383000791F8A1F911DA11D6A0F711D811D911D88
:10384000A11D20D009F468943F912AE0269F1124FD
:103850003019305D3193DEF6CF010895462F477061
:10386000405D4193B3E00FD0C9F7F6CF462F4F70BC
:10387000405D4A3318F0495D31FD4052419302D01A
:10388000A9F7EACFB4E0A6959795879577956795C0
:10389000BA95C9F700976105710508959B01AC01C0
:1038A0000A2E06945795479537952795BA95C9F7E7
:1038B000620F731F841F951FA01D0895F894FFCFFA
:1038C0004D617274696E692100496E69743A004DE8
:1038D0006F746F722020202020204F4B00584245EB
:1038E00045202020202020204F4B00417564696F27
:1038F0002020202020204F4B0053656E736F72658F
:103900006E2020204F4B004E4453202020202020AA
:1039100020204F4B004C45445320202020202020C5
:103920004F4B00496E7465727275707473204F4B03
:103930000042657265697421002D3E204175746FE7
:103940006D6174696B002D3E204D616E75656C6C08
:103950000020202020202020202020202020202087
:103960002020202020202000202020202020202077
:103970002020202020002020202020202020202067
:1039800020202020202020202020005643433A20C1
:1039900025322E3166205600000000000000000095
:1039A0000000000000000000000000000000000017
:1039B0000000000000000000000000000000000007
:1039C00000000000000000000000000000000000F7
:1039D00000000000000000000000000000000000E7
:1039E00000000000000000000000000000000000D7
:1039F00000000000000000000000000003000000C4
:103A000000000400005F00000E00070007001F1404
:103A10007F147F141F242A7F2A121F231308646235
:103A20001F36495522500600050300000E001C22D7
:103A300041000E0041221C001F14083E08141F08FC
:103A4000083E08080600A06000000F0808080808E3
:103A50000600606000000E00601C03001F3E51491C
:103A6000453E0E00427F40001F42615149461D21E4
:103A700041454B311F1814127F101D27454545390C
:103A8000173C4A4949301E01710905031D36494951
:103A900049361D064949291E060036360000060033
:103AA000AC6C00000F08142241000F1414141414FD
:103AB0001E00412214081F02015109061F324979D4
:103AC000413E1F7C1211127C177F49494936173E2F
:103AD000414141221F7F4141221C177F49494941F1
:103AE000177F09090901173E4149497A177F0808DC
:103AF000087F0E00417F41001F2040413F011F7F92
:103B000008142241177F404040401F7F020C027F73
:103B10001F7F0408107F173E4141413E177F09096E
:103B20000906173E414141BE1D7F09192946174626
:103B3000494949311F01017F0101173F4040403F82
:103B40001F1F2040201F1F3F4038403F1F631408A5
:103B500014631F07087008071F61514945430E0091
:103B60007F4141000E00031C60000E0041417F00B8
:103B70000E04020102041F40404040400C000003BC
:103B80000400172054545478177F48444438173899
:103B9000444444201D384444487F17385454541832
:103BA00017087E0901021718A4A4A478177F080437
:103BB00004780E00447D40000D4080847D000F7F1E
:103BC000102844000E00417F40001F7C04780478D8
:103BD000177C0804047817384444443817FC24241C
:103BE00024181718242424FC177C080404081748F8
:103BF0005454542017043F4440201D3C4040207C36
:103C00001F1C2040201C1F3C4030403C1F442810FB
:103C10002844171CA0A0A07C1F4464544C440E00F0
:103C2000083641000400007F00000E004136080005
:0C3C30001F02010204021FAA55AA55AA97
:00000001FF
